{
	"Variables.sol": {
		"VariablesExp": {
			"abi": [
				{
					"inputs": [],
					"name": "b",
					"outputs": [
						{
							"internalType": "bool",
							"name": "",
							"type": "bool"
						}
					],
					"stateMutability": "view",
					"type": "function"
				},
				{
					"inputs": [],
					"name": "foo",
					"outputs": [],
					"stateMutability": "nonpayable",
					"type": "function"
				},
				{
					"inputs": [],
					"name": "globalVars",
					"outputs": [
						{
							"internalType": "address",
							"name": "",
							"type": "address"
						},
						{
							"internalType": "uint256",
							"name": "",
							"type": "uint256"
						},
						{
							"internalType": "uint256",
							"name": "",
							"type": "uint256"
						}
					],
					"stateMutability": "view",
					"type": "function"
				},
				{
					"inputs": [],
					"name": "i",
					"outputs": [
						{
							"internalType": "uint256",
							"name": "",
							"type": "uint256"
						}
					],
					"stateMutability": "view",
					"type": "function"
				},
				{
					"inputs": [],
					"name": "myAddress",
					"outputs": [
						{
							"internalType": "address",
							"name": "",
							"type": "address"
						}
					],
					"stateMutability": "view",
					"type": "function"
				}
			],
			"devdoc": {
				"kind": "dev",
				"methods": {},
				"version": 1
			},
			"evm": {
				"assembly": "    /* \"Variables.sol\":60:1025  contract VariablesExp {\r... */\n  mstore(0x40, 0x80)\n  callvalue\n  dup1\n  iszero\n  tag_1\n  jumpi\n  0x00\n  dup1\n  revert\ntag_1:\n  pop\n  dataSize(sub_0)\n  dup1\n  dataOffset(sub_0)\n  0x00\n  codecopy\n  0x00\n  return\nstop\n\nsub_0: assembly {\n        /* \"Variables.sol\":60:1025  contract VariablesExp {\r... */\n      mstore(0x40, 0x80)\n      callvalue\n      dup1\n      iszero\n      tag_1\n      jumpi\n      0x00\n      dup1\n      revert\n    tag_1:\n      pop\n      jumpi(tag_2, lt(calldatasize, 0x04))\n      shr(0xe0, calldataload(0x00))\n      dup1\n      0x26b85ee1\n      eq\n      tag_3\n      jumpi\n      dup1\n      0x4df7e3d0\n      eq\n      tag_4\n      jumpi\n      dup1\n      0x7e6230f3\n      eq\n      tag_5\n      jumpi\n      dup1\n      0xc2985578\n      eq\n      tag_6\n      jumpi\n      dup1\n      0xe5aa3d58\n      eq\n      tag_7\n      jumpi\n    tag_2:\n      0x00\n      dup1\n      revert\n        /* \"Variables.sol\":205:229  address public myAddress */\n    tag_3:\n      tag_8\n      tag_9\n      jump\t// in\n    tag_8:\n      mload(0x40)\n      tag_10\n      swap2\n      swap1\n      tag_11\n      jump\t// in\n    tag_10:\n      mload(0x40)\n      dup1\n      swap2\n      sub\n      swap1\n      return\n        /* \"Variables.sol\":147:160  bool public b */\n    tag_4:\n      tag_12\n      tag_13\n      jump\t// in\n    tag_12:\n      mload(0x40)\n      tag_14\n      swap2\n      swap1\n      tag_15\n      jump\t// in\n    tag_14:\n      mload(0x40)\n      dup1\n      swap2\n      sub\n      swap1\n      return\n        /* \"Variables.sol\":559:1022  function globalVars() external view returns (address, uint, uint) {\r... */\n    tag_5:\n      tag_16\n      tag_17\n      jump\t// in\n    tag_16:\n      mload(0x40)\n      tag_18\n      swap4\n      swap3\n      swap2\n      swap1\n      tag_19\n      jump\t// in\n    tag_18:\n      mload(0x40)\n      dup1\n      swap2\n      sub\n      swap1\n      return\n        /* \"Variables.sol\":267:547  function foo() external {\r... */\n    tag_6:\n      tag_20\n      tag_21\n      jump\t// in\n    tag_20:\n      stop\n        /* \"Variables.sol\":89:102  uint public i */\n    tag_7:\n      tag_22\n      tag_23\n      jump\t// in\n    tag_22:\n      mload(0x40)\n      tag_24\n      swap2\n      swap1\n      tag_25\n      jump\t// in\n    tag_24:\n      mload(0x40)\n      dup1\n      swap2\n      sub\n      swap1\n      return\n        /* \"Variables.sol\":205:229  address public myAddress */\n    tag_9:\n      0x01\n      dup1\n      sload\n      swap1\n      0x0100\n      exp\n      swap1\n      div\n      0xffffffffffffffffffffffffffffffffffffffff\n      and\n      dup2\n      jump\t// out\n        /* \"Variables.sol\":147:160  bool public b */\n    tag_13:\n      0x01\n      0x00\n      swap1\n      sload\n      swap1\n      0x0100\n      exp\n      swap1\n      div\n      0xff\n      and\n      dup2\n      jump\t// out\n        /* \"Variables.sol\":559:1022  function globalVars() external view returns (address, uint, uint) {\r... */\n    tag_17:\n        /* \"Variables.sol\":604:611  address */\n      0x00\n        /* \"Variables.sol\":613:617  uint */\n      dup1\n        /* \"Variables.sol\":619:623  uint */\n      0x00\n        /* \"Variables.sol\":712:726  address sender */\n      dup1\n        /* \"Variables.sol\":729:739  msg.sender */\n      caller\n        /* \"Variables.sol\":712:739  address sender = msg.sender */\n      swap1\n      pop\n        /* \"Variables.sol\":793:807  uint timeStamp */\n      0x00\n        /* \"Variables.sol\":810:825  block.timestamp */\n      timestamp\n        /* \"Variables.sol\":793:825  uint timeStamp = block.timestamp */\n      swap1\n      pop\n        /* \"Variables.sol\":886:899  uint blockNum */\n      0x00\n        /* \"Variables.sol\":902:914  block.number */\n      number\n        /* \"Variables.sol\":886:914  uint blockNum = block.number */\n      swap1\n      pop\n        /* \"Variables.sol\":986:992  sender */\n      dup3\n        /* \"Variables.sol\":994:1003  timeStamp */\n      dup3\n        /* \"Variables.sol\":1005:1013  blockNum */\n      dup3\n        /* \"Variables.sol\":978:1014  return (sender, timeStamp, blockNum) */\n      swap6\n      pop\n      swap6\n      pop\n      swap6\n      pop\n      pop\n      pop\n      pop\n        /* \"Variables.sol\":559:1022  function globalVars() external view returns (address, uint, uint) {\r... */\n      swap1\n      swap2\n      swap3\n      jump\t// out\n        /* \"Variables.sol\":267:547  function foo() external {\r... */\n    tag_21:\n        /* \"Variables.sol\":302:308  uint x */\n      0x00\n        /* \"Variables.sol\":311:314  123 */\n      0x7b\n        /* \"Variables.sol\":302:314  uint x = 123 */\n      swap1\n      pop\n        /* \"Variables.sol\":360:366  bool f */\n      0x00\n        /* \"Variables.sol\":445:448  456 */\n      0x01c8\n        /* \"Variables.sol\":440:448  x += 456 */\n      dup3\n      tag_28\n      swap2\n      swap1\n      tag_29\n      jump\t// in\n    tag_28:\n      swap2\n      pop\n        /* \"Variables.sol\":463:467  true */\n      0x01\n        /* \"Variables.sol\":459:467  f = true */\n      swap1\n      pop\n        /* \"Variables.sol\":484:487  123 */\n      0x7b\n        /* \"Variables.sol\":480:481  i */\n      0x00\n        /* \"Variables.sol\":480:487  i = 123 */\n      dup2\n      swap1\n      sstore\n      pop\n        /* \"Variables.sol\":502:506  true */\n      0x01\n        /* \"Variables.sol\":498:499  b */\n      dup1\n      0x00\n        /* \"Variables.sol\":498:506  b = true */\n      0x0100\n      exp\n      dup2\n      sload\n      dup2\n      0xff\n      mul\n      not\n      and\n      swap1\n      dup4\n      iszero\n      iszero\n      mul\n      or\n      swap1\n      sstore\n      pop\n        /* \"Variables.sol\":537:538  1 */\n      0x01\n        /* \"Variables.sol\":517:526  myAddress */\n      dup1\n      0x01\n        /* \"Variables.sol\":517:539  myAddress = address(1) */\n      0x0100\n      exp\n      dup2\n      sload\n      dup2\n      0xffffffffffffffffffffffffffffffffffffffff\n      mul\n      not\n      and\n      swap1\n      dup4\n      0xffffffffffffffffffffffffffffffffffffffff\n      and\n      mul\n      or\n      swap1\n      sstore\n      pop\n        /* \"Variables.sol\":291:547  {\r... */\n      pop\n      pop\n        /* \"Variables.sol\":267:547  function foo() external {\r... */\n      jump\t// out\n        /* \"Variables.sol\":89:102  uint public i */\n    tag_23:\n      sload(0x00)\n      dup2\n      jump\t// out\n        /* \"#utility.yul\":7:125   */\n    tag_31:\n        /* \"#utility.yul\":94:118   */\n      tag_33\n        /* \"#utility.yul\":112:117   */\n      dup2\n        /* \"#utility.yul\":94:118   */\n      tag_34\n      jump\t// in\n    tag_33:\n        /* \"#utility.yul\":89:92   */\n      dup3\n        /* \"#utility.yul\":82:119   */\n      mstore\n        /* \"#utility.yul\":7:125   */\n      pop\n      pop\n      jump\t// out\n        /* \"#utility.yul\":131:240   */\n    tag_35:\n        /* \"#utility.yul\":212:233   */\n      tag_37\n        /* \"#utility.yul\":227:232   */\n      dup2\n        /* \"#utility.yul\":212:233   */\n      tag_38\n      jump\t// in\n    tag_37:\n        /* \"#utility.yul\":207:210   */\n      dup3\n        /* \"#utility.yul\":200:234   */\n      mstore\n        /* \"#utility.yul\":131:240   */\n      pop\n      pop\n      jump\t// out\n        /* \"#utility.yul\":246:364   */\n    tag_39:\n        /* \"#utility.yul\":333:357   */\n      tag_41\n        /* \"#utility.yul\":351:356   */\n      dup2\n        /* \"#utility.yul\":333:357   */\n      tag_42\n      jump\t// in\n    tag_41:\n        /* \"#utility.yul\":328:331   */\n      dup3\n        /* \"#utility.yul\":321:358   */\n      mstore\n        /* \"#utility.yul\":246:364   */\n      pop\n      pop\n      jump\t// out\n        /* \"#utility.yul\":370:592   */\n    tag_11:\n        /* \"#utility.yul\":463:467   */\n      0x00\n        /* \"#utility.yul\":501:503   */\n      0x20\n        /* \"#utility.yul\":490:499   */\n      dup3\n        /* \"#utility.yul\":486:504   */\n      add\n        /* \"#utility.yul\":478:504   */\n      swap1\n      pop\n        /* \"#utility.yul\":514:585   */\n      tag_44\n        /* \"#utility.yul\":582:583   */\n      0x00\n        /* \"#utility.yul\":571:580   */\n      dup4\n        /* \"#utility.yul\":567:584   */\n      add\n        /* \"#utility.yul\":558:564   */\n      dup5\n        /* \"#utility.yul\":514:585   */\n      tag_31\n      jump\t// in\n    tag_44:\n        /* \"#utility.yul\":370:592   */\n      swap3\n      swap2\n      pop\n      pop\n      jump\t// out\n        /* \"#utility.yul\":598:1040   */\n    tag_19:\n        /* \"#utility.yul\":747:751   */\n      0x00\n        /* \"#utility.yul\":785:787   */\n      0x60\n        /* \"#utility.yul\":774:783   */\n      dup3\n        /* \"#utility.yul\":770:788   */\n      add\n        /* \"#utility.yul\":762:788   */\n      swap1\n      pop\n        /* \"#utility.yul\":798:869   */\n      tag_46\n        /* \"#utility.yul\":866:867   */\n      0x00\n        /* \"#utility.yul\":855:864   */\n      dup4\n        /* \"#utility.yul\":851:868   */\n      add\n        /* \"#utility.yul\":842:848   */\n      dup7\n        /* \"#utility.yul\":798:869   */\n      tag_31\n      jump\t// in\n    tag_46:\n        /* \"#utility.yul\":879:951   */\n      tag_47\n        /* \"#utility.yul\":947:949   */\n      0x20\n        /* \"#utility.yul\":936:945   */\n      dup4\n        /* \"#utility.yul\":932:950   */\n      add\n        /* \"#utility.yul\":923:929   */\n      dup6\n        /* \"#utility.yul\":879:951   */\n      tag_39\n      jump\t// in\n    tag_47:\n        /* \"#utility.yul\":961:1033   */\n      tag_48\n        /* \"#utility.yul\":1029:1031   */\n      0x40\n        /* \"#utility.yul\":1018:1027   */\n      dup4\n        /* \"#utility.yul\":1014:1032   */\n      add\n        /* \"#utility.yul\":1005:1011   */\n      dup5\n        /* \"#utility.yul\":961:1033   */\n      tag_39\n      jump\t// in\n    tag_48:\n        /* \"#utility.yul\":598:1040   */\n      swap5\n      swap4\n      pop\n      pop\n      pop\n      pop\n      jump\t// out\n        /* \"#utility.yul\":1046:1256   */\n    tag_15:\n        /* \"#utility.yul\":1133:1137   */\n      0x00\n        /* \"#utility.yul\":1171:1173   */\n      0x20\n        /* \"#utility.yul\":1160:1169   */\n      dup3\n        /* \"#utility.yul\":1156:1174   */\n      add\n        /* \"#utility.yul\":1148:1174   */\n      swap1\n      pop\n        /* \"#utility.yul\":1184:1249   */\n      tag_50\n        /* \"#utility.yul\":1246:1247   */\n      0x00\n        /* \"#utility.yul\":1235:1244   */\n      dup4\n        /* \"#utility.yul\":1231:1248   */\n      add\n        /* \"#utility.yul\":1222:1228   */\n      dup5\n        /* \"#utility.yul\":1184:1249   */\n      tag_35\n      jump\t// in\n    tag_50:\n        /* \"#utility.yul\":1046:1256   */\n      swap3\n      swap2\n      pop\n      pop\n      jump\t// out\n        /* \"#utility.yul\":1262:1484   */\n    tag_25:\n        /* \"#utility.yul\":1355:1359   */\n      0x00\n        /* \"#utility.yul\":1393:1395   */\n      0x20\n        /* \"#utility.yul\":1382:1391   */\n      dup3\n        /* \"#utility.yul\":1378:1396   */\n      add\n        /* \"#utility.yul\":1370:1396   */\n      swap1\n      pop\n        /* \"#utility.yul\":1406:1477   */\n      tag_52\n        /* \"#utility.yul\":1474:1475   */\n      0x00\n        /* \"#utility.yul\":1463:1472   */\n      dup4\n        /* \"#utility.yul\":1459:1476   */\n      add\n        /* \"#utility.yul\":1450:1456   */\n      dup5\n        /* \"#utility.yul\":1406:1477   */\n      tag_39\n      jump\t// in\n    tag_52:\n        /* \"#utility.yul\":1262:1484   */\n      swap3\n      swap2\n      pop\n      pop\n      jump\t// out\n        /* \"#utility.yul\":1490:1795   */\n    tag_29:\n        /* \"#utility.yul\":1530:1533   */\n      0x00\n        /* \"#utility.yul\":1549:1569   */\n      tag_54\n        /* \"#utility.yul\":1567:1568   */\n      dup3\n        /* \"#utility.yul\":1549:1569   */\n      tag_42\n      jump\t// in\n    tag_54:\n        /* \"#utility.yul\":1544:1569   */\n      swap2\n      pop\n        /* \"#utility.yul\":1583:1603   */\n      tag_55\n        /* \"#utility.yul\":1601:1602   */\n      dup4\n        /* \"#utility.yul\":1583:1603   */\n      tag_42\n      jump\t// in\n    tag_55:\n        /* \"#utility.yul\":1578:1603   */\n      swap3\n      pop\n        /* \"#utility.yul\":1737:1738   */\n      dup3\n        /* \"#utility.yul\":1669:1735   */\n      0xffffffffffffffffffffffffffffffffffffffffffffffffffffffffffffffff\n        /* \"#utility.yul\":1665:1739   */\n      sub\n        /* \"#utility.yul\":1662:1663   */\n      dup3\n        /* \"#utility.yul\":1659:1740   */\n      gt\n        /* \"#utility.yul\":1656:1763   */\n      iszero\n      tag_56\n      jumpi\n        /* \"#utility.yul\":1743:1761   */\n      tag_57\n      tag_58\n      jump\t// in\n    tag_57:\n        /* \"#utility.yul\":1656:1763   */\n    tag_56:\n        /* \"#utility.yul\":1787:1788   */\n      dup3\n        /* \"#utility.yul\":1784:1785   */\n      dup3\n        /* \"#utility.yul\":1780:1789   */\n      add\n        /* \"#utility.yul\":1773:1789   */\n      swap1\n      pop\n        /* \"#utility.yul\":1490:1795   */\n      swap3\n      swap2\n      pop\n      pop\n      jump\t// out\n        /* \"#utility.yul\":1801:1897   */\n    tag_34:\n        /* \"#utility.yul\":1838:1845   */\n      0x00\n        /* \"#utility.yul\":1867:1891   */\n      tag_60\n        /* \"#utility.yul\":1885:1890   */\n      dup3\n        /* \"#utility.yul\":1867:1891   */\n      tag_61\n      jump\t// in\n    tag_60:\n        /* \"#utility.yul\":1856:1891   */\n      swap1\n      pop\n        /* \"#utility.yul\":1801:1897   */\n      swap2\n      swap1\n      pop\n      jump\t// out\n        /* \"#utility.yul\":1903:1993   */\n    tag_38:\n        /* \"#utility.yul\":1937:1944   */\n      0x00\n        /* \"#utility.yul\":1980:1985   */\n      dup2\n        /* \"#utility.yul\":1973:1986   */\n      iszero\n        /* \"#utility.yul\":1966:1987   */\n      iszero\n        /* \"#utility.yul\":1955:1987   */\n      swap1\n      pop\n        /* \"#utility.yul\":1903:1993   */\n      swap2\n      swap1\n      pop\n      jump\t// out\n        /* \"#utility.yul\":1999:2125   */\n    tag_61:\n        /* \"#utility.yul\":2036:2043   */\n      0x00\n        /* \"#utility.yul\":2076:2118   */\n      0xffffffffffffffffffffffffffffffffffffffff\n        /* \"#utility.yul\":2069:2074   */\n      dup3\n        /* \"#utility.yul\":2065:2119   */\n      and\n        /* \"#utility.yul\":2054:2119   */\n      swap1\n      pop\n        /* \"#utility.yul\":1999:2125   */\n      swap2\n      swap1\n      pop\n      jump\t// out\n        /* \"#utility.yul\":2131:2208   */\n    tag_42:\n        /* \"#utility.yul\":2168:2175   */\n      0x00\n        /* \"#utility.yul\":2197:2202   */\n      dup2\n        /* \"#utility.yul\":2186:2202   */\n      swap1\n      pop\n        /* \"#utility.yul\":2131:2208   */\n      swap2\n      swap1\n      pop\n      jump\t// out\n        /* \"#utility.yul\":2214:2394   */\n    tag_58:\n        /* \"#utility.yul\":2262:2339   */\n      0x4e487b7100000000000000000000000000000000000000000000000000000000\n        /* \"#utility.yul\":2259:2260   */\n      0x00\n        /* \"#utility.yul\":2252:2340   */\n      mstore\n        /* \"#utility.yul\":2359:2363   */\n      0x11\n        /* \"#utility.yul\":2356:2357   */\n      0x04\n        /* \"#utility.yul\":2349:2364   */\n      mstore\n        /* \"#utility.yul\":2383:2387   */\n      0x24\n        /* \"#utility.yul\":2380:2381   */\n      0x00\n        /* \"#utility.yul\":2373:2388   */\n      revert\n\n    auxdata: 0xa2646970667358221220a8c4f9a0370bdf5f6e81b97261c4fd09ce340d98fedefc2f288f445785d8810464736f6c63430008070033\n}\n",
				"bytecode": {
					"linkReferences": {},
					"object": "608060405234801561001057600080fd5b5061037c806100206000396000f3fe608060405234801561001057600080fd5b50600436106100575760003560e01c806326b85ee11461005c5780634df7e3d01461007a5780637e6230f314610098578063c2985578146100b8578063e5aa3d58146100c2575b600080fd5b6100646100e0565b60405161007191906101f1565b60405180910390f35b610082610104565b60405161008f9190610243565b60405180910390f35b6100a0610117565b6040516100af9392919061020c565b60405180910390f35b6100c061013b565b005b6100ca6101be565b6040516100d7919061025e565b60405180910390f35b60018054906101000a900473ffffffffffffffffffffffffffffffffffffffff1681565b600160009054906101000a900460ff1681565b60008060008033905060004290506000439050828282955095509550505050909192565b6000607b905060006101c8826101519190610279565b915060019050607b60008190555060018060006101000a81548160ff02191690831515021790555060018060016101000a81548173ffffffffffffffffffffffffffffffffffffffff021916908373ffffffffffffffffffffffffffffffffffffffff1602179055505050565b60005481565b6101cd816102cf565b82525050565b6101dc816102e1565b82525050565b6101eb8161030d565b82525050565b600060208201905061020660008301846101c4565b92915050565b600060608201905061022160008301866101c4565b61022e60208301856101e2565b61023b60408301846101e2565b949350505050565b600060208201905061025860008301846101d3565b92915050565b600060208201905061027360008301846101e2565b92915050565b60006102848261030d565b915061028f8361030d565b9250827fffffffffffffffffffffffffffffffffffffffffffffffffffffffffffffffff038211156102c4576102c3610317565b5b828201905092915050565b60006102da826102ed565b9050919050565b60008115159050919050565b600073ffffffffffffffffffffffffffffffffffffffff82169050919050565b6000819050919050565b7f4e487b7100000000000000000000000000000000000000000000000000000000600052601160045260246000fdfea2646970667358221220a8c4f9a0370bdf5f6e81b97261c4fd09ce340d98fedefc2f288f445785d8810464736f6c63430008070033",
					"opcodes": "PUSH1 0x80 PUSH1 0x40 MSTORE CALLVALUE DUP1 ISZERO PUSH2 0x10 JUMPI PUSH1 0x0 DUP1 REVERT JUMPDEST POP PUSH2 0x37C DUP1 PUSH2 0x20 PUSH1 0x0 CODECOPY PUSH1 0x0 RETURN INVALID PUSH1 0x80 PUSH1 0x40 MSTORE CALLVALUE DUP1 ISZERO PUSH2 0x10 JUMPI PUSH1 0x0 DUP1 REVERT JUMPDEST POP PUSH1 0x4 CALLDATASIZE LT PUSH2 0x57 JUMPI PUSH1 0x0 CALLDATALOAD PUSH1 0xE0 SHR DUP1 PUSH4 0x26B85EE1 EQ PUSH2 0x5C JUMPI DUP1 PUSH4 0x4DF7E3D0 EQ PUSH2 0x7A JUMPI DUP1 PUSH4 0x7E6230F3 EQ PUSH2 0x98 JUMPI DUP1 PUSH4 0xC2985578 EQ PUSH2 0xB8 JUMPI DUP1 PUSH4 0xE5AA3D58 EQ PUSH2 0xC2 JUMPI JUMPDEST PUSH1 0x0 DUP1 REVERT JUMPDEST PUSH2 0x64 PUSH2 0xE0 JUMP JUMPDEST PUSH1 0x40 MLOAD PUSH2 0x71 SWAP2 SWAP1 PUSH2 0x1F1 JUMP JUMPDEST PUSH1 0x40 MLOAD DUP1 SWAP2 SUB SWAP1 RETURN JUMPDEST PUSH2 0x82 PUSH2 0x104 JUMP JUMPDEST PUSH1 0x40 MLOAD PUSH2 0x8F SWAP2 SWAP1 PUSH2 0x243 JUMP JUMPDEST PUSH1 0x40 MLOAD DUP1 SWAP2 SUB SWAP1 RETURN JUMPDEST PUSH2 0xA0 PUSH2 0x117 JUMP JUMPDEST PUSH1 0x40 MLOAD PUSH2 0xAF SWAP4 SWAP3 SWAP2 SWAP1 PUSH2 0x20C JUMP JUMPDEST PUSH1 0x40 MLOAD DUP1 SWAP2 SUB SWAP1 RETURN JUMPDEST PUSH2 0xC0 PUSH2 0x13B JUMP JUMPDEST STOP JUMPDEST PUSH2 0xCA PUSH2 0x1BE JUMP JUMPDEST PUSH1 0x40 MLOAD PUSH2 0xD7 SWAP2 SWAP1 PUSH2 0x25E JUMP JUMPDEST PUSH1 0x40 MLOAD DUP1 SWAP2 SUB SWAP1 RETURN JUMPDEST PUSH1 0x1 DUP1 SLOAD SWAP1 PUSH2 0x100 EXP SWAP1 DIV PUSH20 0xFFFFFFFFFFFFFFFFFFFFFFFFFFFFFFFFFFFFFFFF AND DUP2 JUMP JUMPDEST PUSH1 0x1 PUSH1 0x0 SWAP1 SLOAD SWAP1 PUSH2 0x100 EXP SWAP1 DIV PUSH1 0xFF AND DUP2 JUMP JUMPDEST PUSH1 0x0 DUP1 PUSH1 0x0 DUP1 CALLER SWAP1 POP PUSH1 0x0 TIMESTAMP SWAP1 POP PUSH1 0x0 NUMBER SWAP1 POP DUP3 DUP3 DUP3 SWAP6 POP SWAP6 POP SWAP6 POP POP POP POP SWAP1 SWAP2 SWAP3 JUMP JUMPDEST PUSH1 0x0 PUSH1 0x7B SWAP1 POP PUSH1 0x0 PUSH2 0x1C8 DUP3 PUSH2 0x151 SWAP2 SWAP1 PUSH2 0x279 JUMP JUMPDEST SWAP2 POP PUSH1 0x1 SWAP1 POP PUSH1 0x7B PUSH1 0x0 DUP2 SWAP1 SSTORE POP PUSH1 0x1 DUP1 PUSH1 0x0 PUSH2 0x100 EXP DUP2 SLOAD DUP2 PUSH1 0xFF MUL NOT AND SWAP1 DUP4 ISZERO ISZERO MUL OR SWAP1 SSTORE POP PUSH1 0x1 DUP1 PUSH1 0x1 PUSH2 0x100 EXP DUP2 SLOAD DUP2 PUSH20 0xFFFFFFFFFFFFFFFFFFFFFFFFFFFFFFFFFFFFFFFF MUL NOT AND SWAP1 DUP4 PUSH20 0xFFFFFFFFFFFFFFFFFFFFFFFFFFFFFFFFFFFFFFFF AND MUL OR SWAP1 SSTORE POP POP POP JUMP JUMPDEST PUSH1 0x0 SLOAD DUP2 JUMP JUMPDEST PUSH2 0x1CD DUP2 PUSH2 0x2CF JUMP JUMPDEST DUP3 MSTORE POP POP JUMP JUMPDEST PUSH2 0x1DC DUP2 PUSH2 0x2E1 JUMP JUMPDEST DUP3 MSTORE POP POP JUMP JUMPDEST PUSH2 0x1EB DUP2 PUSH2 0x30D JUMP JUMPDEST DUP3 MSTORE POP POP JUMP JUMPDEST PUSH1 0x0 PUSH1 0x20 DUP3 ADD SWAP1 POP PUSH2 0x206 PUSH1 0x0 DUP4 ADD DUP5 PUSH2 0x1C4 JUMP JUMPDEST SWAP3 SWAP2 POP POP JUMP JUMPDEST PUSH1 0x0 PUSH1 0x60 DUP3 ADD SWAP1 POP PUSH2 0x221 PUSH1 0x0 DUP4 ADD DUP7 PUSH2 0x1C4 JUMP JUMPDEST PUSH2 0x22E PUSH1 0x20 DUP4 ADD DUP6 PUSH2 0x1E2 JUMP JUMPDEST PUSH2 0x23B PUSH1 0x40 DUP4 ADD DUP5 PUSH2 0x1E2 JUMP JUMPDEST SWAP5 SWAP4 POP POP POP POP JUMP JUMPDEST PUSH1 0x0 PUSH1 0x20 DUP3 ADD SWAP1 POP PUSH2 0x258 PUSH1 0x0 DUP4 ADD DUP5 PUSH2 0x1D3 JUMP JUMPDEST SWAP3 SWAP2 POP POP JUMP JUMPDEST PUSH1 0x0 PUSH1 0x20 DUP3 ADD SWAP1 POP PUSH2 0x273 PUSH1 0x0 DUP4 ADD DUP5 PUSH2 0x1E2 JUMP JUMPDEST SWAP3 SWAP2 POP POP JUMP JUMPDEST PUSH1 0x0 PUSH2 0x284 DUP3 PUSH2 0x30D JUMP JUMPDEST SWAP2 POP PUSH2 0x28F DUP4 PUSH2 0x30D JUMP JUMPDEST SWAP3 POP DUP3 PUSH32 0xFFFFFFFFFFFFFFFFFFFFFFFFFFFFFFFFFFFFFFFFFFFFFFFFFFFFFFFFFFFFFFFF SUB DUP3 GT ISZERO PUSH2 0x2C4 JUMPI PUSH2 0x2C3 PUSH2 0x317 JUMP JUMPDEST JUMPDEST DUP3 DUP3 ADD SWAP1 POP SWAP3 SWAP2 POP POP JUMP JUMPDEST PUSH1 0x0 PUSH2 0x2DA DUP3 PUSH2 0x2ED JUMP JUMPDEST SWAP1 POP SWAP2 SWAP1 POP JUMP JUMPDEST PUSH1 0x0 DUP2 ISZERO ISZERO SWAP1 POP SWAP2 SWAP1 POP JUMP JUMPDEST PUSH1 0x0 PUSH20 0xFFFFFFFFFFFFFFFFFFFFFFFFFFFFFFFFFFFFFFFF DUP3 AND SWAP1 POP SWAP2 SWAP1 POP JUMP JUMPDEST PUSH1 0x0 DUP2 SWAP1 POP SWAP2 SWAP1 POP JUMP JUMPDEST PUSH32 0x4E487B7100000000000000000000000000000000000000000000000000000000 PUSH1 0x0 MSTORE PUSH1 0x11 PUSH1 0x4 MSTORE PUSH1 0x24 PUSH1 0x0 REVERT INVALID LOG2 PUSH5 0x6970667358 0x22 SLT KECCAK256 0xA8 0xC4 0xF9 LOG0 CALLDATACOPY SIGNEXTEND 0xDF 0x5F PUSH15 0x81B97261C4FD09CE340D98FEDEFC2F 0x28 DUP16 DIFFICULTY JUMPI DUP6 0xD8 DUP2 DIV PUSH5 0x736F6C6343 STOP ADDMOD SMOD STOP CALLER "
				},
				"gasEstimates": {
					"creation": {
						"codeDepositCost": "178400",
						"executionCost": "220",
						"totalCost": "178620"
					},
					"external": {
						"b()": "2471",
						"foo()": "infinite",
						"globalVars()": "infinite",
						"i()": "2495",
						"myAddress()": "2539"
					}
				},
				"methodIdentifiers": {
					"b()": "4df7e3d0",
					"foo()": "c2985578",
					"globalVars()": "7e6230f3",
					"i()": "e5aa3d58",
					"myAddress()": "26b85ee1"
				}
			},
			"storageLayout": {
				"storage": [
					{
						"astId": 3,
						"contract": "Variables.sol:VariablesExp",
						"label": "i",
						"offset": 0,
						"slot": "0",
						"type": "t_uint256"
					},
					{
						"astId": 5,
						"contract": "Variables.sol:VariablesExp",
						"label": "b",
						"offset": 0,
						"slot": "1",
						"type": "t_bool"
					},
					{
						"astId": 7,
						"contract": "Variables.sol:VariablesExp",
						"label": "myAddress",
						"offset": 1,
						"slot": "1",
						"type": "t_address"
					}
				],
				"types": {
					"t_address": {
						"encoding": "inplace",
						"label": "address",
						"numberOfBytes": "20"
					},
					"t_bool": {
						"encoding": "inplace",
						"label": "bool",
						"numberOfBytes": "1"
					},
					"t_uint256": {
						"encoding": "inplace",
						"label": "uint256",
						"numberOfBytes": "32"
					}
				}
			},
			"userdoc": {
				"kind": "user",
				"methods": {},
				"version": 1
			}
		}
	}
}