{
	"Variables.sol": {
		"VariablesExp": {
			"abi": [
				{
					"inputs": [],
					"name": "b",
					"outputs": [
						{
							"internalType": "bool",
							"name": "",
							"type": "bool"
						}
					],
					"stateMutability": "view",
					"type": "function"
				},
				{
					"inputs": [],
					"name": "foo",
					"outputs": [],
					"stateMutability": "nonpayable",
					"type": "function"
				},
				{
					"inputs": [],
					"name": "globalVars",
					"outputs": [
						{
							"internalType": "address",
							"name": "",
							"type": "address"
						},
						{
							"internalType": "uint256",
							"name": "",
							"type": "uint256"
						},
						{
							"internalType": "uint256",
							"name": "",
							"type": "uint256"
						}
					],
					"stateMutability": "view",
					"type": "function"
				},
				{
					"inputs": [],
					"name": "i",
					"outputs": [
						{
							"internalType": "uint256",
							"name": "",
							"type": "uint256"
						}
					],
					"stateMutability": "view",
					"type": "function"
				},
				{
					"inputs": [],
					"name": "myAddress",
					"outputs": [
						{
							"internalType": "address",
							"name": "",
							"type": "address"
						}
					],
					"stateMutability": "view",
					"type": "function"
				}
			],
			"devdoc": {
				"kind": "dev",
				"methods": {},
				"version": 1
			},
			"evm": {
				"assembly": "    /* \"Variables.sol\":61:1614  contract VariablesExp {... */\n  mstore(0x40, 0x80)\n  callvalue\n  dup1\n  iszero\n  tag_1\n  jumpi\n  0x00\n  dup1\n  revert\ntag_1:\n  pop\n  dataSize(sub_0)\n  dup1\n  dataOffset(sub_0)\n  0x00\n  codecopy\n  0x00\n  return\nstop\n\nsub_0: assembly {\n        /* \"Variables.sol\":61:1614  contract VariablesExp {... */\n      mstore(0x40, 0x80)\n      callvalue\n      dup1\n      iszero\n      tag_1\n      jumpi\n      0x00\n      dup1\n      revert\n    tag_1:\n      pop\n      jumpi(tag_2, lt(calldatasize, 0x04))\n      shr(0xe0, calldataload(0x00))\n      dup1\n      0x26b85ee1\n      eq\n      tag_3\n      jumpi\n      dup1\n      0x4df7e3d0\n      eq\n      tag_4\n      jumpi\n      dup1\n      0x7e6230f3\n      eq\n      tag_5\n      jumpi\n      dup1\n      0xc2985578\n      eq\n      tag_6\n      jumpi\n      dup1\n      0xe5aa3d58\n      eq\n      tag_7\n      jumpi\n    tag_2:\n      0x00\n      dup1\n      revert\n        /* \"Variables.sol\":206:230  address public myAddress */\n    tag_3:\n      tag_8\n      tag_9\n      jump\t// in\n    tag_8:\n      mload(0x40)\n      tag_10\n      swap2\n      swap1\n      tag_11\n      jump\t// in\n    tag_10:\n      mload(0x40)\n      dup1\n      swap2\n      sub\n      swap1\n      return\n        /* \"Variables.sol\":148:161  bool public b */\n    tag_4:\n      tag_12\n      tag_13\n      jump\t// in\n    tag_12:\n      mload(0x40)\n      tag_14\n      swap2\n      swap1\n      tag_15\n      jump\t// in\n    tag_14:\n      mload(0x40)\n      dup1\n      swap2\n      sub\n      swap1\n      return\n        /* \"Variables.sol\":560:1611  function globalVars() external view returns (address, uint, uint) {... */\n    tag_5:\n      tag_16\n      tag_17\n      jump\t// in\n    tag_16:\n      mload(0x40)\n      tag_18\n      swap4\n      swap3\n      swap2\n      swap1\n      tag_19\n      jump\t// in\n    tag_18:\n      mload(0x40)\n      dup1\n      swap2\n      sub\n      swap1\n      return\n        /* \"Variables.sol\":268:548  function foo() external {... */\n    tag_6:\n      tag_20\n      tag_21\n      jump\t// in\n    tag_20:\n      stop\n        /* \"Variables.sol\":90:103  uint public i */\n    tag_7:\n      tag_22\n      tag_23\n      jump\t// in\n    tag_22:\n      mload(0x40)\n      tag_24\n      swap2\n      swap1\n      tag_25\n      jump\t// in\n    tag_24:\n      mload(0x40)\n      dup1\n      swap2\n      sub\n      swap1\n      return\n        /* \"Variables.sol\":206:230  address public myAddress */\n    tag_9:\n      0x01\n      dup1\n      sload\n      swap1\n      0x0100\n      exp\n      swap1\n      div\n      0xffffffffffffffffffffffffffffffffffffffff\n      and\n      dup2\n      jump\t// out\n        /* \"Variables.sol\":148:161  bool public b */\n    tag_13:\n      0x01\n      0x00\n      swap1\n      sload\n      swap1\n      0x0100\n      exp\n      swap1\n      div\n      0xff\n      and\n      dup2\n      jump\t// out\n        /* \"Variables.sol\":560:1611  function globalVars() external view returns (address, uint, uint) {... */\n    tag_17:\n        /* \"Variables.sol\":605:612  address */\n      0x00\n        /* \"Variables.sol\":614:618  uint */\n      dup1\n        /* \"Variables.sol\":620:624  uint */\n      0x00\n        /* \"Variables.sol\":713:727  address sender */\n      dup1\n        /* \"Variables.sol\":730:740  msg.sender */\n      caller\n        /* \"Variables.sol\":713:740  address sender = msg.sender */\n      swap1\n      pop\n        /* \"Variables.sol\":794:808  uint timeStamp */\n      0x00\n        /* \"Variables.sol\":811:826  block.timestamp */\n      timestamp\n        /* \"Variables.sol\":794:826  uint timeStamp = block.timestamp */\n      swap1\n      pop\n        /* \"Variables.sol\":887:900  uint blockNum */\n      0x00\n        /* \"Variables.sol\":903:915  block.number */\n      number\n        /* \"Variables.sol\":887:915  uint blockNum = block.number */\n      swap1\n      pop\n        /* \"Variables.sol\":987:993  sender */\n      dup3\n        /* \"Variables.sol\":995:1004  timeStamp */\n      dup3\n        /* \"Variables.sol\":1006:1014  blockNum */\n      dup3\n        /* \"Variables.sol\":979:1015  return (sender, timeStamp, blockNum) */\n      swap6\n      pop\n      swap6\n      pop\n      swap6\n      pop\n      pop\n      pop\n      pop\n        /* \"Variables.sol\":560:1611  function globalVars() external view returns (address, uint, uint) {... */\n      swap1\n      swap2\n      swap3\n      jump\t// out\n        /* \"Variables.sol\":268:548  function foo() external {... */\n    tag_21:\n        /* \"Variables.sol\":303:309  uint x */\n      0x00\n        /* \"Variables.sol\":312:315  123 */\n      0x7b\n        /* \"Variables.sol\":303:315  uint x = 123 */\n      swap1\n      pop\n        /* \"Variables.sol\":361:367  bool f */\n      0x00\n        /* \"Variables.sol\":446:449  456 */\n      0x01c8\n        /* \"Variables.sol\":441:449  x += 456 */\n      dup3\n      tag_28\n      swap2\n      swap1\n      tag_29\n      jump\t// in\n    tag_28:\n      swap2\n      pop\n        /* \"Variables.sol\":464:468  true */\n      0x01\n        /* \"Variables.sol\":460:468  f = true */\n      swap1\n      pop\n        /* \"Variables.sol\":485:488  123 */\n      0x7b\n        /* \"Variables.sol\":481:482  i */\n      0x00\n        /* \"Variables.sol\":481:488  i = 123 */\n      dup2\n      swap1\n      sstore\n      pop\n        /* \"Variables.sol\":503:507  true */\n      0x01\n        /* \"Variables.sol\":499:500  b */\n      dup1\n      0x00\n        /* \"Variables.sol\":499:507  b = true */\n      0x0100\n      exp\n      dup2\n      sload\n      dup2\n      0xff\n      mul\n      not\n      and\n      swap1\n      dup4\n      iszero\n      iszero\n      mul\n      or\n      swap1\n      sstore\n      pop\n        /* \"Variables.sol\":538:539  1 */\n      0x01\n        /* \"Variables.sol\":518:527  myAddress */\n      dup1\n      0x01\n        /* \"Variables.sol\":518:540  myAddress = address(1) */\n      0x0100\n      exp\n      dup2\n      sload\n      dup2\n      0xffffffffffffffffffffffffffffffffffffffff\n      mul\n      not\n      and\n      swap1\n      dup4\n      0xffffffffffffffffffffffffffffffffffffffff\n      and\n      mul\n      or\n      swap1\n      sstore\n      pop\n        /* \"Variables.sol\":292:548  {... */\n      pop\n      pop\n        /* \"Variables.sol\":268:548  function foo() external {... */\n      jump\t// out\n        /* \"Variables.sol\":90:103  uint public i */\n    tag_23:\n      sload(0x00)\n      dup2\n      jump\t// out\n        /* \"#utility.yul\":7:133   */\n    tag_30:\n        /* \"#utility.yul\":44:51   */\n      0x00\n        /* \"#utility.yul\":84:126   */\n      0xffffffffffffffffffffffffffffffffffffffff\n        /* \"#utility.yul\":77:82   */\n      dup3\n        /* \"#utility.yul\":73:127   */\n      and\n        /* \"#utility.yul\":62:127   */\n      swap1\n      pop\n        /* \"#utility.yul\":7:133   */\n      swap2\n      swap1\n      pop\n      jump\t// out\n        /* \"#utility.yul\":139:235   */\n    tag_31:\n        /* \"#utility.yul\":176:183   */\n      0x00\n        /* \"#utility.yul\":205:229   */\n      tag_41\n        /* \"#utility.yul\":223:228   */\n      dup3\n        /* \"#utility.yul\":205:229   */\n      tag_30\n      jump\t// in\n    tag_41:\n        /* \"#utility.yul\":194:229   */\n      swap1\n      pop\n        /* \"#utility.yul\":139:235   */\n      swap2\n      swap1\n      pop\n      jump\t// out\n        /* \"#utility.yul\":241:359   */\n    tag_32:\n        /* \"#utility.yul\":328:352   */\n      tag_43\n        /* \"#utility.yul\":346:351   */\n      dup2\n        /* \"#utility.yul\":328:352   */\n      tag_31\n      jump\t// in\n    tag_43:\n        /* \"#utility.yul\":323:326   */\n      dup3\n        /* \"#utility.yul\":316:353   */\n      mstore\n        /* \"#utility.yul\":241:359   */\n      pop\n      pop\n      jump\t// out\n        /* \"#utility.yul\":365:587   */\n    tag_11:\n        /* \"#utility.yul\":458:462   */\n      0x00\n        /* \"#utility.yul\":496:498   */\n      0x20\n        /* \"#utility.yul\":485:494   */\n      dup3\n        /* \"#utility.yul\":481:499   */\n      add\n        /* \"#utility.yul\":473:499   */\n      swap1\n      pop\n        /* \"#utility.yul\":509:580   */\n      tag_45\n        /* \"#utility.yul\":577:578   */\n      0x00\n        /* \"#utility.yul\":566:575   */\n      dup4\n        /* \"#utility.yul\":562:579   */\n      add\n        /* \"#utility.yul\":553:559   */\n      dup5\n        /* \"#utility.yul\":509:580   */\n      tag_32\n      jump\t// in\n    tag_45:\n        /* \"#utility.yul\":365:587   */\n      swap3\n      swap2\n      pop\n      pop\n      jump\t// out\n        /* \"#utility.yul\":593:683   */\n    tag_33:\n        /* \"#utility.yul\":627:634   */\n      0x00\n        /* \"#utility.yul\":670:675   */\n      dup2\n        /* \"#utility.yul\":663:676   */\n      iszero\n        /* \"#utility.yul\":656:677   */\n      iszero\n        /* \"#utility.yul\":645:677   */\n      swap1\n      pop\n        /* \"#utility.yul\":593:683   */\n      swap2\n      swap1\n      pop\n      jump\t// out\n        /* \"#utility.yul\":689:798   */\n    tag_34:\n        /* \"#utility.yul\":770:791   */\n      tag_48\n        /* \"#utility.yul\":785:790   */\n      dup2\n        /* \"#utility.yul\":770:791   */\n      tag_33\n      jump\t// in\n    tag_48:\n        /* \"#utility.yul\":765:768   */\n      dup3\n        /* \"#utility.yul\":758:792   */\n      mstore\n        /* \"#utility.yul\":689:798   */\n      pop\n      pop\n      jump\t// out\n        /* \"#utility.yul\":804:1014   */\n    tag_15:\n        /* \"#utility.yul\":891:895   */\n      0x00\n        /* \"#utility.yul\":929:931   */\n      0x20\n        /* \"#utility.yul\":918:927   */\n      dup3\n        /* \"#utility.yul\":914:932   */\n      add\n        /* \"#utility.yul\":906:932   */\n      swap1\n      pop\n        /* \"#utility.yul\":942:1007   */\n      tag_50\n        /* \"#utility.yul\":1004:1005   */\n      0x00\n        /* \"#utility.yul\":993:1002   */\n      dup4\n        /* \"#utility.yul\":989:1006   */\n      add\n        /* \"#utility.yul\":980:986   */\n      dup5\n        /* \"#utility.yul\":942:1007   */\n      tag_34\n      jump\t// in\n    tag_50:\n        /* \"#utility.yul\":804:1014   */\n      swap3\n      swap2\n      pop\n      pop\n      jump\t// out\n        /* \"#utility.yul\":1020:1097   */\n    tag_35:\n        /* \"#utility.yul\":1057:1064   */\n      0x00\n        /* \"#utility.yul\":1086:1091   */\n      dup2\n        /* \"#utility.yul\":1075:1091   */\n      swap1\n      pop\n        /* \"#utility.yul\":1020:1097   */\n      swap2\n      swap1\n      pop\n      jump\t// out\n        /* \"#utility.yul\":1103:1221   */\n    tag_36:\n        /* \"#utility.yul\":1190:1214   */\n      tag_53\n        /* \"#utility.yul\":1208:1213   */\n      dup2\n        /* \"#utility.yul\":1190:1214   */\n      tag_35\n      jump\t// in\n    tag_53:\n        /* \"#utility.yul\":1185:1188   */\n      dup3\n        /* \"#utility.yul\":1178:1215   */\n      mstore\n        /* \"#utility.yul\":1103:1221   */\n      pop\n      pop\n      jump\t// out\n        /* \"#utility.yul\":1227:1669   */\n    tag_19:\n        /* \"#utility.yul\":1376:1380   */\n      0x00\n        /* \"#utility.yul\":1414:1416   */\n      0x60\n        /* \"#utility.yul\":1403:1412   */\n      dup3\n        /* \"#utility.yul\":1399:1417   */\n      add\n        /* \"#utility.yul\":1391:1417   */\n      swap1\n      pop\n        /* \"#utility.yul\":1427:1498   */\n      tag_55\n        /* \"#utility.yul\":1495:1496   */\n      0x00\n        /* \"#utility.yul\":1484:1493   */\n      dup4\n        /* \"#utility.yul\":1480:1497   */\n      add\n        /* \"#utility.yul\":1471:1477   */\n      dup7\n        /* \"#utility.yul\":1427:1498   */\n      tag_32\n      jump\t// in\n    tag_55:\n        /* \"#utility.yul\":1508:1580   */\n      tag_56\n        /* \"#utility.yul\":1576:1578   */\n      0x20\n        /* \"#utility.yul\":1565:1574   */\n      dup4\n        /* \"#utility.yul\":1561:1579   */\n      add\n        /* \"#utility.yul\":1552:1558   */\n      dup6\n        /* \"#utility.yul\":1508:1580   */\n      tag_36\n      jump\t// in\n    tag_56:\n        /* \"#utility.yul\":1590:1662   */\n      tag_57\n        /* \"#utility.yul\":1658:1660   */\n      0x40\n        /* \"#utility.yul\":1647:1656   */\n      dup4\n        /* \"#utility.yul\":1643:1661   */\n      add\n        /* \"#utility.yul\":1634:1640   */\n      dup5\n        /* \"#utility.yul\":1590:1662   */\n      tag_36\n      jump\t// in\n    tag_57:\n        /* \"#utility.yul\":1227:1669   */\n      swap5\n      swap4\n      pop\n      pop\n      pop\n      pop\n      jump\t// out\n        /* \"#utility.yul\":1675:1897   */\n    tag_25:\n        /* \"#utility.yul\":1768:1772   */\n      0x00\n        /* \"#utility.yul\":1806:1808   */\n      0x20\n        /* \"#utility.yul\":1795:1804   */\n      dup3\n        /* \"#utility.yul\":1791:1809   */\n      add\n        /* \"#utility.yul\":1783:1809   */\n      swap1\n      pop\n        /* \"#utility.yul\":1819:1890   */\n      tag_59\n        /* \"#utility.yul\":1887:1888   */\n      0x00\n        /* \"#utility.yul\":1876:1885   */\n      dup4\n        /* \"#utility.yul\":1872:1889   */\n      add\n        /* \"#utility.yul\":1863:1869   */\n      dup5\n        /* \"#utility.yul\":1819:1890   */\n      tag_36\n      jump\t// in\n    tag_59:\n        /* \"#utility.yul\":1675:1897   */\n      swap3\n      swap2\n      pop\n      pop\n      jump\t// out\n        /* \"#utility.yul\":1903:2083   */\n    tag_37:\n        /* \"#utility.yul\":1951:2028   */\n      0x4e487b7100000000000000000000000000000000000000000000000000000000\n        /* \"#utility.yul\":1948:1949   */\n      0x00\n        /* \"#utility.yul\":1941:2029   */\n      mstore\n        /* \"#utility.yul\":2048:2052   */\n      0x11\n        /* \"#utility.yul\":2045:2046   */\n      0x04\n        /* \"#utility.yul\":2038:2053   */\n      mstore\n        /* \"#utility.yul\":2072:2076   */\n      0x24\n        /* \"#utility.yul\":2069:2070   */\n      0x00\n        /* \"#utility.yul\":2062:2077   */\n      revert\n        /* \"#utility.yul\":2089:2394   */\n    tag_29:\n        /* \"#utility.yul\":2129:2132   */\n      0x00\n        /* \"#utility.yul\":2148:2168   */\n      tag_62\n        /* \"#utility.yul\":2166:2167   */\n      dup3\n        /* \"#utility.yul\":2148:2168   */\n      tag_35\n      jump\t// in\n    tag_62:\n        /* \"#utility.yul\":2143:2168   */\n      swap2\n      pop\n        /* \"#utility.yul\":2182:2202   */\n      tag_63\n        /* \"#utility.yul\":2200:2201   */\n      dup4\n        /* \"#utility.yul\":2182:2202   */\n      tag_35\n      jump\t// in\n    tag_63:\n        /* \"#utility.yul\":2177:2202   */\n      swap3\n      pop\n        /* \"#utility.yul\":2336:2337   */\n      dup3\n        /* \"#utility.yul\":2268:2334   */\n      0xffffffffffffffffffffffffffffffffffffffffffffffffffffffffffffffff\n        /* \"#utility.yul\":2264:2338   */\n      sub\n        /* \"#utility.yul\":2261:2262   */\n      dup3\n        /* \"#utility.yul\":2258:2339   */\n      gt\n        /* \"#utility.yul\":2255:2362   */\n      iszero\n      tag_64\n      jumpi\n        /* \"#utility.yul\":2342:2360   */\n      tag_65\n      tag_37\n      jump\t// in\n    tag_65:\n        /* \"#utility.yul\":2255:2362   */\n    tag_64:\n        /* \"#utility.yul\":2386:2387   */\n      dup3\n        /* \"#utility.yul\":2383:2384   */\n      dup3\n        /* \"#utility.yul\":2379:2388   */\n      add\n        /* \"#utility.yul\":2372:2388   */\n      swap1\n      pop\n        /* \"#utility.yul\":2089:2394   */\n      swap3\n      swap2\n      pop\n      pop\n      jump\t// out\n\n    auxdata: 0xa26469706673582212208e189a61d4b68578f1e6a12cadbcdc3e47cb9d1ee7314e9cbdc80fd646227b4964736f6c634300080f0033\n}\n",
				"bytecode": {
					"linkReferences": {},
					"object": "608060405234801561001057600080fd5b5061037c806100206000396000f3fe608060405234801561001057600080fd5b50600436106100575760003560e01c806326b85ee11461005c5780634df7e3d01461007a5780637e6230f314610098578063c2985578146100b8578063e5aa3d58146100c2575b600080fd5b6100646100e0565b6040516100719190610205565b60405180910390f35b610082610104565b60405161008f919061023b565b60405180910390f35b6100a0610117565b6040516100af9392919061026f565b60405180910390f35b6100c061013b565b005b6100ca6101be565b6040516100d791906102a6565b60405180910390f35b60018054906101000a900473ffffffffffffffffffffffffffffffffffffffff1681565b600160009054906101000a900460ff1681565b60008060008033905060004290506000439050828282955095509550505050909192565b6000607b905060006101c88261015191906102f0565b915060019050607b60008190555060018060006101000a81548160ff02191690831515021790555060018060016101000a81548173ffffffffffffffffffffffffffffffffffffffff021916908373ffffffffffffffffffffffffffffffffffffffff1602179055505050565b60005481565b600073ffffffffffffffffffffffffffffffffffffffff82169050919050565b60006101ef826101c4565b9050919050565b6101ff816101e4565b82525050565b600060208201905061021a60008301846101f6565b92915050565b60008115159050919050565b61023581610220565b82525050565b6000602082019050610250600083018461022c565b92915050565b6000819050919050565b61026981610256565b82525050565b600060608201905061028460008301866101f6565b6102916020830185610260565b61029e6040830184610260565b949350505050565b60006020820190506102bb6000830184610260565b92915050565b7f4e487b7100000000000000000000000000000000000000000000000000000000600052601160045260246000fd5b60006102fb82610256565b915061030683610256565b9250827fffffffffffffffffffffffffffffffffffffffffffffffffffffffffffffffff0382111561033b5761033a6102c1565b5b82820190509291505056fea26469706673582212208e189a61d4b68578f1e6a12cadbcdc3e47cb9d1ee7314e9cbdc80fd646227b4964736f6c634300080f0033",
					"opcodes": "PUSH1 0x80 PUSH1 0x40 MSTORE CALLVALUE DUP1 ISZERO PUSH2 0x10 JUMPI PUSH1 0x0 DUP1 REVERT JUMPDEST POP PUSH2 0x37C DUP1 PUSH2 0x20 PUSH1 0x0 CODECOPY PUSH1 0x0 RETURN INVALID PUSH1 0x80 PUSH1 0x40 MSTORE CALLVALUE DUP1 ISZERO PUSH2 0x10 JUMPI PUSH1 0x0 DUP1 REVERT JUMPDEST POP PUSH1 0x4 CALLDATASIZE LT PUSH2 0x57 JUMPI PUSH1 0x0 CALLDATALOAD PUSH1 0xE0 SHR DUP1 PUSH4 0x26B85EE1 EQ PUSH2 0x5C JUMPI DUP1 PUSH4 0x4DF7E3D0 EQ PUSH2 0x7A JUMPI DUP1 PUSH4 0x7E6230F3 EQ PUSH2 0x98 JUMPI DUP1 PUSH4 0xC2985578 EQ PUSH2 0xB8 JUMPI DUP1 PUSH4 0xE5AA3D58 EQ PUSH2 0xC2 JUMPI JUMPDEST PUSH1 0x0 DUP1 REVERT JUMPDEST PUSH2 0x64 PUSH2 0xE0 JUMP JUMPDEST PUSH1 0x40 MLOAD PUSH2 0x71 SWAP2 SWAP1 PUSH2 0x205 JUMP JUMPDEST PUSH1 0x40 MLOAD DUP1 SWAP2 SUB SWAP1 RETURN JUMPDEST PUSH2 0x82 PUSH2 0x104 JUMP JUMPDEST PUSH1 0x40 MLOAD PUSH2 0x8F SWAP2 SWAP1 PUSH2 0x23B JUMP JUMPDEST PUSH1 0x40 MLOAD DUP1 SWAP2 SUB SWAP1 RETURN JUMPDEST PUSH2 0xA0 PUSH2 0x117 JUMP JUMPDEST PUSH1 0x40 MLOAD PUSH2 0xAF SWAP4 SWAP3 SWAP2 SWAP1 PUSH2 0x26F JUMP JUMPDEST PUSH1 0x40 MLOAD DUP1 SWAP2 SUB SWAP1 RETURN JUMPDEST PUSH2 0xC0 PUSH2 0x13B JUMP JUMPDEST STOP JUMPDEST PUSH2 0xCA PUSH2 0x1BE JUMP JUMPDEST PUSH1 0x40 MLOAD PUSH2 0xD7 SWAP2 SWAP1 PUSH2 0x2A6 JUMP JUMPDEST PUSH1 0x40 MLOAD DUP1 SWAP2 SUB SWAP1 RETURN JUMPDEST PUSH1 0x1 DUP1 SLOAD SWAP1 PUSH2 0x100 EXP SWAP1 DIV PUSH20 0xFFFFFFFFFFFFFFFFFFFFFFFFFFFFFFFFFFFFFFFF AND DUP2 JUMP JUMPDEST PUSH1 0x1 PUSH1 0x0 SWAP1 SLOAD SWAP1 PUSH2 0x100 EXP SWAP1 DIV PUSH1 0xFF AND DUP2 JUMP JUMPDEST PUSH1 0x0 DUP1 PUSH1 0x0 DUP1 CALLER SWAP1 POP PUSH1 0x0 TIMESTAMP SWAP1 POP PUSH1 0x0 NUMBER SWAP1 POP DUP3 DUP3 DUP3 SWAP6 POP SWAP6 POP SWAP6 POP POP POP POP SWAP1 SWAP2 SWAP3 JUMP JUMPDEST PUSH1 0x0 PUSH1 0x7B SWAP1 POP PUSH1 0x0 PUSH2 0x1C8 DUP3 PUSH2 0x151 SWAP2 SWAP1 PUSH2 0x2F0 JUMP JUMPDEST SWAP2 POP PUSH1 0x1 SWAP1 POP PUSH1 0x7B PUSH1 0x0 DUP2 SWAP1 SSTORE POP PUSH1 0x1 DUP1 PUSH1 0x0 PUSH2 0x100 EXP DUP2 SLOAD DUP2 PUSH1 0xFF MUL NOT AND SWAP1 DUP4 ISZERO ISZERO MUL OR SWAP1 SSTORE POP PUSH1 0x1 DUP1 PUSH1 0x1 PUSH2 0x100 EXP DUP2 SLOAD DUP2 PUSH20 0xFFFFFFFFFFFFFFFFFFFFFFFFFFFFFFFFFFFFFFFF MUL NOT AND SWAP1 DUP4 PUSH20 0xFFFFFFFFFFFFFFFFFFFFFFFFFFFFFFFFFFFFFFFF AND MUL OR SWAP1 SSTORE POP POP POP JUMP JUMPDEST PUSH1 0x0 SLOAD DUP2 JUMP JUMPDEST PUSH1 0x0 PUSH20 0xFFFFFFFFFFFFFFFFFFFFFFFFFFFFFFFFFFFFFFFF DUP3 AND SWAP1 POP SWAP2 SWAP1 POP JUMP JUMPDEST PUSH1 0x0 PUSH2 0x1EF DUP3 PUSH2 0x1C4 JUMP JUMPDEST SWAP1 POP SWAP2 SWAP1 POP JUMP JUMPDEST PUSH2 0x1FF DUP2 PUSH2 0x1E4 JUMP JUMPDEST DUP3 MSTORE POP POP JUMP JUMPDEST PUSH1 0x0 PUSH1 0x20 DUP3 ADD SWAP1 POP PUSH2 0x21A PUSH1 0x0 DUP4 ADD DUP5 PUSH2 0x1F6 JUMP JUMPDEST SWAP3 SWAP2 POP POP JUMP JUMPDEST PUSH1 0x0 DUP2 ISZERO ISZERO SWAP1 POP SWAP2 SWAP1 POP JUMP JUMPDEST PUSH2 0x235 DUP2 PUSH2 0x220 JUMP JUMPDEST DUP3 MSTORE POP POP JUMP JUMPDEST PUSH1 0x0 PUSH1 0x20 DUP3 ADD SWAP1 POP PUSH2 0x250 PUSH1 0x0 DUP4 ADD DUP5 PUSH2 0x22C JUMP JUMPDEST SWAP3 SWAP2 POP POP JUMP JUMPDEST PUSH1 0x0 DUP2 SWAP1 POP SWAP2 SWAP1 POP JUMP JUMPDEST PUSH2 0x269 DUP2 PUSH2 0x256 JUMP JUMPDEST DUP3 MSTORE POP POP JUMP JUMPDEST PUSH1 0x0 PUSH1 0x60 DUP3 ADD SWAP1 POP PUSH2 0x284 PUSH1 0x0 DUP4 ADD DUP7 PUSH2 0x1F6 JUMP JUMPDEST PUSH2 0x291 PUSH1 0x20 DUP4 ADD DUP6 PUSH2 0x260 JUMP JUMPDEST PUSH2 0x29E PUSH1 0x40 DUP4 ADD DUP5 PUSH2 0x260 JUMP JUMPDEST SWAP5 SWAP4 POP POP POP POP JUMP JUMPDEST PUSH1 0x0 PUSH1 0x20 DUP3 ADD SWAP1 POP PUSH2 0x2BB PUSH1 0x0 DUP4 ADD DUP5 PUSH2 0x260 JUMP JUMPDEST SWAP3 SWAP2 POP POP JUMP JUMPDEST PUSH32 0x4E487B7100000000000000000000000000000000000000000000000000000000 PUSH1 0x0 MSTORE PUSH1 0x11 PUSH1 0x4 MSTORE PUSH1 0x24 PUSH1 0x0 REVERT JUMPDEST PUSH1 0x0 PUSH2 0x2FB DUP3 PUSH2 0x256 JUMP JUMPDEST SWAP2 POP PUSH2 0x306 DUP4 PUSH2 0x256 JUMP JUMPDEST SWAP3 POP DUP3 PUSH32 0xFFFFFFFFFFFFFFFFFFFFFFFFFFFFFFFFFFFFFFFFFFFFFFFFFFFFFFFFFFFFFFFF SUB DUP3 GT ISZERO PUSH2 0x33B JUMPI PUSH2 0x33A PUSH2 0x2C1 JUMP JUMPDEST JUMPDEST DUP3 DUP3 ADD SWAP1 POP SWAP3 SWAP2 POP POP JUMP INVALID LOG2 PUSH5 0x6970667358 0x22 SLT KECCAK256 DUP15 XOR SWAP11 PUSH2 0xD4B6 DUP6 PUSH25 0xF1E6A12CADBCDC3E47CB9D1EE7314E9CBDC80FD646227B4964 PUSH20 0x6F6C634300080F00330000000000000000000000 "
				},
				"gasEstimates": {
					"creation": {
						"codeDepositCost": "178400",
						"executionCost": "220",
						"totalCost": "178620"
					},
					"external": {
						"b()": "2471",
						"foo()": "infinite",
						"globalVars()": "infinite",
						"i()": "2495",
						"myAddress()": "2539"
					}
				},
				"methodIdentifiers": {
					"b()": "4df7e3d0",
					"foo()": "c2985578",
					"globalVars()": "7e6230f3",
					"i()": "e5aa3d58",
					"myAddress()": "26b85ee1"
				}
			},
			"storageLayout": {
				"storage": [
					{
						"astId": 3,
						"contract": "Variables.sol:VariablesExp",
						"label": "i",
						"offset": 0,
						"slot": "0",
						"type": "t_uint256"
					},
					{
						"astId": 5,
						"contract": "Variables.sol:VariablesExp",
						"label": "b",
						"offset": 0,
						"slot": "1",
						"type": "t_bool"
					},
					{
						"astId": 7,
						"contract": "Variables.sol:VariablesExp",
						"label": "myAddress",
						"offset": 1,
						"slot": "1",
						"type": "t_address"
					}
				],
				"types": {
					"t_address": {
						"encoding": "inplace",
						"label": "address",
						"numberOfBytes": "20"
					},
					"t_bool": {
						"encoding": "inplace",
						"label": "bool",
						"numberOfBytes": "1"
					},
					"t_uint256": {
						"encoding": "inplace",
						"label": "uint256",
						"numberOfBytes": "32"
					}
				}
			},
			"userdoc": {
				"kind": "user",
				"methods": {},
				"version": 1
			}
		}
	}
}