{
	"data": {
		"bytecode": {
			"linkReferences": {},
			"object": "6080604052607b60005534801561001557600080fd5b50610498806100256000396000f3fe608060405234801561001057600080fd5b50600436106100625760003560e01c806310c671d91461006757806320987767146100715780633d2d2c901461008d5780634e70b1dc14610097578063b8bd717f146100b5578063f18650d4146100d1575b600080fd5b61006f6100ed565b005b61008b60048036038101906100869190610248565b610102565b005b61009561018d565b005b61009f6101a8565b6040516100ac919061030a565b60405180910390f35b6100cf60048036038101906100ca9190610248565b6101ae565b005b6100eb60048036038101906100e69190610248565b6101f5565b005b607b60005414610100576100ff610396565b5b565b600a811115610146576040517f08c379a000000000000000000000000000000000000000000000000000000000815260040161013d906102ea565b60405180910390fd5b601481111561018a576040517f08c379a0000000000000000000000000000000000000000000000000000000008152600401610181906102ca565b60405180910390fd5b50565b600160008082825461019f9190610336565b92505081905550565b60005481565b600a8111156101f2576040517f08c379a00000000000000000000000000000000000000000000000000000000081526004016101e9906102ea565b60405180910390fd5b50565b600a811115610230576040517fdd6c951c00000000000000000000000000000000000000000000000000000000815260040160405180910390fd5b50565b6000813590506102428161044b565b92915050565b60006020828403121561025e5761025d6103f4565b5b600061026c84828501610233565b91505092915050565b6000610282601283610325565b915061028d826103f9565b602082019050919050565b60006102a5601283610325565b91506102b082610422565b602082019050919050565b6102c48161038c565b82525050565b600060208201905081810360008301526102e381610275565b9050919050565b6000602082019050818103600083015261030381610298565b9050919050565b600060208201905061031f60008301846102bb565b92915050565b600082825260208201905092915050565b60006103418261038c565b915061034c8361038c565b9250827fffffffffffffffffffffffffffffffffffffffffffffffffffffffffffffffff03821115610381576103806103c5565b5b828201905092915050565b6000819050919050565b7f4e487b7100000000000000000000000000000000000000000000000000000000600052600160045260246000fd5b7f4e487b7100000000000000000000000000000000000000000000000000000000600052601160045260246000fd5b600080fd5b7f5f782067726561746572207468616e2032300000000000000000000000000000600082015250565b7f5f782067726561746572207468616e2031300000000000000000000000000000600082015250565b6104548161038c565b811461045f57600080fd5b5056fea2646970667358221220856dea598f63ad28a175761969708d334a61bac0c9f243b2071666d02740773264736f6c63430008070033",
			"opcodes": "PUSH1 0x80 PUSH1 0x40 MSTORE PUSH1 0x7B PUSH1 0x0 SSTORE CALLVALUE DUP1 ISZERO PUSH2 0x15 JUMPI PUSH1 0x0 DUP1 REVERT JUMPDEST POP PUSH2 0x498 DUP1 PUSH2 0x25 PUSH1 0x0 CODECOPY PUSH1 0x0 RETURN INVALID PUSH1 0x80 PUSH1 0x40 MSTORE CALLVALUE DUP1 ISZERO PUSH2 0x10 JUMPI PUSH1 0x0 DUP1 REVERT JUMPDEST POP PUSH1 0x4 CALLDATASIZE LT PUSH2 0x62 JUMPI PUSH1 0x0 CALLDATALOAD PUSH1 0xE0 SHR DUP1 PUSH4 0x10C671D9 EQ PUSH2 0x67 JUMPI DUP1 PUSH4 0x20987767 EQ PUSH2 0x71 JUMPI DUP1 PUSH4 0x3D2D2C90 EQ PUSH2 0x8D JUMPI DUP1 PUSH4 0x4E70B1DC EQ PUSH2 0x97 JUMPI DUP1 PUSH4 0xB8BD717F EQ PUSH2 0xB5 JUMPI DUP1 PUSH4 0xF18650D4 EQ PUSH2 0xD1 JUMPI JUMPDEST PUSH1 0x0 DUP1 REVERT JUMPDEST PUSH2 0x6F PUSH2 0xED JUMP JUMPDEST STOP JUMPDEST PUSH2 0x8B PUSH1 0x4 DUP1 CALLDATASIZE SUB DUP2 ADD SWAP1 PUSH2 0x86 SWAP2 SWAP1 PUSH2 0x248 JUMP JUMPDEST PUSH2 0x102 JUMP JUMPDEST STOP JUMPDEST PUSH2 0x95 PUSH2 0x18D JUMP JUMPDEST STOP JUMPDEST PUSH2 0x9F PUSH2 0x1A8 JUMP JUMPDEST PUSH1 0x40 MLOAD PUSH2 0xAC SWAP2 SWAP1 PUSH2 0x30A JUMP JUMPDEST PUSH1 0x40 MLOAD DUP1 SWAP2 SUB SWAP1 RETURN JUMPDEST PUSH2 0xCF PUSH1 0x4 DUP1 CALLDATASIZE SUB DUP2 ADD SWAP1 PUSH2 0xCA SWAP2 SWAP1 PUSH2 0x248 JUMP JUMPDEST PUSH2 0x1AE JUMP JUMPDEST STOP JUMPDEST PUSH2 0xEB PUSH1 0x4 DUP1 CALLDATASIZE SUB DUP2 ADD SWAP1 PUSH2 0xE6 SWAP2 SWAP1 PUSH2 0x248 JUMP JUMPDEST PUSH2 0x1F5 JUMP JUMPDEST STOP JUMPDEST PUSH1 0x7B PUSH1 0x0 SLOAD EQ PUSH2 0x100 JUMPI PUSH2 0xFF PUSH2 0x396 JUMP JUMPDEST JUMPDEST JUMP JUMPDEST PUSH1 0xA DUP2 GT ISZERO PUSH2 0x146 JUMPI PUSH1 0x40 MLOAD PUSH32 0x8C379A000000000000000000000000000000000000000000000000000000000 DUP2 MSTORE PUSH1 0x4 ADD PUSH2 0x13D SWAP1 PUSH2 0x2EA JUMP JUMPDEST PUSH1 0x40 MLOAD DUP1 SWAP2 SUB SWAP1 REVERT JUMPDEST PUSH1 0x14 DUP2 GT ISZERO PUSH2 0x18A JUMPI PUSH1 0x40 MLOAD PUSH32 0x8C379A000000000000000000000000000000000000000000000000000000000 DUP2 MSTORE PUSH1 0x4 ADD PUSH2 0x181 SWAP1 PUSH2 0x2CA JUMP JUMPDEST PUSH1 0x40 MLOAD DUP1 SWAP2 SUB SWAP1 REVERT JUMPDEST POP JUMP JUMPDEST PUSH1 0x1 PUSH1 0x0 DUP1 DUP3 DUP3 SLOAD PUSH2 0x19F SWAP2 SWAP1 PUSH2 0x336 JUMP JUMPDEST SWAP3 POP POP DUP2 SWAP1 SSTORE POP JUMP JUMPDEST PUSH1 0x0 SLOAD DUP2 JUMP JUMPDEST PUSH1 0xA DUP2 GT ISZERO PUSH2 0x1F2 JUMPI PUSH1 0x40 MLOAD PUSH32 0x8C379A000000000000000000000000000000000000000000000000000000000 DUP2 MSTORE PUSH1 0x4 ADD PUSH2 0x1E9 SWAP1 PUSH2 0x2EA JUMP JUMPDEST PUSH1 0x40 MLOAD DUP1 SWAP2 SUB SWAP1 REVERT JUMPDEST POP JUMP JUMPDEST PUSH1 0xA DUP2 GT ISZERO PUSH2 0x230 JUMPI PUSH1 0x40 MLOAD PUSH32 0xDD6C951C00000000000000000000000000000000000000000000000000000000 DUP2 MSTORE PUSH1 0x4 ADD PUSH1 0x40 MLOAD DUP1 SWAP2 SUB SWAP1 REVERT JUMPDEST POP JUMP JUMPDEST PUSH1 0x0 DUP2 CALLDATALOAD SWAP1 POP PUSH2 0x242 DUP2 PUSH2 0x44B JUMP JUMPDEST SWAP3 SWAP2 POP POP JUMP JUMPDEST PUSH1 0x0 PUSH1 0x20 DUP3 DUP5 SUB SLT ISZERO PUSH2 0x25E JUMPI PUSH2 0x25D PUSH2 0x3F4 JUMP JUMPDEST JUMPDEST PUSH1 0x0 PUSH2 0x26C DUP5 DUP3 DUP6 ADD PUSH2 0x233 JUMP JUMPDEST SWAP2 POP POP SWAP3 SWAP2 POP POP JUMP JUMPDEST PUSH1 0x0 PUSH2 0x282 PUSH1 0x12 DUP4 PUSH2 0x325 JUMP JUMPDEST SWAP2 POP PUSH2 0x28D DUP3 PUSH2 0x3F9 JUMP JUMPDEST PUSH1 0x20 DUP3 ADD SWAP1 POP SWAP2 SWAP1 POP JUMP JUMPDEST PUSH1 0x0 PUSH2 0x2A5 PUSH1 0x12 DUP4 PUSH2 0x325 JUMP JUMPDEST SWAP2 POP PUSH2 0x2B0 DUP3 PUSH2 0x422 JUMP JUMPDEST PUSH1 0x20 DUP3 ADD SWAP1 POP SWAP2 SWAP1 POP JUMP JUMPDEST PUSH2 0x2C4 DUP2 PUSH2 0x38C JUMP JUMPDEST DUP3 MSTORE POP POP JUMP JUMPDEST PUSH1 0x0 PUSH1 0x20 DUP3 ADD SWAP1 POP DUP2 DUP2 SUB PUSH1 0x0 DUP4 ADD MSTORE PUSH2 0x2E3 DUP2 PUSH2 0x275 JUMP JUMPDEST SWAP1 POP SWAP2 SWAP1 POP JUMP JUMPDEST PUSH1 0x0 PUSH1 0x20 DUP3 ADD SWAP1 POP DUP2 DUP2 SUB PUSH1 0x0 DUP4 ADD MSTORE PUSH2 0x303 DUP2 PUSH2 0x298 JUMP JUMPDEST SWAP1 POP SWAP2 SWAP1 POP JUMP JUMPDEST PUSH1 0x0 PUSH1 0x20 DUP3 ADD SWAP1 POP PUSH2 0x31F PUSH1 0x0 DUP4 ADD DUP5 PUSH2 0x2BB JUMP JUMPDEST SWAP3 SWAP2 POP POP JUMP JUMPDEST PUSH1 0x0 DUP3 DUP3 MSTORE PUSH1 0x20 DUP3 ADD SWAP1 POP SWAP3 SWAP2 POP POP JUMP JUMPDEST PUSH1 0x0 PUSH2 0x341 DUP3 PUSH2 0x38C JUMP JUMPDEST SWAP2 POP PUSH2 0x34C DUP4 PUSH2 0x38C JUMP JUMPDEST SWAP3 POP DUP3 PUSH32 0xFFFFFFFFFFFFFFFFFFFFFFFFFFFFFFFFFFFFFFFFFFFFFFFFFFFFFFFFFFFFFFFF SUB DUP3 GT ISZERO PUSH2 0x381 JUMPI PUSH2 0x380 PUSH2 0x3C5 JUMP JUMPDEST JUMPDEST DUP3 DUP3 ADD SWAP1 POP SWAP3 SWAP2 POP POP JUMP JUMPDEST PUSH1 0x0 DUP2 SWAP1 POP SWAP2 SWAP1 POP JUMP JUMPDEST PUSH32 0x4E487B7100000000000000000000000000000000000000000000000000000000 PUSH1 0x0 MSTORE PUSH1 0x1 PUSH1 0x4 MSTORE PUSH1 0x24 PUSH1 0x0 REVERT JUMPDEST PUSH32 0x4E487B7100000000000000000000000000000000000000000000000000000000 PUSH1 0x0 MSTORE PUSH1 0x11 PUSH1 0x4 MSTORE PUSH1 0x24 PUSH1 0x0 REVERT JUMPDEST PUSH1 0x0 DUP1 REVERT JUMPDEST PUSH32 0x5F782067726561746572207468616E2032300000000000000000000000000000 PUSH1 0x0 DUP3 ADD MSTORE POP JUMP JUMPDEST PUSH32 0x5F782067726561746572207468616E2031300000000000000000000000000000 PUSH1 0x0 DUP3 ADD MSTORE POP JUMP JUMPDEST PUSH2 0x454 DUP2 PUSH2 0x38C JUMP JUMPDEST DUP2 EQ PUSH2 0x45F JUMPI PUSH1 0x0 DUP1 REVERT JUMPDEST POP JUMP INVALID LOG2 PUSH5 0x6970667358 0x22 SLT KECCAK256 DUP6 PUSH14 0xEA598F63AD28A175761969708D33 0x4A PUSH2 0xBAC0 0xC9 CALLCODE NUMBER 0xB2 SMOD AND PUSH7 0xD0274077326473 PUSH16 0x6C634300080700330000000000000000 "
		},
		"gasEstimates": {
			"creation": {
				"codeDepositCost": "235200",
				"executionCost": "22381",
				"totalCost": "257581"
			},
			"external": {
				"myError(uint256)": "553",
				"num()": "2473",
				"numFun()": "2274",
				"ornek()": "infinite",
				"testRequire(uint256)": "785",
				"testRevert(uint256)": "745"
			}
		},
		"methodIdentifiers": {
			"myError(uint256)": "f18650d4",
			"num()": "4e70b1dc",
			"numFun()": "10c671d9",
			"ornek()": "3d2d2c90",
			"testRequire(uint256)": "b8bd717f",
			"testRevert(uint256)": "20987767"
		}
	},
	"abi": [
		{
			"inputs": [],
			"name": "MyError",
			"type": "error"
		},
		{
			"inputs": [
				{
					"internalType": "uint256",
					"name": "_y",
					"type": "uint256"
				}
			],
			"name": "myError",
			"outputs": [],
			"stateMutability": "pure",
			"type": "function"
		},
		{
			"inputs": [],
			"name": "num",
			"outputs": [
				{
					"internalType": "uint256",
					"name": "",
					"type": "uint256"
				}
			],
			"stateMutability": "view",
			"type": "function"
		},
		{
			"inputs": [],
			"name": "numFun",
			"outputs": [],
			"stateMutability": "view",
			"type": "function"
		},
		{
			"inputs": [],
			"name": "ornek",
			"outputs": [],
			"stateMutability": "nonpayable",
			"type": "function"
		},
		{
			"inputs": [
				{
					"internalType": "uint256",
					"name": "_x",
					"type": "uint256"
				}
			],
			"name": "testRequire",
			"outputs": [],
			"stateMutability": "pure",
			"type": "function"
		},
		{
			"inputs": [
				{
					"internalType": "uint256",
					"name": "_x",
					"type": "uint256"
				}
			],
			"name": "testRevert",
			"outputs": [],
			"stateMutability": "pure",
			"type": "function"
		}
	]
}