{
	"lessons/DefaultValues.sol": {
		"DefaultValues": {
			"abi": [
				{
					"inputs": [],
					"name": "add",
					"outputs": [
						{
							"internalType": "address",
							"name": "",
							"type": "address"
						}
					],
					"stateMutability": "view",
					"type": "function"
				},
				{
					"inputs": [],
					"name": "b",
					"outputs": [
						{
							"internalType": "bool",
							"name": "",
							"type": "bool"
						}
					],
					"stateMutability": "view",
					"type": "function"
				},
				{
					"inputs": [],
					"name": "byt",
					"outputs": [
						{
							"internalType": "bytes",
							"name": "",
							"type": "bytes"
						}
					],
					"stateMutability": "view",
					"type": "function"
				},
				{
					"inputs": [],
					"name": "i",
					"outputs": [
						{
							"internalType": "int256",
							"name": "",
							"type": "int256"
						}
					],
					"stateMutability": "view",
					"type": "function"
				},
				{
					"inputs": [],
					"name": "ui",
					"outputs": [
						{
							"internalType": "uint256",
							"name": "",
							"type": "uint256"
						}
					],
					"stateMutability": "view",
					"type": "function"
				}
			],
			"devdoc": {
				"kind": "dev",
				"methods": {},
				"version": 1
			},
			"evm": {
				"assembly": "    /* \"lessons/DefaultValues.sol\":62:201  contract DefaultValues{\r... */\n  mstore(0x40, 0x80)\n  callvalue\n  dup1\n  iszero\n  tag_1\n  jumpi\n  0x00\n  dup1\n  revert\ntag_1:\n  pop\n  dataSize(sub_0)\n  dup1\n  dataOffset(sub_0)\n  0x00\n  codecopy\n  0x00\n  return\nstop\n\nsub_0: assembly {\n        /* \"lessons/DefaultValues.sol\":62:201  contract DefaultValues{\r... */\n      mstore(0x40, 0x80)\n      callvalue\n      dup1\n      iszero\n      tag_1\n      jumpi\n      0x00\n      dup1\n      revert\n    tag_1:\n      pop\n      jumpi(tag_2, lt(calldatasize, 0x04))\n      shr(0xe0, calldataload(0x00))\n      dup1\n      0x4df7e3d0\n      eq\n      tag_3\n      jumpi\n      dup1\n      0x4f2be91f\n      eq\n      tag_4\n      jumpi\n      dup1\n      0x81c9fb81\n      eq\n      tag_5\n      jumpi\n      dup1\n      0xa223e05d\n      eq\n      tag_6\n      jumpi\n      dup1\n      0xe5aa3d58\n      eq\n      tag_7\n      jumpi\n    tag_2:\n      0x00\n      dup1\n      revert\n        /* \"lessons/DefaultValues.sol\":91:104  bool public b */\n    tag_3:\n      tag_8\n      tag_9\n      jump\t// in\n    tag_8:\n      mload(0x40)\n      tag_10\n      swap2\n      swap1\n      tag_11\n      jump\t// in\n    tag_10:\n      mload(0x40)\n      dup1\n      swap2\n      sub\n      swap1\n      return\n        /* \"lessons/DefaultValues.sol\":151:169  address public add */\n    tag_4:\n      tag_12\n      tag_13\n      jump\t// in\n    tag_12:\n      mload(0x40)\n      tag_14\n      swap2\n      swap1\n      tag_15\n      jump\t// in\n    tag_14:\n      mload(0x40)\n      dup1\n      swap2\n      sub\n      swap1\n      return\n        /* \"lessons/DefaultValues.sol\":176:192  bytes public byt */\n    tag_5:\n      tag_16\n      tag_17\n      jump\t// in\n    tag_16:\n      mload(0x40)\n      tag_18\n      swap2\n      swap1\n      tag_19\n      jump\t// in\n    tag_18:\n      mload(0x40)\n      dup1\n      swap2\n      sub\n      swap1\n      return\n        /* \"lessons/DefaultValues.sol\":111:125  uint public ui */\n    tag_6:\n      tag_20\n      tag_21\n      jump\t// in\n    tag_20:\n      mload(0x40)\n      tag_22\n      swap2\n      swap1\n      tag_23\n      jump\t// in\n    tag_22:\n      mload(0x40)\n      dup1\n      swap2\n      sub\n      swap1\n      return\n        /* \"lessons/DefaultValues.sol\":132:144  int public i */\n    tag_7:\n      tag_24\n      tag_25\n      jump\t// in\n    tag_24:\n      mload(0x40)\n      tag_26\n      swap2\n      swap1\n      tag_27\n      jump\t// in\n    tag_26:\n      mload(0x40)\n      dup1\n      swap2\n      sub\n      swap1\n      return\n        /* \"lessons/DefaultValues.sol\":91:104  bool public b */\n    tag_9:\n      0x00\n      dup1\n      sload\n      swap1\n      0x0100\n      exp\n      swap1\n      div\n      0xff\n      and\n      dup2\n      jump\t// out\n        /* \"lessons/DefaultValues.sol\":151:169  address public add */\n    tag_13:\n      0x03\n      0x00\n      swap1\n      sload\n      swap1\n      0x0100\n      exp\n      swap1\n      div\n      0xffffffffffffffffffffffffffffffffffffffff\n      and\n      dup2\n      jump\t// out\n        /* \"lessons/DefaultValues.sol\":176:192  bytes public byt */\n    tag_17:\n      0x04\n      dup1\n      sload\n      tag_28\n      swap1\n      tag_29\n      jump\t// in\n    tag_28:\n      dup1\n      0x1f\n      add\n      0x20\n      dup1\n      swap2\n      div\n      mul\n      0x20\n      add\n      mload(0x40)\n      swap1\n      dup2\n      add\n      0x40\n      mstore\n      dup1\n      swap3\n      swap2\n      swap1\n      dup2\n      dup2\n      mstore\n      0x20\n      add\n      dup3\n      dup1\n      sload\n      tag_30\n      swap1\n      tag_29\n      jump\t// in\n    tag_30:\n      dup1\n      iszero\n      tag_31\n      jumpi\n      dup1\n      0x1f\n      lt\n      tag_32\n      jumpi\n      0x0100\n      dup1\n      dup4\n      sload\n      div\n      mul\n      dup4\n      mstore\n      swap2\n      0x20\n      add\n      swap2\n      jump(tag_31)\n    tag_32:\n      dup3\n      add\n      swap2\n      swap1\n      0x00\n      mstore\n      keccak256(0x00, 0x20)\n      swap1\n    tag_33:\n      dup2\n      sload\n      dup2\n      mstore\n      swap1\n      0x01\n      add\n      swap1\n      0x20\n      add\n      dup1\n      dup4\n      gt\n      tag_33\n      jumpi\n      dup3\n      swap1\n      sub\n      0x1f\n      and\n      dup3\n      add\n      swap2\n    tag_31:\n      pop\n      pop\n      pop\n      pop\n      pop\n      dup2\n      jump\t// out\n        /* \"lessons/DefaultValues.sol\":111:125  uint public ui */\n    tag_21:\n      sload(0x01)\n      dup2\n      jump\t// out\n        /* \"lessons/DefaultValues.sol\":132:144  int public i */\n    tag_25:\n      sload(0x02)\n      dup2\n      jump\t// out\n        /* \"#utility.yul\":7:125   */\n    tag_35:\n        /* \"#utility.yul\":94:118   */\n      tag_37\n        /* \"#utility.yul\":112:117   */\n      dup2\n        /* \"#utility.yul\":94:118   */\n      tag_38\n      jump\t// in\n    tag_37:\n        /* \"#utility.yul\":89:92   */\n      dup3\n        /* \"#utility.yul\":82:119   */\n      mstore\n        /* \"#utility.yul\":7:125   */\n      pop\n      pop\n      jump\t// out\n        /* \"#utility.yul\":131:240   */\n    tag_39:\n        /* \"#utility.yul\":212:233   */\n      tag_41\n        /* \"#utility.yul\":227:232   */\n      dup2\n        /* \"#utility.yul\":212:233   */\n      tag_42\n      jump\t// in\n    tag_41:\n        /* \"#utility.yul\":207:210   */\n      dup3\n        /* \"#utility.yul\":200:234   */\n      mstore\n        /* \"#utility.yul\":131:240   */\n      pop\n      pop\n      jump\t// out\n        /* \"#utility.yul\":246:606   */\n    tag_43:\n        /* \"#utility.yul\":332:335   */\n      0x00\n        /* \"#utility.yul\":360:398   */\n      tag_45\n        /* \"#utility.yul\":392:397   */\n      dup3\n        /* \"#utility.yul\":360:398   */\n      tag_46\n      jump\t// in\n    tag_45:\n        /* \"#utility.yul\":414:484   */\n      tag_47\n        /* \"#utility.yul\":477:483   */\n      dup2\n        /* \"#utility.yul\":472:475   */\n      dup6\n        /* \"#utility.yul\":414:484   */\n      tag_48\n      jump\t// in\n    tag_47:\n        /* \"#utility.yul\":407:484   */\n      swap4\n      pop\n        /* \"#utility.yul\":493:545   */\n      tag_49\n        /* \"#utility.yul\":538:544   */\n      dup2\n        /* \"#utility.yul\":533:536   */\n      dup6\n        /* \"#utility.yul\":526:530   */\n      0x20\n        /* \"#utility.yul\":519:524   */\n      dup7\n        /* \"#utility.yul\":515:531   */\n      add\n        /* \"#utility.yul\":493:545   */\n      tag_50\n      jump\t// in\n    tag_49:\n        /* \"#utility.yul\":570:599   */\n      tag_51\n        /* \"#utility.yul\":592:598   */\n      dup2\n        /* \"#utility.yul\":570:599   */\n      tag_52\n      jump\t// in\n    tag_51:\n        /* \"#utility.yul\":565:568   */\n      dup5\n        /* \"#utility.yul\":561:600   */\n      add\n        /* \"#utility.yul\":554:600   */\n      swap2\n      pop\n        /* \"#utility.yul\":336:606   */\n      pop\n        /* \"#utility.yul\":246:606   */\n      swap3\n      swap2\n      pop\n      pop\n      jump\t// out\n        /* \"#utility.yul\":612:727   */\n    tag_53:\n        /* \"#utility.yul\":697:720   */\n      tag_55\n        /* \"#utility.yul\":714:719   */\n      dup2\n        /* \"#utility.yul\":697:720   */\n      tag_56\n      jump\t// in\n    tag_55:\n        /* \"#utility.yul\":692:695   */\n      dup3\n        /* \"#utility.yul\":685:721   */\n      mstore\n        /* \"#utility.yul\":612:727   */\n      pop\n      pop\n      jump\t// out\n        /* \"#utility.yul\":733:851   */\n    tag_57:\n        /* \"#utility.yul\":820:844   */\n      tag_59\n        /* \"#utility.yul\":838:843   */\n      dup2\n        /* \"#utility.yul\":820:844   */\n      tag_60\n      jump\t// in\n    tag_59:\n        /* \"#utility.yul\":815:818   */\n      dup3\n        /* \"#utility.yul\":808:845   */\n      mstore\n        /* \"#utility.yul\":733:851   */\n      pop\n      pop\n      jump\t// out\n        /* \"#utility.yul\":857:1079   */\n    tag_15:\n        /* \"#utility.yul\":950:954   */\n      0x00\n        /* \"#utility.yul\":988:990   */\n      0x20\n        /* \"#utility.yul\":977:986   */\n      dup3\n        /* \"#utility.yul\":973:991   */\n      add\n        /* \"#utility.yul\":965:991   */\n      swap1\n      pop\n        /* \"#utility.yul\":1001:1072   */\n      tag_62\n        /* \"#utility.yul\":1069:1070   */\n      0x00\n        /* \"#utility.yul\":1058:1067   */\n      dup4\n        /* \"#utility.yul\":1054:1071   */\n      add\n        /* \"#utility.yul\":1045:1051   */\n      dup5\n        /* \"#utility.yul\":1001:1072   */\n      tag_35\n      jump\t// in\n    tag_62:\n        /* \"#utility.yul\":857:1079   */\n      swap3\n      swap2\n      pop\n      pop\n      jump\t// out\n        /* \"#utility.yul\":1085:1295   */\n    tag_11:\n        /* \"#utility.yul\":1172:1176   */\n      0x00\n        /* \"#utility.yul\":1210:1212   */\n      0x20\n        /* \"#utility.yul\":1199:1208   */\n      dup3\n        /* \"#utility.yul\":1195:1213   */\n      add\n        /* \"#utility.yul\":1187:1213   */\n      swap1\n      pop\n        /* \"#utility.yul\":1223:1288   */\n      tag_64\n        /* \"#utility.yul\":1285:1286   */\n      0x00\n        /* \"#utility.yul\":1274:1283   */\n      dup4\n        /* \"#utility.yul\":1270:1287   */\n      add\n        /* \"#utility.yul\":1261:1267   */\n      dup5\n        /* \"#utility.yul\":1223:1288   */\n      tag_39\n      jump\t// in\n    tag_64:\n        /* \"#utility.yul\":1085:1295   */\n      swap3\n      swap2\n      pop\n      pop\n      jump\t// out\n        /* \"#utility.yul\":1301:1610   */\n    tag_19:\n        /* \"#utility.yul\":1412:1416   */\n      0x00\n        /* \"#utility.yul\":1450:1452   */\n      0x20\n        /* \"#utility.yul\":1439:1448   */\n      dup3\n        /* \"#utility.yul\":1435:1453   */\n      add\n        /* \"#utility.yul\":1427:1453   */\n      swap1\n      pop\n        /* \"#utility.yul\":1499:1508   */\n      dup2\n        /* \"#utility.yul\":1493:1497   */\n      dup2\n        /* \"#utility.yul\":1489:1509   */\n      sub\n        /* \"#utility.yul\":1485:1486   */\n      0x00\n        /* \"#utility.yul\":1474:1483   */\n      dup4\n        /* \"#utility.yul\":1470:1487   */\n      add\n        /* \"#utility.yul\":1463:1510   */\n      mstore\n        /* \"#utility.yul\":1527:1603   */\n      tag_66\n        /* \"#utility.yul\":1598:1602   */\n      dup2\n        /* \"#utility.yul\":1589:1595   */\n      dup5\n        /* \"#utility.yul\":1527:1603   */\n      tag_43\n      jump\t// in\n    tag_66:\n        /* \"#utility.yul\":1519:1603   */\n      swap1\n      pop\n        /* \"#utility.yul\":1301:1610   */\n      swap3\n      swap2\n      pop\n      pop\n      jump\t// out\n        /* \"#utility.yul\":1616:1834   */\n    tag_27:\n        /* \"#utility.yul\":1707:1711   */\n      0x00\n        /* \"#utility.yul\":1745:1747   */\n      0x20\n        /* \"#utility.yul\":1734:1743   */\n      dup3\n        /* \"#utility.yul\":1730:1748   */\n      add\n        /* \"#utility.yul\":1722:1748   */\n      swap1\n      pop\n        /* \"#utility.yul\":1758:1827   */\n      tag_68\n        /* \"#utility.yul\":1824:1825   */\n      0x00\n        /* \"#utility.yul\":1813:1822   */\n      dup4\n        /* \"#utility.yul\":1809:1826   */\n      add\n        /* \"#utility.yul\":1800:1806   */\n      dup5\n        /* \"#utility.yul\":1758:1827   */\n      tag_53\n      jump\t// in\n    tag_68:\n        /* \"#utility.yul\":1616:1834   */\n      swap3\n      swap2\n      pop\n      pop\n      jump\t// out\n        /* \"#utility.yul\":1840:2062   */\n    tag_23:\n        /* \"#utility.yul\":1933:1937   */\n      0x00\n        /* \"#utility.yul\":1971:1973   */\n      0x20\n        /* \"#utility.yul\":1960:1969   */\n      dup3\n        /* \"#utility.yul\":1956:1974   */\n      add\n        /* \"#utility.yul\":1948:1974   */\n      swap1\n      pop\n        /* \"#utility.yul\":1984:2055   */\n      tag_70\n        /* \"#utility.yul\":2052:2053   */\n      0x00\n        /* \"#utility.yul\":2041:2050   */\n      dup4\n        /* \"#utility.yul\":2037:2054   */\n      add\n        /* \"#utility.yul\":2028:2034   */\n      dup5\n        /* \"#utility.yul\":1984:2055   */\n      tag_57\n      jump\t// in\n    tag_70:\n        /* \"#utility.yul\":1840:2062   */\n      swap3\n      swap2\n      pop\n      pop\n      jump\t// out\n        /* \"#utility.yul\":2068:2166   */\n    tag_46:\n        /* \"#utility.yul\":2119:2125   */\n      0x00\n        /* \"#utility.yul\":2153:2158   */\n      dup2\n        /* \"#utility.yul\":2147:2159   */\n      mload\n        /* \"#utility.yul\":2137:2159   */\n      swap1\n      pop\n        /* \"#utility.yul\":2068:2166   */\n      swap2\n      swap1\n      pop\n      jump\t// out\n        /* \"#utility.yul\":2172:2340   */\n    tag_48:\n        /* \"#utility.yul\":2255:2266   */\n      0x00\n        /* \"#utility.yul\":2289:2295   */\n      dup3\n        /* \"#utility.yul\":2284:2287   */\n      dup3\n        /* \"#utility.yul\":2277:2296   */\n      mstore\n        /* \"#utility.yul\":2329:2333   */\n      0x20\n        /* \"#utility.yul\":2324:2327   */\n      dup3\n        /* \"#utility.yul\":2320:2334   */\n      add\n        /* \"#utility.yul\":2305:2334   */\n      swap1\n      pop\n        /* \"#utility.yul\":2172:2340   */\n      swap3\n      swap2\n      pop\n      pop\n      jump\t// out\n        /* \"#utility.yul\":2346:2442   */\n    tag_38:\n        /* \"#utility.yul\":2383:2390   */\n      0x00\n        /* \"#utility.yul\":2412:2436   */\n      tag_74\n        /* \"#utility.yul\":2430:2435   */\n      dup3\n        /* \"#utility.yul\":2412:2436   */\n      tag_75\n      jump\t// in\n    tag_74:\n        /* \"#utility.yul\":2401:2436   */\n      swap1\n      pop\n        /* \"#utility.yul\":2346:2442   */\n      swap2\n      swap1\n      pop\n      jump\t// out\n        /* \"#utility.yul\":2448:2538   */\n    tag_42:\n        /* \"#utility.yul\":2482:2489   */\n      0x00\n        /* \"#utility.yul\":2525:2530   */\n      dup2\n        /* \"#utility.yul\":2518:2531   */\n      iszero\n        /* \"#utility.yul\":2511:2532   */\n      iszero\n        /* \"#utility.yul\":2500:2532   */\n      swap1\n      pop\n        /* \"#utility.yul\":2448:2538   */\n      swap2\n      swap1\n      pop\n      jump\t// out\n        /* \"#utility.yul\":2544:2620   */\n    tag_56:\n        /* \"#utility.yul\":2580:2587   */\n      0x00\n        /* \"#utility.yul\":2609:2614   */\n      dup2\n        /* \"#utility.yul\":2598:2614   */\n      swap1\n      pop\n        /* \"#utility.yul\":2544:2620   */\n      swap2\n      swap1\n      pop\n      jump\t// out\n        /* \"#utility.yul\":2626:2752   */\n    tag_75:\n        /* \"#utility.yul\":2663:2670   */\n      0x00\n        /* \"#utility.yul\":2703:2745   */\n      0xffffffffffffffffffffffffffffffffffffffff\n        /* \"#utility.yul\":2696:2701   */\n      dup3\n        /* \"#utility.yul\":2692:2746   */\n      and\n        /* \"#utility.yul\":2681:2746   */\n      swap1\n      pop\n        /* \"#utility.yul\":2626:2752   */\n      swap2\n      swap1\n      pop\n      jump\t// out\n        /* \"#utility.yul\":2758:2835   */\n    tag_60:\n        /* \"#utility.yul\":2795:2802   */\n      0x00\n        /* \"#utility.yul\":2824:2829   */\n      dup2\n        /* \"#utility.yul\":2813:2829   */\n      swap1\n      pop\n        /* \"#utility.yul\":2758:2835   */\n      swap2\n      swap1\n      pop\n      jump\t// out\n        /* \"#utility.yul\":2841:3148   */\n    tag_50:\n        /* \"#utility.yul\":2909:2910   */\n      0x00\n        /* \"#utility.yul\":2919:3032   */\n    tag_81:\n        /* \"#utility.yul\":2933:2939   */\n      dup4\n        /* \"#utility.yul\":2930:2931   */\n      dup2\n        /* \"#utility.yul\":2927:2940   */\n      lt\n        /* \"#utility.yul\":2919:3032   */\n      iszero\n      tag_83\n      jumpi\n        /* \"#utility.yul\":3018:3019   */\n      dup1\n        /* \"#utility.yul\":3013:3016   */\n      dup3\n        /* \"#utility.yul\":3009:3020   */\n      add\n        /* \"#utility.yul\":3003:3021   */\n      mload\n        /* \"#utility.yul\":2999:3000   */\n      dup2\n        /* \"#utility.yul\":2994:2997   */\n      dup5\n        /* \"#utility.yul\":2990:3001   */\n      add\n        /* \"#utility.yul\":2983:3022   */\n      mstore\n        /* \"#utility.yul\":2955:2957   */\n      0x20\n        /* \"#utility.yul\":2952:2953   */\n      dup2\n        /* \"#utility.yul\":2948:2958   */\n      add\n        /* \"#utility.yul\":2943:2958   */\n      swap1\n      pop\n        /* \"#utility.yul\":2919:3032   */\n      jump(tag_81)\n    tag_83:\n        /* \"#utility.yul\":3050:3056   */\n      dup4\n        /* \"#utility.yul\":3047:3048   */\n      dup2\n        /* \"#utility.yul\":3044:3057   */\n      gt\n        /* \"#utility.yul\":3041:3142   */\n      iszero\n      tag_84\n      jumpi\n        /* \"#utility.yul\":3130:3131   */\n      0x00\n        /* \"#utility.yul\":3121:3127   */\n      dup5\n        /* \"#utility.yul\":3116:3119   */\n      dup5\n        /* \"#utility.yul\":3112:3128   */\n      add\n        /* \"#utility.yul\":3105:3132   */\n      mstore\n        /* \"#utility.yul\":3041:3142   */\n    tag_84:\n        /* \"#utility.yul\":2890:3148   */\n      pop\n        /* \"#utility.yul\":2841:3148   */\n      pop\n      pop\n      pop\n      jump\t// out\n        /* \"#utility.yul\":3154:3474   */\n    tag_29:\n        /* \"#utility.yul\":3198:3204   */\n      0x00\n        /* \"#utility.yul\":3235:3236   */\n      0x02\n        /* \"#utility.yul\":3229:3233   */\n      dup3\n        /* \"#utility.yul\":3225:3237   */\n      div\n        /* \"#utility.yul\":3215:3237   */\n      swap1\n      pop\n        /* \"#utility.yul\":3282:3283   */\n      0x01\n        /* \"#utility.yul\":3276:3280   */\n      dup3\n        /* \"#utility.yul\":3272:3284   */\n      and\n        /* \"#utility.yul\":3303:3321   */\n      dup1\n        /* \"#utility.yul\":3293:3374   */\n      tag_86\n      jumpi\n        /* \"#utility.yul\":3359:3363   */\n      0x7f\n        /* \"#utility.yul\":3351:3357   */\n      dup3\n        /* \"#utility.yul\":3347:3364   */\n      and\n        /* \"#utility.yul\":3337:3364   */\n      swap2\n      pop\n        /* \"#utility.yul\":3293:3374   */\n    tag_86:\n        /* \"#utility.yul\":3421:3423   */\n      0x20\n        /* \"#utility.yul\":3413:3419   */\n      dup3\n        /* \"#utility.yul\":3410:3424   */\n      lt\n        /* \"#utility.yul\":3390:3408   */\n      dup2\n        /* \"#utility.yul\":3387:3425   */\n      eq\n        /* \"#utility.yul\":3384:3468   */\n      iszero\n      tag_87\n      jumpi\n        /* \"#utility.yul\":3440:3458   */\n      tag_88\n      tag_89\n      jump\t// in\n    tag_88:\n        /* \"#utility.yul\":3384:3468   */\n    tag_87:\n        /* \"#utility.yul\":3205:3474   */\n      pop\n        /* \"#utility.yul\":3154:3474   */\n      swap2\n      swap1\n      pop\n      jump\t// out\n        /* \"#utility.yul\":3480:3660   */\n    tag_89:\n        /* \"#utility.yul\":3528:3605   */\n      0x4e487b7100000000000000000000000000000000000000000000000000000000\n        /* \"#utility.yul\":3525:3526   */\n      0x00\n        /* \"#utility.yul\":3518:3606   */\n      mstore\n        /* \"#utility.yul\":3625:3629   */\n      0x22\n        /* \"#utility.yul\":3622:3623   */\n      0x04\n        /* \"#utility.yul\":3615:3630   */\n      mstore\n        /* \"#utility.yul\":3649:3653   */\n      0x24\n        /* \"#utility.yul\":3646:3647   */\n      0x00\n        /* \"#utility.yul\":3639:3654   */\n      revert\n        /* \"#utility.yul\":3666:3768   */\n    tag_52:\n        /* \"#utility.yul\":3707:3713   */\n      0x00\n        /* \"#utility.yul\":3758:3760   */\n      0x1f\n        /* \"#utility.yul\":3754:3761   */\n      not\n        /* \"#utility.yul\":3749:3751   */\n      0x1f\n        /* \"#utility.yul\":3742:3747   */\n      dup4\n        /* \"#utility.yul\":3738:3752   */\n      add\n        /* \"#utility.yul\":3734:3762   */\n      and\n        /* \"#utility.yul\":3724:3762   */\n      swap1\n      pop\n        /* \"#utility.yul\":3666:3768   */\n      swap2\n      swap1\n      pop\n      jump\t// out\n\n    auxdata: 0xa2646970667358221220de6a94889484fc56a556efea800f8a20759177f0b787afbf4968033940538a4064736f6c63430008070033\n}\n",
				"bytecode": {
					"linkReferences": {},
					"object": "608060405234801561001057600080fd5b5061040f806100206000396000f3fe608060405234801561001057600080fd5b50600436106100575760003560e01c80634df7e3d01461005c5780634f2be91f1461007a57806381c9fb8114610098578063a223e05d146100b6578063e5aa3d58146100d4575b600080fd5b6100646100f2565b6040516100719190610253565b60405180910390f35b610082610103565b60405161008f9190610238565b60405180910390f35b6100a0610129565b6040516100ad919061026e565b60405180910390f35b6100be6101b7565b6040516100cb91906102ab565b60405180910390f35b6100dc6101bd565b6040516100e99190610290565b60405180910390f35b60008054906101000a900460ff1681565b600360009054906101000a900473ffffffffffffffffffffffffffffffffffffffff1681565b6004805461013690610367565b80601f016020809104026020016040519081016040528092919081815260200182805461016290610367565b80156101af5780601f10610184576101008083540402835291602001916101af565b820191906000526020600020905b81548152906001019060200180831161019257829003601f168201915b505050505081565b60015481565b60025481565b6101cc816102e2565b82525050565b6101db816102f4565b82525050565b60006101ec826102c6565b6101f681856102d1565b9350610206818560208601610334565b61020f816103c8565b840191505092915050565b61022381610300565b82525050565b6102328161032a565b82525050565b600060208201905061024d60008301846101c3565b92915050565b600060208201905061026860008301846101d2565b92915050565b6000602082019050818103600083015261028881846101e1565b905092915050565b60006020820190506102a5600083018461021a565b92915050565b60006020820190506102c06000830184610229565b92915050565b600081519050919050565b600082825260208201905092915050565b60006102ed8261030a565b9050919050565b60008115159050919050565b6000819050919050565b600073ffffffffffffffffffffffffffffffffffffffff82169050919050565b6000819050919050565b60005b83811015610352578082015181840152602081019050610337565b83811115610361576000848401525b50505050565b6000600282049050600182168061037f57607f821691505b6020821081141561039357610392610399565b5b50919050565b7f4e487b7100000000000000000000000000000000000000000000000000000000600052602260045260246000fd5b6000601f19601f830116905091905056fea2646970667358221220de6a94889484fc56a556efea800f8a20759177f0b787afbf4968033940538a4064736f6c63430008070033",
					"opcodes": "PUSH1 0x80 PUSH1 0x40 MSTORE CALLVALUE DUP1 ISZERO PUSH2 0x10 JUMPI PUSH1 0x0 DUP1 REVERT JUMPDEST POP PUSH2 0x40F DUP1 PUSH2 0x20 PUSH1 0x0 CODECOPY PUSH1 0x0 RETURN INVALID PUSH1 0x80 PUSH1 0x40 MSTORE CALLVALUE DUP1 ISZERO PUSH2 0x10 JUMPI PUSH1 0x0 DUP1 REVERT JUMPDEST POP PUSH1 0x4 CALLDATASIZE LT PUSH2 0x57 JUMPI PUSH1 0x0 CALLDATALOAD PUSH1 0xE0 SHR DUP1 PUSH4 0x4DF7E3D0 EQ PUSH2 0x5C JUMPI DUP1 PUSH4 0x4F2BE91F EQ PUSH2 0x7A JUMPI DUP1 PUSH4 0x81C9FB81 EQ PUSH2 0x98 JUMPI DUP1 PUSH4 0xA223E05D EQ PUSH2 0xB6 JUMPI DUP1 PUSH4 0xE5AA3D58 EQ PUSH2 0xD4 JUMPI JUMPDEST PUSH1 0x0 DUP1 REVERT JUMPDEST PUSH2 0x64 PUSH2 0xF2 JUMP JUMPDEST PUSH1 0x40 MLOAD PUSH2 0x71 SWAP2 SWAP1 PUSH2 0x253 JUMP JUMPDEST PUSH1 0x40 MLOAD DUP1 SWAP2 SUB SWAP1 RETURN JUMPDEST PUSH2 0x82 PUSH2 0x103 JUMP JUMPDEST PUSH1 0x40 MLOAD PUSH2 0x8F SWAP2 SWAP1 PUSH2 0x238 JUMP JUMPDEST PUSH1 0x40 MLOAD DUP1 SWAP2 SUB SWAP1 RETURN JUMPDEST PUSH2 0xA0 PUSH2 0x129 JUMP JUMPDEST PUSH1 0x40 MLOAD PUSH2 0xAD SWAP2 SWAP1 PUSH2 0x26E JUMP JUMPDEST PUSH1 0x40 MLOAD DUP1 SWAP2 SUB SWAP1 RETURN JUMPDEST PUSH2 0xBE PUSH2 0x1B7 JUMP JUMPDEST PUSH1 0x40 MLOAD PUSH2 0xCB SWAP2 SWAP1 PUSH2 0x2AB JUMP JUMPDEST PUSH1 0x40 MLOAD DUP1 SWAP2 SUB SWAP1 RETURN JUMPDEST PUSH2 0xDC PUSH2 0x1BD JUMP JUMPDEST PUSH1 0x40 MLOAD PUSH2 0xE9 SWAP2 SWAP1 PUSH2 0x290 JUMP JUMPDEST PUSH1 0x40 MLOAD DUP1 SWAP2 SUB SWAP1 RETURN JUMPDEST PUSH1 0x0 DUP1 SLOAD SWAP1 PUSH2 0x100 EXP SWAP1 DIV PUSH1 0xFF AND DUP2 JUMP JUMPDEST PUSH1 0x3 PUSH1 0x0 SWAP1 SLOAD SWAP1 PUSH2 0x100 EXP SWAP1 DIV PUSH20 0xFFFFFFFFFFFFFFFFFFFFFFFFFFFFFFFFFFFFFFFF AND DUP2 JUMP JUMPDEST PUSH1 0x4 DUP1 SLOAD PUSH2 0x136 SWAP1 PUSH2 0x367 JUMP JUMPDEST DUP1 PUSH1 0x1F ADD PUSH1 0x20 DUP1 SWAP2 DIV MUL PUSH1 0x20 ADD PUSH1 0x40 MLOAD SWAP1 DUP2 ADD PUSH1 0x40 MSTORE DUP1 SWAP3 SWAP2 SWAP1 DUP2 DUP2 MSTORE PUSH1 0x20 ADD DUP3 DUP1 SLOAD PUSH2 0x162 SWAP1 PUSH2 0x367 JUMP JUMPDEST DUP1 ISZERO PUSH2 0x1AF JUMPI DUP1 PUSH1 0x1F LT PUSH2 0x184 JUMPI PUSH2 0x100 DUP1 DUP4 SLOAD DIV MUL DUP4 MSTORE SWAP2 PUSH1 0x20 ADD SWAP2 PUSH2 0x1AF JUMP JUMPDEST DUP3 ADD SWAP2 SWAP1 PUSH1 0x0 MSTORE PUSH1 0x20 PUSH1 0x0 KECCAK256 SWAP1 JUMPDEST DUP2 SLOAD DUP2 MSTORE SWAP1 PUSH1 0x1 ADD SWAP1 PUSH1 0x20 ADD DUP1 DUP4 GT PUSH2 0x192 JUMPI DUP3 SWAP1 SUB PUSH1 0x1F AND DUP3 ADD SWAP2 JUMPDEST POP POP POP POP POP DUP2 JUMP JUMPDEST PUSH1 0x1 SLOAD DUP2 JUMP JUMPDEST PUSH1 0x2 SLOAD DUP2 JUMP JUMPDEST PUSH2 0x1CC DUP2 PUSH2 0x2E2 JUMP JUMPDEST DUP3 MSTORE POP POP JUMP JUMPDEST PUSH2 0x1DB DUP2 PUSH2 0x2F4 JUMP JUMPDEST DUP3 MSTORE POP POP JUMP JUMPDEST PUSH1 0x0 PUSH2 0x1EC DUP3 PUSH2 0x2C6 JUMP JUMPDEST PUSH2 0x1F6 DUP2 DUP6 PUSH2 0x2D1 JUMP JUMPDEST SWAP4 POP PUSH2 0x206 DUP2 DUP6 PUSH1 0x20 DUP7 ADD PUSH2 0x334 JUMP JUMPDEST PUSH2 0x20F DUP2 PUSH2 0x3C8 JUMP JUMPDEST DUP5 ADD SWAP2 POP POP SWAP3 SWAP2 POP POP JUMP JUMPDEST PUSH2 0x223 DUP2 PUSH2 0x300 JUMP JUMPDEST DUP3 MSTORE POP POP JUMP JUMPDEST PUSH2 0x232 DUP2 PUSH2 0x32A JUMP JUMPDEST DUP3 MSTORE POP POP JUMP JUMPDEST PUSH1 0x0 PUSH1 0x20 DUP3 ADD SWAP1 POP PUSH2 0x24D PUSH1 0x0 DUP4 ADD DUP5 PUSH2 0x1C3 JUMP JUMPDEST SWAP3 SWAP2 POP POP JUMP JUMPDEST PUSH1 0x0 PUSH1 0x20 DUP3 ADD SWAP1 POP PUSH2 0x268 PUSH1 0x0 DUP4 ADD DUP5 PUSH2 0x1D2 JUMP JUMPDEST SWAP3 SWAP2 POP POP JUMP JUMPDEST PUSH1 0x0 PUSH1 0x20 DUP3 ADD SWAP1 POP DUP2 DUP2 SUB PUSH1 0x0 DUP4 ADD MSTORE PUSH2 0x288 DUP2 DUP5 PUSH2 0x1E1 JUMP JUMPDEST SWAP1 POP SWAP3 SWAP2 POP POP JUMP JUMPDEST PUSH1 0x0 PUSH1 0x20 DUP3 ADD SWAP1 POP PUSH2 0x2A5 PUSH1 0x0 DUP4 ADD DUP5 PUSH2 0x21A JUMP JUMPDEST SWAP3 SWAP2 POP POP JUMP JUMPDEST PUSH1 0x0 PUSH1 0x20 DUP3 ADD SWAP1 POP PUSH2 0x2C0 PUSH1 0x0 DUP4 ADD DUP5 PUSH2 0x229 JUMP JUMPDEST SWAP3 SWAP2 POP POP JUMP JUMPDEST PUSH1 0x0 DUP2 MLOAD SWAP1 POP SWAP2 SWAP1 POP JUMP JUMPDEST PUSH1 0x0 DUP3 DUP3 MSTORE PUSH1 0x20 DUP3 ADD SWAP1 POP SWAP3 SWAP2 POP POP JUMP JUMPDEST PUSH1 0x0 PUSH2 0x2ED DUP3 PUSH2 0x30A JUMP JUMPDEST SWAP1 POP SWAP2 SWAP1 POP JUMP JUMPDEST PUSH1 0x0 DUP2 ISZERO ISZERO SWAP1 POP SWAP2 SWAP1 POP JUMP JUMPDEST PUSH1 0x0 DUP2 SWAP1 POP SWAP2 SWAP1 POP JUMP JUMPDEST PUSH1 0x0 PUSH20 0xFFFFFFFFFFFFFFFFFFFFFFFFFFFFFFFFFFFFFFFF DUP3 AND SWAP1 POP SWAP2 SWAP1 POP JUMP JUMPDEST PUSH1 0x0 DUP2 SWAP1 POP SWAP2 SWAP1 POP JUMP JUMPDEST PUSH1 0x0 JUMPDEST DUP4 DUP2 LT ISZERO PUSH2 0x352 JUMPI DUP1 DUP3 ADD MLOAD DUP2 DUP5 ADD MSTORE PUSH1 0x20 DUP2 ADD SWAP1 POP PUSH2 0x337 JUMP JUMPDEST DUP4 DUP2 GT ISZERO PUSH2 0x361 JUMPI PUSH1 0x0 DUP5 DUP5 ADD MSTORE JUMPDEST POP POP POP POP JUMP JUMPDEST PUSH1 0x0 PUSH1 0x2 DUP3 DIV SWAP1 POP PUSH1 0x1 DUP3 AND DUP1 PUSH2 0x37F JUMPI PUSH1 0x7F DUP3 AND SWAP2 POP JUMPDEST PUSH1 0x20 DUP3 LT DUP2 EQ ISZERO PUSH2 0x393 JUMPI PUSH2 0x392 PUSH2 0x399 JUMP JUMPDEST JUMPDEST POP SWAP2 SWAP1 POP JUMP JUMPDEST PUSH32 0x4E487B7100000000000000000000000000000000000000000000000000000000 PUSH1 0x0 MSTORE PUSH1 0x22 PUSH1 0x4 MSTORE PUSH1 0x24 PUSH1 0x0 REVERT JUMPDEST PUSH1 0x0 PUSH1 0x1F NOT PUSH1 0x1F DUP4 ADD AND SWAP1 POP SWAP2 SWAP1 POP JUMP INVALID LOG2 PUSH5 0x6970667358 0x22 SLT KECCAK256 0xDE PUSH11 0x94889484FC56A556EFEA80 0xF DUP11 KECCAK256 PUSH22 0x9177F0B787AFBF4968033940538A4064736F6C634300 ADDMOD SMOD STOP CALLER "
				},
				"gasEstimates": {
					"creation": {
						"codeDepositCost": "207800",
						"executionCost": "251",
						"totalCost": "208051"
					},
					"external": {
						"add()": "2514",
						"b()": "2446",
						"byt()": "infinite",
						"i()": "2495",
						"ui()": "2473"
					}
				},
				"methodIdentifiers": {
					"add()": "4f2be91f",
					"b()": "4df7e3d0",
					"byt()": "81c9fb81",
					"i()": "e5aa3d58",
					"ui()": "a223e05d"
				}
			},
			"storageLayout": {
				"storage": [
					{
						"astId": 3,
						"contract": "lessons/DefaultValues.sol:DefaultValues",
						"label": "b",
						"offset": 0,
						"slot": "0",
						"type": "t_bool"
					},
					{
						"astId": 5,
						"contract": "lessons/DefaultValues.sol:DefaultValues",
						"label": "ui",
						"offset": 0,
						"slot": "1",
						"type": "t_uint256"
					},
					{
						"astId": 7,
						"contract": "lessons/DefaultValues.sol:DefaultValues",
						"label": "i",
						"offset": 0,
						"slot": "2",
						"type": "t_int256"
					},
					{
						"astId": 9,
						"contract": "lessons/DefaultValues.sol:DefaultValues",
						"label": "add",
						"offset": 0,
						"slot": "3",
						"type": "t_address"
					},
					{
						"astId": 11,
						"contract": "lessons/DefaultValues.sol:DefaultValues",
						"label": "byt",
						"offset": 0,
						"slot": "4",
						"type": "t_bytes_storage"
					}
				],
				"types": {
					"t_address": {
						"encoding": "inplace",
						"label": "address",
						"numberOfBytes": "20"
					},
					"t_bool": {
						"encoding": "inplace",
						"label": "bool",
						"numberOfBytes": "1"
					},
					"t_bytes_storage": {
						"encoding": "bytes",
						"label": "bytes",
						"numberOfBytes": "32"
					},
					"t_int256": {
						"encoding": "inplace",
						"label": "int256",
						"numberOfBytes": "32"
					},
					"t_uint256": {
						"encoding": "inplace",
						"label": "uint256",
						"numberOfBytes": "32"
					}
				}
			},
			"userdoc": {
				"kind": "user",
				"methods": {},
				"version": 1
			}
		}
	}
}