{
	"lessons/ErrorRequireRevertAssert.sol": {
		"ErrorTest": {
			"abi": [
				{
					"inputs": [
						{
							"internalType": "uint256",
							"name": "_x",
							"type": "uint256"
						}
					],
					"name": "testRequire",
					"outputs": [],
					"stateMutability": "pure",
					"type": "function"
				},
				{
					"inputs": [
						{
							"internalType": "uint256",
							"name": "_x",
							"type": "uint256"
						}
					],
					"name": "testRevert",
					"outputs": [],
					"stateMutability": "pure",
					"type": "function"
				}
			],
			"devdoc": {
				"kind": "dev",
				"methods": {},
				"version": 1
			},
			"evm": {
				"assembly": "    /* \"lessons/ErrorRequireRevertAssert.sol\":62:453  contract ErrorTest {\r... */\n  mstore(0x40, 0x80)\n  callvalue\n  dup1\n  iszero\n  tag_1\n  jumpi\n  0x00\n  dup1\n  revert\ntag_1:\n  pop\n  dataSize(sub_0)\n  dup1\n  dataOffset(sub_0)\n  0x00\n  codecopy\n  0x00\n  return\nstop\n\nsub_0: assembly {\n        /* \"lessons/ErrorRequireRevertAssert.sol\":62:453  contract ErrorTest {\r... */\n      mstore(0x40, 0x80)\n      callvalue\n      dup1\n      iszero\n      tag_1\n      jumpi\n      0x00\n      dup1\n      revert\n    tag_1:\n      pop\n      jumpi(tag_2, lt(calldatasize, 0x04))\n      shr(0xe0, calldataload(0x00))\n      dup1\n      0x20987767\n      eq\n      tag_3\n      jumpi\n      dup1\n      0xb8bd717f\n      eq\n      tag_4\n      jumpi\n    tag_2:\n      0x00\n      dup1\n      revert\n        /* \"lessons/ErrorRequireRevertAssert.sol\":194:450  function testRevert(uint _x) public pure {\r... */\n    tag_3:\n      tag_5\n      0x04\n      dup1\n      calldatasize\n      sub\n      dup2\n      add\n      swap1\n      tag_6\n      swap2\n      swap1\n      tag_7\n      jump\t// in\n    tag_6:\n      tag_8\n      jump\t// in\n    tag_5:\n      stop\n        /* \"lessons/ErrorRequireRevertAssert.sol\":88:188  function testRequire(uint _x) public pure {\r... */\n    tag_4:\n      tag_9\n      0x04\n      dup1\n      calldatasize\n      sub\n      dup2\n      add\n      swap1\n      tag_10\n      swap2\n      swap1\n      tag_7\n      jump\t// in\n    tag_10:\n      tag_11\n      jump\t// in\n    tag_9:\n      stop\n        /* \"lessons/ErrorRequireRevertAssert.sol\":194:450  function testRevert(uint _x) public pure {\r... */\n    tag_8:\n        /* \"lessons/ErrorRequireRevertAssert.sol\":252:254  10 */\n      0x0a\n        /* \"lessons/ErrorRequireRevertAssert.sol\":249:251  _x */\n      dup2\n        /* \"lessons/ErrorRequireRevertAssert.sol\":249:254  _x>10 */\n      gt\n        /* \"lessons/ErrorRequireRevertAssert.sol\":246:443  if(_x>10){\r... */\n      iszero\n      tag_13\n      jumpi\n        /* \"lessons/ErrorRequireRevertAssert.sol\":270:299  revert (\"_x greater than 10\") */\n      mload(0x40)\n      0x08c379a000000000000000000000000000000000000000000000000000000000\n      dup2\n      mstore\n      0x04\n      add\n      tag_14\n      swap1\n      tag_15\n      jump\t// in\n    tag_14:\n      mload(0x40)\n      dup1\n      swap2\n      sub\n      swap1\n      revert\n        /* \"lessons/ErrorRequireRevertAssert.sol\":246:443  if(_x>10){\r... */\n    tag_13:\n        /* \"lessons/ErrorRequireRevertAssert.sol\":324:326  20 */\n      0x14\n        /* \"lessons/ErrorRequireRevertAssert.sol\":321:323  _x */\n      dup2\n        /* \"lessons/ErrorRequireRevertAssert.sol\":321:326  _x>20 */\n      gt\n        /* \"lessons/ErrorRequireRevertAssert.sol\":317:443  if (_x>20){\r... */\n      iszero\n      tag_17\n      jumpi\n        /* \"lessons/ErrorRequireRevertAssert.sol\":342:371  revert (\"_x greater than 20\") */\n      mload(0x40)\n      0x08c379a000000000000000000000000000000000000000000000000000000000\n      dup2\n      mstore\n      0x04\n      add\n      tag_18\n      swap1\n      tag_19\n      jump\t// in\n    tag_18:\n      mload(0x40)\n      dup1\n      swap2\n      sub\n      swap1\n      revert\n        /* \"lessons/ErrorRequireRevertAssert.sol\":317:443  if (_x>20){\r... */\n    tag_17:\n        /* \"lessons/ErrorRequireRevertAssert.sol\":402:431  revert (\"_x greater than 10\") */\n      mload(0x40)\n      0x08c379a000000000000000000000000000000000000000000000000000000000\n      dup2\n      mstore\n      0x04\n      add\n      tag_21\n      swap1\n      tag_15\n      jump\t// in\n    tag_21:\n      mload(0x40)\n      dup1\n      swap2\n      sub\n      swap1\n      revert\n        /* \"lessons/ErrorRequireRevertAssert.sol\":88:188  function testRequire(uint _x) public pure {\r... */\n    tag_11:\n        /* \"lessons/ErrorRequireRevertAssert.sol\":154:156  10 */\n      0x0a\n        /* \"lessons/ErrorRequireRevertAssert.sol\":150:152  _x */\n      dup2\n        /* \"lessons/ErrorRequireRevertAssert.sol\":150:156  _x<=10 */\n      gt\n      iszero\n        /* \"lessons/ErrorRequireRevertAssert.sol\":141:180  require (_x<=10, \"_x greater than 10\" ) */\n      tag_23\n      jumpi\n      mload(0x40)\n      0x08c379a000000000000000000000000000000000000000000000000000000000\n      dup2\n      mstore\n      0x04\n      add\n      tag_24\n      swap1\n      tag_15\n      jump\t// in\n    tag_24:\n      mload(0x40)\n      dup1\n      swap2\n      sub\n      swap1\n      revert\n    tag_23:\n        /* \"lessons/ErrorRequireRevertAssert.sol\":88:188  function testRequire(uint _x) public pure {\r... */\n      pop\n      jump\t// out\n        /* \"#utility.yul\":7:146   */\n    tag_26:\n        /* \"#utility.yul\":53:58   */\n      0x00\n        /* \"#utility.yul\":91:97   */\n      dup2\n        /* \"#utility.yul\":78:98   */\n      calldataload\n        /* \"#utility.yul\":69:98   */\n      swap1\n      pop\n        /* \"#utility.yul\":107:140   */\n      tag_28\n        /* \"#utility.yul\":134:139   */\n      dup2\n        /* \"#utility.yul\":107:140   */\n      tag_29\n      jump\t// in\n    tag_28:\n        /* \"#utility.yul\":7:146   */\n      swap3\n      swap2\n      pop\n      pop\n      jump\t// out\n        /* \"#utility.yul\":152:481   */\n    tag_7:\n        /* \"#utility.yul\":211:217   */\n      0x00\n        /* \"#utility.yul\":260:262   */\n      0x20\n        /* \"#utility.yul\":248:257   */\n      dup3\n        /* \"#utility.yul\":239:246   */\n      dup5\n        /* \"#utility.yul\":235:258   */\n      sub\n        /* \"#utility.yul\":231:263   */\n      slt\n        /* \"#utility.yul\":228:347   */\n      iszero\n      tag_31\n      jumpi\n        /* \"#utility.yul\":266:345   */\n      tag_32\n      tag_33\n      jump\t// in\n    tag_32:\n        /* \"#utility.yul\":228:347   */\n    tag_31:\n        /* \"#utility.yul\":386:387   */\n      0x00\n        /* \"#utility.yul\":411:464   */\n      tag_34\n        /* \"#utility.yul\":456:463   */\n      dup5\n        /* \"#utility.yul\":447:453   */\n      dup3\n        /* \"#utility.yul\":436:445   */\n      dup6\n        /* \"#utility.yul\":432:454   */\n      add\n        /* \"#utility.yul\":411:464   */\n      tag_26\n      jump\t// in\n    tag_34:\n        /* \"#utility.yul\":401:464   */\n      swap2\n      pop\n        /* \"#utility.yul\":357:474   */\n      pop\n        /* \"#utility.yul\":152:481   */\n      swap3\n      swap2\n      pop\n      pop\n      jump\t// out\n        /* \"#utility.yul\":487:853   */\n    tag_35:\n        /* \"#utility.yul\":629:632   */\n      0x00\n        /* \"#utility.yul\":650:717   */\n      tag_37\n        /* \"#utility.yul\":714:716   */\n      0x12\n        /* \"#utility.yul\":709:712   */\n      dup4\n        /* \"#utility.yul\":650:717   */\n      tag_38\n      jump\t// in\n    tag_37:\n        /* \"#utility.yul\":643:717   */\n      swap2\n      pop\n        /* \"#utility.yul\":726:819   */\n      tag_39\n        /* \"#utility.yul\":815:818   */\n      dup3\n        /* \"#utility.yul\":726:819   */\n      tag_40\n      jump\t// in\n    tag_39:\n        /* \"#utility.yul\":844:846   */\n      0x20\n        /* \"#utility.yul\":839:842   */\n      dup3\n        /* \"#utility.yul\":835:847   */\n      add\n        /* \"#utility.yul\":828:847   */\n      swap1\n      pop\n        /* \"#utility.yul\":487:853   */\n      swap2\n      swap1\n      pop\n      jump\t// out\n        /* \"#utility.yul\":859:1225   */\n    tag_41:\n        /* \"#utility.yul\":1001:1004   */\n      0x00\n        /* \"#utility.yul\":1022:1089   */\n      tag_43\n        /* \"#utility.yul\":1086:1088   */\n      0x12\n        /* \"#utility.yul\":1081:1084   */\n      dup4\n        /* \"#utility.yul\":1022:1089   */\n      tag_38\n      jump\t// in\n    tag_43:\n        /* \"#utility.yul\":1015:1089   */\n      swap2\n      pop\n        /* \"#utility.yul\":1098:1191   */\n      tag_44\n        /* \"#utility.yul\":1187:1190   */\n      dup3\n        /* \"#utility.yul\":1098:1191   */\n      tag_45\n      jump\t// in\n    tag_44:\n        /* \"#utility.yul\":1216:1218   */\n      0x20\n        /* \"#utility.yul\":1211:1214   */\n      dup3\n        /* \"#utility.yul\":1207:1219   */\n      add\n        /* \"#utility.yul\":1200:1219   */\n      swap1\n      pop\n        /* \"#utility.yul\":859:1225   */\n      swap2\n      swap1\n      pop\n      jump\t// out\n        /* \"#utility.yul\":1231:1650   */\n    tag_19:\n        /* \"#utility.yul\":1397:1401   */\n      0x00\n        /* \"#utility.yul\":1435:1437   */\n      0x20\n        /* \"#utility.yul\":1424:1433   */\n      dup3\n        /* \"#utility.yul\":1420:1438   */\n      add\n        /* \"#utility.yul\":1412:1438   */\n      swap1\n      pop\n        /* \"#utility.yul\":1484:1493   */\n      dup2\n        /* \"#utility.yul\":1478:1482   */\n      dup2\n        /* \"#utility.yul\":1474:1494   */\n      sub\n        /* \"#utility.yul\":1470:1471   */\n      0x00\n        /* \"#utility.yul\":1459:1468   */\n      dup4\n        /* \"#utility.yul\":1455:1472   */\n      add\n        /* \"#utility.yul\":1448:1495   */\n      mstore\n        /* \"#utility.yul\":1512:1643   */\n      tag_47\n        /* \"#utility.yul\":1638:1642   */\n      dup2\n        /* \"#utility.yul\":1512:1643   */\n      tag_35\n      jump\t// in\n    tag_47:\n        /* \"#utility.yul\":1504:1643   */\n      swap1\n      pop\n        /* \"#utility.yul\":1231:1650   */\n      swap2\n      swap1\n      pop\n      jump\t// out\n        /* \"#utility.yul\":1656:2075   */\n    tag_15:\n        /* \"#utility.yul\":1822:1826   */\n      0x00\n        /* \"#utility.yul\":1860:1862   */\n      0x20\n        /* \"#utility.yul\":1849:1858   */\n      dup3\n        /* \"#utility.yul\":1845:1863   */\n      add\n        /* \"#utility.yul\":1837:1863   */\n      swap1\n      pop\n        /* \"#utility.yul\":1909:1918   */\n      dup2\n        /* \"#utility.yul\":1903:1907   */\n      dup2\n        /* \"#utility.yul\":1899:1919   */\n      sub\n        /* \"#utility.yul\":1895:1896   */\n      0x00\n        /* \"#utility.yul\":1884:1893   */\n      dup4\n        /* \"#utility.yul\":1880:1897   */\n      add\n        /* \"#utility.yul\":1873:1920   */\n      mstore\n        /* \"#utility.yul\":1937:2068   */\n      tag_49\n        /* \"#utility.yul\":2063:2067   */\n      dup2\n        /* \"#utility.yul\":1937:2068   */\n      tag_41\n      jump\t// in\n    tag_49:\n        /* \"#utility.yul\":1929:2068   */\n      swap1\n      pop\n        /* \"#utility.yul\":1656:2075   */\n      swap2\n      swap1\n      pop\n      jump\t// out\n        /* \"#utility.yul\":2162:2331   */\n    tag_38:\n        /* \"#utility.yul\":2246:2257   */\n      0x00\n        /* \"#utility.yul\":2280:2286   */\n      dup3\n        /* \"#utility.yul\":2275:2278   */\n      dup3\n        /* \"#utility.yul\":2268:2287   */\n      mstore\n        /* \"#utility.yul\":2320:2324   */\n      0x20\n        /* \"#utility.yul\":2315:2318   */\n      dup3\n        /* \"#utility.yul\":2311:2325   */\n      add\n        /* \"#utility.yul\":2296:2325   */\n      swap1\n      pop\n        /* \"#utility.yul\":2162:2331   */\n      swap3\n      swap2\n      pop\n      pop\n      jump\t// out\n        /* \"#utility.yul\":2337:2414   */\n    tag_53:\n        /* \"#utility.yul\":2374:2381   */\n      0x00\n        /* \"#utility.yul\":2403:2408   */\n      dup2\n        /* \"#utility.yul\":2392:2408   */\n      swap1\n      pop\n        /* \"#utility.yul\":2337:2414   */\n      swap2\n      swap1\n      pop\n      jump\t// out\n        /* \"#utility.yul\":2543:2660   */\n    tag_33:\n        /* \"#utility.yul\":2652:2653   */\n      0x00\n        /* \"#utility.yul\":2649:2650   */\n      dup1\n        /* \"#utility.yul\":2642:2654   */\n      revert\n        /* \"#utility.yul\":2666:2834   */\n    tag_40:\n        /* \"#utility.yul\":2806:2826   */\n      0x5f782067726561746572207468616e2032300000000000000000000000000000\n        /* \"#utility.yul\":2802:2803   */\n      0x00\n        /* \"#utility.yul\":2794:2800   */\n      dup3\n        /* \"#utility.yul\":2790:2804   */\n      add\n        /* \"#utility.yul\":2783:2827   */\n      mstore\n        /* \"#utility.yul\":2666:2834   */\n      pop\n      jump\t// out\n        /* \"#utility.yul\":2840:3008   */\n    tag_45:\n        /* \"#utility.yul\":2980:3000   */\n      0x5f782067726561746572207468616e2031300000000000000000000000000000\n        /* \"#utility.yul\":2976:2977   */\n      0x00\n        /* \"#utility.yul\":2968:2974   */\n      dup3\n        /* \"#utility.yul\":2964:2978   */\n      add\n        /* \"#utility.yul\":2957:3001   */\n      mstore\n        /* \"#utility.yul\":2840:3008   */\n      pop\n      jump\t// out\n        /* \"#utility.yul\":3014:3136   */\n    tag_29:\n        /* \"#utility.yul\":3087:3111   */\n      tag_61\n        /* \"#utility.yul\":3105:3110   */\n      dup2\n        /* \"#utility.yul\":3087:3111   */\n      tag_53\n      jump\t// in\n    tag_61:\n        /* \"#utility.yul\":3080:3085   */\n      dup2\n        /* \"#utility.yul\":3077:3112   */\n      eq\n        /* \"#utility.yul\":3067:3130   */\n      tag_62\n      jumpi\n        /* \"#utility.yul\":3126:3127   */\n      0x00\n        /* \"#utility.yul\":3123:3124   */\n      dup1\n        /* \"#utility.yul\":3116:3128   */\n      revert\n        /* \"#utility.yul\":3067:3130   */\n    tag_62:\n        /* \"#utility.yul\":3014:3136   */\n      pop\n      jump\t// out\n\n    auxdata: 0xa26469706673582212200030185b3c00ae3ca653a0937fb2a1bb4417498cbe476e3930f4ab2c998b882164736f6c63430008070033\n}\n",
				"bytecode": {
					"linkReferences": {},
					"object": "608060405234801561001057600080fd5b50610304806100206000396000f3fe608060405234801561001057600080fd5b50600436106100365760003560e01c8063209877671461003b578063b8bd717f14610057575b600080fd5b61005560048036038101906100509190610192565b610073565b005b610071600480360381019061006c9190610192565b610136565b005b600a8111156100b7576040517f08c379a00000000000000000000000000000000000000000000000000000000081526004016100ae90610225565b60405180910390fd5b60148111156100fb576040517f08c379a00000000000000000000000000000000000000000000000000000000081526004016100f290610205565b60405180910390fd5b6040517f08c379a000000000000000000000000000000000000000000000000000000000815260040161012d90610225565b60405180910390fd5b600a81111561017a576040517f08c379a000000000000000000000000000000000000000000000000000000000815260040161017190610225565b60405180910390fd5b50565b60008135905061018c816102b7565b92915050565b6000602082840312156101a8576101a7610260565b5b60006101b68482850161017d565b91505092915050565b60006101cc601283610245565b91506101d782610265565b602082019050919050565b60006101ef601283610245565b91506101fa8261028e565b602082019050919050565b6000602082019050818103600083015261021e816101bf565b9050919050565b6000602082019050818103600083015261023e816101e2565b9050919050565b600082825260208201905092915050565b6000819050919050565b600080fd5b7f5f782067726561746572207468616e2032300000000000000000000000000000600082015250565b7f5f782067726561746572207468616e2031300000000000000000000000000000600082015250565b6102c081610256565b81146102cb57600080fd5b5056fea26469706673582212200030185b3c00ae3ca653a0937fb2a1bb4417498cbe476e3930f4ab2c998b882164736f6c63430008070033",
					"opcodes": "PUSH1 0x80 PUSH1 0x40 MSTORE CALLVALUE DUP1 ISZERO PUSH2 0x10 JUMPI PUSH1 0x0 DUP1 REVERT JUMPDEST POP PUSH2 0x304 DUP1 PUSH2 0x20 PUSH1 0x0 CODECOPY PUSH1 0x0 RETURN INVALID PUSH1 0x80 PUSH1 0x40 MSTORE CALLVALUE DUP1 ISZERO PUSH2 0x10 JUMPI PUSH1 0x0 DUP1 REVERT JUMPDEST POP PUSH1 0x4 CALLDATASIZE LT PUSH2 0x36 JUMPI PUSH1 0x0 CALLDATALOAD PUSH1 0xE0 SHR DUP1 PUSH4 0x20987767 EQ PUSH2 0x3B JUMPI DUP1 PUSH4 0xB8BD717F EQ PUSH2 0x57 JUMPI JUMPDEST PUSH1 0x0 DUP1 REVERT JUMPDEST PUSH2 0x55 PUSH1 0x4 DUP1 CALLDATASIZE SUB DUP2 ADD SWAP1 PUSH2 0x50 SWAP2 SWAP1 PUSH2 0x192 JUMP JUMPDEST PUSH2 0x73 JUMP JUMPDEST STOP JUMPDEST PUSH2 0x71 PUSH1 0x4 DUP1 CALLDATASIZE SUB DUP2 ADD SWAP1 PUSH2 0x6C SWAP2 SWAP1 PUSH2 0x192 JUMP JUMPDEST PUSH2 0x136 JUMP JUMPDEST STOP JUMPDEST PUSH1 0xA DUP2 GT ISZERO PUSH2 0xB7 JUMPI PUSH1 0x40 MLOAD PUSH32 0x8C379A000000000000000000000000000000000000000000000000000000000 DUP2 MSTORE PUSH1 0x4 ADD PUSH2 0xAE SWAP1 PUSH2 0x225 JUMP JUMPDEST PUSH1 0x40 MLOAD DUP1 SWAP2 SUB SWAP1 REVERT JUMPDEST PUSH1 0x14 DUP2 GT ISZERO PUSH2 0xFB JUMPI PUSH1 0x40 MLOAD PUSH32 0x8C379A000000000000000000000000000000000000000000000000000000000 DUP2 MSTORE PUSH1 0x4 ADD PUSH2 0xF2 SWAP1 PUSH2 0x205 JUMP JUMPDEST PUSH1 0x40 MLOAD DUP1 SWAP2 SUB SWAP1 REVERT JUMPDEST PUSH1 0x40 MLOAD PUSH32 0x8C379A000000000000000000000000000000000000000000000000000000000 DUP2 MSTORE PUSH1 0x4 ADD PUSH2 0x12D SWAP1 PUSH2 0x225 JUMP JUMPDEST PUSH1 0x40 MLOAD DUP1 SWAP2 SUB SWAP1 REVERT JUMPDEST PUSH1 0xA DUP2 GT ISZERO PUSH2 0x17A JUMPI PUSH1 0x40 MLOAD PUSH32 0x8C379A000000000000000000000000000000000000000000000000000000000 DUP2 MSTORE PUSH1 0x4 ADD PUSH2 0x171 SWAP1 PUSH2 0x225 JUMP JUMPDEST PUSH1 0x40 MLOAD DUP1 SWAP2 SUB SWAP1 REVERT JUMPDEST POP JUMP JUMPDEST PUSH1 0x0 DUP2 CALLDATALOAD SWAP1 POP PUSH2 0x18C DUP2 PUSH2 0x2B7 JUMP JUMPDEST SWAP3 SWAP2 POP POP JUMP JUMPDEST PUSH1 0x0 PUSH1 0x20 DUP3 DUP5 SUB SLT ISZERO PUSH2 0x1A8 JUMPI PUSH2 0x1A7 PUSH2 0x260 JUMP JUMPDEST JUMPDEST PUSH1 0x0 PUSH2 0x1B6 DUP5 DUP3 DUP6 ADD PUSH2 0x17D JUMP JUMPDEST SWAP2 POP POP SWAP3 SWAP2 POP POP JUMP JUMPDEST PUSH1 0x0 PUSH2 0x1CC PUSH1 0x12 DUP4 PUSH2 0x245 JUMP JUMPDEST SWAP2 POP PUSH2 0x1D7 DUP3 PUSH2 0x265 JUMP JUMPDEST PUSH1 0x20 DUP3 ADD SWAP1 POP SWAP2 SWAP1 POP JUMP JUMPDEST PUSH1 0x0 PUSH2 0x1EF PUSH1 0x12 DUP4 PUSH2 0x245 JUMP JUMPDEST SWAP2 POP PUSH2 0x1FA DUP3 PUSH2 0x28E JUMP JUMPDEST PUSH1 0x20 DUP3 ADD SWAP1 POP SWAP2 SWAP1 POP JUMP JUMPDEST PUSH1 0x0 PUSH1 0x20 DUP3 ADD SWAP1 POP DUP2 DUP2 SUB PUSH1 0x0 DUP4 ADD MSTORE PUSH2 0x21E DUP2 PUSH2 0x1BF JUMP JUMPDEST SWAP1 POP SWAP2 SWAP1 POP JUMP JUMPDEST PUSH1 0x0 PUSH1 0x20 DUP3 ADD SWAP1 POP DUP2 DUP2 SUB PUSH1 0x0 DUP4 ADD MSTORE PUSH2 0x23E DUP2 PUSH2 0x1E2 JUMP JUMPDEST SWAP1 POP SWAP2 SWAP1 POP JUMP JUMPDEST PUSH1 0x0 DUP3 DUP3 MSTORE PUSH1 0x20 DUP3 ADD SWAP1 POP SWAP3 SWAP2 POP POP JUMP JUMPDEST PUSH1 0x0 DUP2 SWAP1 POP SWAP2 SWAP1 POP JUMP JUMPDEST PUSH1 0x0 DUP1 REVERT JUMPDEST PUSH32 0x5F782067726561746572207468616E2032300000000000000000000000000000 PUSH1 0x0 DUP3 ADD MSTORE POP JUMP JUMPDEST PUSH32 0x5F782067726561746572207468616E2031300000000000000000000000000000 PUSH1 0x0 DUP3 ADD MSTORE POP JUMP JUMPDEST PUSH2 0x2C0 DUP2 PUSH2 0x256 JUMP JUMPDEST DUP2 EQ PUSH2 0x2CB JUMPI PUSH1 0x0 DUP1 REVERT JUMPDEST POP JUMP INVALID LOG2 PUSH5 0x6970667358 0x22 SLT KECCAK256 STOP ADDRESS XOR JUMPDEST EXTCODECOPY STOP 0xAE EXTCODECOPY 0xA6 MSTORE8 LOG0 SWAP4 PUSH32 0xB2A1BB4417498CBE476E3930F4AB2C998B882164736F6C634300080700330000 "
				},
				"gasEstimates": {
					"creation": {
						"codeDepositCost": "154400",
						"executionCost": "202",
						"totalCost": "154602"
					},
					"external": {
						"testRequire(uint256)": "719",
						"testRevert(uint256)": "724"
					}
				},
				"methodIdentifiers": {
					"testRequire(uint256)": "b8bd717f",
					"testRevert(uint256)": "20987767"
				}
			},
			"storageLayout": {
				"storage": [],
				"types": null
			},
			"userdoc": {
				"kind": "user",
				"methods": {},
				"version": 1
			}
		}
	}
}