{
	"lessons/ErrorRequireRevertAssert.sol": {
		"ErrorTest": {
			"abi": [
				{
					"inputs": [],
					"name": "MyError",
					"type": "error"
				},
				{
					"inputs": [
						{
							"internalType": "uint256",
							"name": "_y",
							"type": "uint256"
						}
					],
					"name": "myError",
					"outputs": [],
					"stateMutability": "pure",
					"type": "function"
				},
				{
					"inputs": [],
					"name": "num",
					"outputs": [
						{
							"internalType": "uint256",
							"name": "",
							"type": "uint256"
						}
					],
					"stateMutability": "view",
					"type": "function"
				},
				{
					"inputs": [],
					"name": "numFun",
					"outputs": [],
					"stateMutability": "view",
					"type": "function"
				},
				{
					"inputs": [],
					"name": "ornek",
					"outputs": [],
					"stateMutability": "nonpayable",
					"type": "function"
				},
				{
					"inputs": [
						{
							"internalType": "uint256",
							"name": "_x",
							"type": "uint256"
						}
					],
					"name": "testRequire",
					"outputs": [],
					"stateMutability": "pure",
					"type": "function"
				},
				{
					"inputs": [
						{
							"internalType": "uint256",
							"name": "_x",
							"type": "uint256"
						}
					],
					"name": "testRevert",
					"outputs": [],
					"stateMutability": "pure",
					"type": "function"
				}
			],
			"devdoc": {
				"kind": "dev",
				"methods": {},
				"version": 1
			},
			"evm": {
				"assembly": "    /* \"lessons/ErrorRequireRevertAssert.sol\":62:992  contract ErrorTest {\r... */\n  mstore(0x40, 0x80)\n    /* \"lessons/ErrorRequireRevertAssert.sol\":513:516  123 */\n  0x7b\n    /* \"lessons/ErrorRequireRevertAssert.sol\":497:516  uint public num=123 */\n  0x00\n  sstore\n    /* \"lessons/ErrorRequireRevertAssert.sol\":62:992  contract ErrorTest {\r... */\n  callvalue\n  dup1\n  iszero\n  tag_1\n  jumpi\n  0x00\n  dup1\n  revert\ntag_1:\n  pop\n  dataSize(sub_0)\n  dup1\n  dataOffset(sub_0)\n  0x00\n  codecopy\n  0x00\n  return\nstop\n\nsub_0: assembly {\n        /* \"lessons/ErrorRequireRevertAssert.sol\":62:992  contract ErrorTest {\r... */\n      mstore(0x40, 0x80)\n      callvalue\n      dup1\n      iszero\n      tag_1\n      jumpi\n      0x00\n      dup1\n      revert\n    tag_1:\n      pop\n      jumpi(tag_2, lt(calldatasize, 0x04))\n      shr(0xe0, calldataload(0x00))\n      dup1\n      0x10c671d9\n      eq\n      tag_3\n      jumpi\n      dup1\n      0x20987767\n      eq\n      tag_4\n      jumpi\n      dup1\n      0x3d2d2c90\n      eq\n      tag_5\n      jumpi\n      dup1\n      0x4e70b1dc\n      eq\n      tag_6\n      jumpi\n      dup1\n      0xb8bd717f\n      eq\n      tag_7\n      jumpi\n      dup1\n      0xf18650d4\n      eq\n      tag_8\n      jumpi\n    tag_2:\n      0x00\n      dup1\n      revert\n        /* \"lessons/ErrorRequireRevertAssert.sol\":557:631  function numFun() public view {\r... */\n    tag_3:\n      tag_9\n      tag_10\n      jump\t// in\n    tag_9:\n      stop\n        /* \"lessons/ErrorRequireRevertAssert.sol\":269:481  function testRevert(uint _x) public pure {\r... */\n    tag_4:\n      tag_11\n      0x04\n      dup1\n      calldatasize\n      sub\n      dup2\n      add\n      swap1\n      tag_12\n      swap2\n      swap1\n      tag_13\n      jump\t// in\n    tag_12:\n      tag_14\n      jump\t// in\n    tag_11:\n      stop\n        /* \"lessons/ErrorRequireRevertAssert.sol\":641:839  function ornek() public {\r... */\n    tag_5:\n      tag_15\n      tag_16\n      jump\t// in\n    tag_15:\n      stop\n        /* \"lessons/ErrorRequireRevertAssert.sol\":497:516  uint public num=123 */\n    tag_6:\n      tag_17\n      tag_18\n      jump\t// in\n    tag_17:\n      mload(0x40)\n      tag_19\n      swap2\n      swap1\n      tag_20\n      jump\t// in\n    tag_19:\n      mload(0x40)\n      dup1\n      swap2\n      sub\n      swap1\n      return\n        /* \"lessons/ErrorRequireRevertAssert.sol\":90:263  function testRequire(uint _x) public pure {\r... */\n    tag_7:\n      tag_21\n      0x04\n      dup1\n      calldatasize\n      sub\n      dup2\n      add\n      swap1\n      tag_22\n      swap2\n      swap1\n      tag_13\n      jump\t// in\n    tag_22:\n      tag_23\n      jump\t// in\n    tag_21:\n      stop\n        /* \"lessons/ErrorRequireRevertAssert.sol\":869:977  function myError(uint _y) public pure{\r... */\n    tag_8:\n      tag_24\n      0x04\n      dup1\n      calldatasize\n      sub\n      dup2\n      add\n      swap1\n      tag_25\n      swap2\n      swap1\n      tag_13\n      jump\t// in\n    tag_25:\n      tag_26\n      jump\t// in\n    tag_24:\n      stop\n        /* \"lessons/ErrorRequireRevertAssert.sol\":557:631  function numFun() public view {\r... */\n    tag_10:\n        /* \"lessons/ErrorRequireRevertAssert.sol\":615:618  123 */\n      0x7b\n        /* \"lessons/ErrorRequireRevertAssert.sol\":610:613  num */\n      sload(0x00)\n        /* \"lessons/ErrorRequireRevertAssert.sol\":610:618  num==123 */\n      eq\n        /* \"lessons/ErrorRequireRevertAssert.sol\":602:619  assert (num==123) */\n      tag_28\n      jumpi\n      tag_29\n      tag_30\n      jump\t// in\n    tag_29:\n    tag_28:\n        /* \"lessons/ErrorRequireRevertAssert.sol\":557:631  function numFun() public view {\r... */\n      jump\t// out\n        /* \"lessons/ErrorRequireRevertAssert.sol\":269:481  function testRevert(uint _x) public pure {\r... */\n    tag_14:\n        /* \"lessons/ErrorRequireRevertAssert.sol\":327:329  10 */\n      0x0a\n        /* \"lessons/ErrorRequireRevertAssert.sol\":324:326  _x */\n      dup2\n        /* \"lessons/ErrorRequireRevertAssert.sol\":324:329  _x>10 */\n      gt\n        /* \"lessons/ErrorRequireRevertAssert.sol\":321:474  if(_x>10){\r... */\n      iszero\n      tag_32\n      jumpi\n        /* \"lessons/ErrorRequireRevertAssert.sol\":345:374  revert (\"_x greater than 10\") */\n      mload(0x40)\n      0x08c379a000000000000000000000000000000000000000000000000000000000\n      dup2\n      mstore\n      0x04\n      add\n      tag_33\n      swap1\n      tag_34\n      jump\t// in\n    tag_33:\n      mload(0x40)\n      dup1\n      swap2\n      sub\n      swap1\n      revert\n        /* \"lessons/ErrorRequireRevertAssert.sol\":321:474  if(_x>10){\r... */\n    tag_32:\n        /* \"lessons/ErrorRequireRevertAssert.sol\":399:401  20 */\n      0x14\n        /* \"lessons/ErrorRequireRevertAssert.sol\":396:398  _x */\n      dup2\n        /* \"lessons/ErrorRequireRevertAssert.sol\":396:401  _x>20 */\n      gt\n        /* \"lessons/ErrorRequireRevertAssert.sol\":392:474  if (_x>20){\r... */\n      iszero\n      tag_36\n      jumpi\n        /* \"lessons/ErrorRequireRevertAssert.sol\":417:446  revert (\"_x greater than 20\") */\n      mload(0x40)\n      0x08c379a000000000000000000000000000000000000000000000000000000000\n      dup2\n      mstore\n      0x04\n      add\n      tag_37\n      swap1\n      tag_38\n      jump\t// in\n    tag_37:\n      mload(0x40)\n      dup1\n      swap2\n      sub\n      swap1\n      revert\n        /* \"lessons/ErrorRequireRevertAssert.sol\":392:474  if (_x>20){\r... */\n    tag_36:\n        /* \"lessons/ErrorRequireRevertAssert.sol\":269:481  function testRevert(uint _x) public pure {\r... */\n      pop\n      jump\t// out\n        /* \"lessons/ErrorRequireRevertAssert.sol\":641:839  function ornek() public {\r... */\n    tag_16:\n        /* \"lessons/ErrorRequireRevertAssert.sol\":685:686  1 */\n      0x01\n        /* \"lessons/ErrorRequireRevertAssert.sol\":680:683  num */\n      0x00\n      dup1\n        /* \"lessons/ErrorRequireRevertAssert.sol\":680:686  num+=1 */\n      dup3\n      dup3\n      sload\n      tag_41\n      swap2\n      swap1\n      tag_42\n      jump\t// in\n    tag_41:\n      swap3\n      pop\n      pop\n      dup2\n      swap1\n      sstore\n      pop\n        /* \"lessons/ErrorRequireRevertAssert.sol\":641:839  function ornek() public {\r... */\n      jump\t// out\n        /* \"lessons/ErrorRequireRevertAssert.sol\":497:516  uint public num=123 */\n    tag_18:\n      sload(0x00)\n      dup2\n      jump\t// out\n        /* \"lessons/ErrorRequireRevertAssert.sol\":90:263  function testRequire(uint _x) public pure {\r... */\n    tag_23:\n        /* \"lessons/ErrorRequireRevertAssert.sol\":156:158  10 */\n      0x0a\n        /* \"lessons/ErrorRequireRevertAssert.sol\":152:154  _x */\n      dup2\n        /* \"lessons/ErrorRequireRevertAssert.sol\":152:158  _x<=10 */\n      gt\n      iszero\n        /* \"lessons/ErrorRequireRevertAssert.sol\":143:182  require (_x<=10, \"_x greater than 10\" ) */\n      tag_44\n      jumpi\n      mload(0x40)\n      0x08c379a000000000000000000000000000000000000000000000000000000000\n      dup2\n      mstore\n      0x04\n      add\n      tag_45\n      swap1\n      tag_34\n      jump\t// in\n    tag_45:\n      mload(0x40)\n      dup1\n      swap2\n      sub\n      swap1\n      revert\n    tag_44:\n        /* \"lessons/ErrorRequireRevertAssert.sol\":90:263  function testRequire(uint _x) public pure {\r... */\n      pop\n      jump\t// out\n        /* \"lessons/ErrorRequireRevertAssert.sol\":869:977  function myError(uint _y) public pure{\r... */\n    tag_26:\n        /* \"lessons/ErrorRequireRevertAssert.sol\":924:926  10 */\n      0x0a\n        /* \"lessons/ErrorRequireRevertAssert.sol\":921:923  _y */\n      dup2\n        /* \"lessons/ErrorRequireRevertAssert.sol\":921:926  _y>10 */\n      gt\n        /* \"lessons/ErrorRequireRevertAssert.sol\":917:970  if (_y>10){\r... */\n      iszero\n      tag_47\n      jumpi\n        /* \"lessons/ErrorRequireRevertAssert.sol\":949:958  MyError() */\n      mload(0x40)\n      0xdd6c951c00000000000000000000000000000000000000000000000000000000\n      dup2\n      mstore\n      0x04\n      add\n      mload(0x40)\n      dup1\n      swap2\n      sub\n      swap1\n      revert\n        /* \"lessons/ErrorRequireRevertAssert.sol\":917:970  if (_y>10){\r... */\n    tag_47:\n        /* \"lessons/ErrorRequireRevertAssert.sol\":869:977  function myError(uint _y) public pure{\r... */\n      pop\n      jump\t// out\n        /* \"#utility.yul\":7:146   */\n    tag_49:\n        /* \"#utility.yul\":53:58   */\n      0x00\n        /* \"#utility.yul\":91:97   */\n      dup2\n        /* \"#utility.yul\":78:98   */\n      calldataload\n        /* \"#utility.yul\":69:98   */\n      swap1\n      pop\n        /* \"#utility.yul\":107:140   */\n      tag_51\n        /* \"#utility.yul\":134:139   */\n      dup2\n        /* \"#utility.yul\":107:140   */\n      tag_52\n      jump\t// in\n    tag_51:\n        /* \"#utility.yul\":7:146   */\n      swap3\n      swap2\n      pop\n      pop\n      jump\t// out\n        /* \"#utility.yul\":152:481   */\n    tag_13:\n        /* \"#utility.yul\":211:217   */\n      0x00\n        /* \"#utility.yul\":260:262   */\n      0x20\n        /* \"#utility.yul\":248:257   */\n      dup3\n        /* \"#utility.yul\":239:246   */\n      dup5\n        /* \"#utility.yul\":235:258   */\n      sub\n        /* \"#utility.yul\":231:263   */\n      slt\n        /* \"#utility.yul\":228:347   */\n      iszero\n      tag_54\n      jumpi\n        /* \"#utility.yul\":266:345   */\n      tag_55\n      tag_56\n      jump\t// in\n    tag_55:\n        /* \"#utility.yul\":228:347   */\n    tag_54:\n        /* \"#utility.yul\":386:387   */\n      0x00\n        /* \"#utility.yul\":411:464   */\n      tag_57\n        /* \"#utility.yul\":456:463   */\n      dup5\n        /* \"#utility.yul\":447:453   */\n      dup3\n        /* \"#utility.yul\":436:445   */\n      dup6\n        /* \"#utility.yul\":432:454   */\n      add\n        /* \"#utility.yul\":411:464   */\n      tag_49\n      jump\t// in\n    tag_57:\n        /* \"#utility.yul\":401:464   */\n      swap2\n      pop\n        /* \"#utility.yul\":357:474   */\n      pop\n        /* \"#utility.yul\":152:481   */\n      swap3\n      swap2\n      pop\n      pop\n      jump\t// out\n        /* \"#utility.yul\":487:853   */\n    tag_58:\n        /* \"#utility.yul\":629:632   */\n      0x00\n        /* \"#utility.yul\":650:717   */\n      tag_60\n        /* \"#utility.yul\":714:716   */\n      0x12\n        /* \"#utility.yul\":709:712   */\n      dup4\n        /* \"#utility.yul\":650:717   */\n      tag_61\n      jump\t// in\n    tag_60:\n        /* \"#utility.yul\":643:717   */\n      swap2\n      pop\n        /* \"#utility.yul\":726:819   */\n      tag_62\n        /* \"#utility.yul\":815:818   */\n      dup3\n        /* \"#utility.yul\":726:819   */\n      tag_63\n      jump\t// in\n    tag_62:\n        /* \"#utility.yul\":844:846   */\n      0x20\n        /* \"#utility.yul\":839:842   */\n      dup3\n        /* \"#utility.yul\":835:847   */\n      add\n        /* \"#utility.yul\":828:847   */\n      swap1\n      pop\n        /* \"#utility.yul\":487:853   */\n      swap2\n      swap1\n      pop\n      jump\t// out\n        /* \"#utility.yul\":859:1225   */\n    tag_64:\n        /* \"#utility.yul\":1001:1004   */\n      0x00\n        /* \"#utility.yul\":1022:1089   */\n      tag_66\n        /* \"#utility.yul\":1086:1088   */\n      0x12\n        /* \"#utility.yul\":1081:1084   */\n      dup4\n        /* \"#utility.yul\":1022:1089   */\n      tag_61\n      jump\t// in\n    tag_66:\n        /* \"#utility.yul\":1015:1089   */\n      swap2\n      pop\n        /* \"#utility.yul\":1098:1191   */\n      tag_67\n        /* \"#utility.yul\":1187:1190   */\n      dup3\n        /* \"#utility.yul\":1098:1191   */\n      tag_68\n      jump\t// in\n    tag_67:\n        /* \"#utility.yul\":1216:1218   */\n      0x20\n        /* \"#utility.yul\":1211:1214   */\n      dup3\n        /* \"#utility.yul\":1207:1219   */\n      add\n        /* \"#utility.yul\":1200:1219   */\n      swap1\n      pop\n        /* \"#utility.yul\":859:1225   */\n      swap2\n      swap1\n      pop\n      jump\t// out\n        /* \"#utility.yul\":1231:1349   */\n    tag_69:\n        /* \"#utility.yul\":1318:1342   */\n      tag_71\n        /* \"#utility.yul\":1336:1341   */\n      dup2\n        /* \"#utility.yul\":1318:1342   */\n      tag_72\n      jump\t// in\n    tag_71:\n        /* \"#utility.yul\":1313:1316   */\n      dup3\n        /* \"#utility.yul\":1306:1343   */\n      mstore\n        /* \"#utility.yul\":1231:1349   */\n      pop\n      pop\n      jump\t// out\n        /* \"#utility.yul\":1355:1774   */\n    tag_38:\n        /* \"#utility.yul\":1521:1525   */\n      0x00\n        /* \"#utility.yul\":1559:1561   */\n      0x20\n        /* \"#utility.yul\":1548:1557   */\n      dup3\n        /* \"#utility.yul\":1544:1562   */\n      add\n        /* \"#utility.yul\":1536:1562   */\n      swap1\n      pop\n        /* \"#utility.yul\":1608:1617   */\n      dup2\n        /* \"#utility.yul\":1602:1606   */\n      dup2\n        /* \"#utility.yul\":1598:1618   */\n      sub\n        /* \"#utility.yul\":1594:1595   */\n      0x00\n        /* \"#utility.yul\":1583:1592   */\n      dup4\n        /* \"#utility.yul\":1579:1596   */\n      add\n        /* \"#utility.yul\":1572:1619   */\n      mstore\n        /* \"#utility.yul\":1636:1767   */\n      tag_74\n        /* \"#utility.yul\":1762:1766   */\n      dup2\n        /* \"#utility.yul\":1636:1767   */\n      tag_58\n      jump\t// in\n    tag_74:\n        /* \"#utility.yul\":1628:1767   */\n      swap1\n      pop\n        /* \"#utility.yul\":1355:1774   */\n      swap2\n      swap1\n      pop\n      jump\t// out\n        /* \"#utility.yul\":1780:2199   */\n    tag_34:\n        /* \"#utility.yul\":1946:1950   */\n      0x00\n        /* \"#utility.yul\":1984:1986   */\n      0x20\n        /* \"#utility.yul\":1973:1982   */\n      dup3\n        /* \"#utility.yul\":1969:1987   */\n      add\n        /* \"#utility.yul\":1961:1987   */\n      swap1\n      pop\n        /* \"#utility.yul\":2033:2042   */\n      dup2\n        /* \"#utility.yul\":2027:2031   */\n      dup2\n        /* \"#utility.yul\":2023:2043   */\n      sub\n        /* \"#utility.yul\":2019:2020   */\n      0x00\n        /* \"#utility.yul\":2008:2017   */\n      dup4\n        /* \"#utility.yul\":2004:2021   */\n      add\n        /* \"#utility.yul\":1997:2044   */\n      mstore\n        /* \"#utility.yul\":2061:2192   */\n      tag_76\n        /* \"#utility.yul\":2187:2191   */\n      dup2\n        /* \"#utility.yul\":2061:2192   */\n      tag_64\n      jump\t// in\n    tag_76:\n        /* \"#utility.yul\":2053:2192   */\n      swap1\n      pop\n        /* \"#utility.yul\":1780:2199   */\n      swap2\n      swap1\n      pop\n      jump\t// out\n        /* \"#utility.yul\":2205:2427   */\n    tag_20:\n        /* \"#utility.yul\":2298:2302   */\n      0x00\n        /* \"#utility.yul\":2336:2338   */\n      0x20\n        /* \"#utility.yul\":2325:2334   */\n      dup3\n        /* \"#utility.yul\":2321:2339   */\n      add\n        /* \"#utility.yul\":2313:2339   */\n      swap1\n      pop\n        /* \"#utility.yul\":2349:2420   */\n      tag_78\n        /* \"#utility.yul\":2417:2418   */\n      0x00\n        /* \"#utility.yul\":2406:2415   */\n      dup4\n        /* \"#utility.yul\":2402:2419   */\n      add\n        /* \"#utility.yul\":2393:2399   */\n      dup5\n        /* \"#utility.yul\":2349:2420   */\n      tag_69\n      jump\t// in\n    tag_78:\n        /* \"#utility.yul\":2205:2427   */\n      swap3\n      swap2\n      pop\n      pop\n      jump\t// out\n        /* \"#utility.yul\":2514:2683   */\n    tag_61:\n        /* \"#utility.yul\":2598:2609   */\n      0x00\n        /* \"#utility.yul\":2632:2638   */\n      dup3\n        /* \"#utility.yul\":2627:2630   */\n      dup3\n        /* \"#utility.yul\":2620:2639   */\n      mstore\n        /* \"#utility.yul\":2672:2676   */\n      0x20\n        /* \"#utility.yul\":2667:2670   */\n      dup3\n        /* \"#utility.yul\":2663:2677   */\n      add\n        /* \"#utility.yul\":2648:2677   */\n      swap1\n      pop\n        /* \"#utility.yul\":2514:2683   */\n      swap3\n      swap2\n      pop\n      pop\n      jump\t// out\n        /* \"#utility.yul\":2689:2994   */\n    tag_42:\n        /* \"#utility.yul\":2729:2732   */\n      0x00\n        /* \"#utility.yul\":2748:2768   */\n      tag_83\n        /* \"#utility.yul\":2766:2767   */\n      dup3\n        /* \"#utility.yul\":2748:2768   */\n      tag_72\n      jump\t// in\n    tag_83:\n        /* \"#utility.yul\":2743:2768   */\n      swap2\n      pop\n        /* \"#utility.yul\":2782:2802   */\n      tag_84\n        /* \"#utility.yul\":2800:2801   */\n      dup4\n        /* \"#utility.yul\":2782:2802   */\n      tag_72\n      jump\t// in\n    tag_84:\n        /* \"#utility.yul\":2777:2802   */\n      swap3\n      pop\n        /* \"#utility.yul\":2936:2937   */\n      dup3\n        /* \"#utility.yul\":2868:2934   */\n      0xffffffffffffffffffffffffffffffffffffffffffffffffffffffffffffffff\n        /* \"#utility.yul\":2864:2938   */\n      sub\n        /* \"#utility.yul\":2861:2862   */\n      dup3\n        /* \"#utility.yul\":2858:2939   */\n      gt\n        /* \"#utility.yul\":2855:2962   */\n      iszero\n      tag_85\n      jumpi\n        /* \"#utility.yul\":2942:2960   */\n      tag_86\n      tag_87\n      jump\t// in\n    tag_86:\n        /* \"#utility.yul\":2855:2962   */\n    tag_85:\n        /* \"#utility.yul\":2986:2987   */\n      dup3\n        /* \"#utility.yul\":2983:2984   */\n      dup3\n        /* \"#utility.yul\":2979:2988   */\n      add\n        /* \"#utility.yul\":2972:2988   */\n      swap1\n      pop\n        /* \"#utility.yul\":2689:2994   */\n      swap3\n      swap2\n      pop\n      pop\n      jump\t// out\n        /* \"#utility.yul\":3000:3077   */\n    tag_72:\n        /* \"#utility.yul\":3037:3044   */\n      0x00\n        /* \"#utility.yul\":3066:3071   */\n      dup2\n        /* \"#utility.yul\":3055:3071   */\n      swap1\n      pop\n        /* \"#utility.yul\":3000:3077   */\n      swap2\n      swap1\n      pop\n      jump\t// out\n        /* \"#utility.yul\":3083:3263   */\n    tag_30:\n        /* \"#utility.yul\":3131:3208   */\n      0x4e487b7100000000000000000000000000000000000000000000000000000000\n        /* \"#utility.yul\":3128:3129   */\n      0x00\n        /* \"#utility.yul\":3121:3209   */\n      mstore\n        /* \"#utility.yul\":3228:3232   */\n      0x01\n        /* \"#utility.yul\":3225:3226   */\n      0x04\n        /* \"#utility.yul\":3218:3233   */\n      mstore\n        /* \"#utility.yul\":3252:3256   */\n      0x24\n        /* \"#utility.yul\":3249:3250   */\n      0x00\n        /* \"#utility.yul\":3242:3257   */\n      revert\n        /* \"#utility.yul\":3269:3449   */\n    tag_87:\n        /* \"#utility.yul\":3317:3394   */\n      0x4e487b7100000000000000000000000000000000000000000000000000000000\n        /* \"#utility.yul\":3314:3315   */\n      0x00\n        /* \"#utility.yul\":3307:3395   */\n      mstore\n        /* \"#utility.yul\":3414:3418   */\n      0x11\n        /* \"#utility.yul\":3411:3412   */\n      0x04\n        /* \"#utility.yul\":3404:3419   */\n      mstore\n        /* \"#utility.yul\":3438:3442   */\n      0x24\n        /* \"#utility.yul\":3435:3436   */\n      0x00\n        /* \"#utility.yul\":3428:3443   */\n      revert\n        /* \"#utility.yul\":3578:3695   */\n    tag_56:\n        /* \"#utility.yul\":3687:3688   */\n      0x00\n        /* \"#utility.yul\":3684:3685   */\n      dup1\n        /* \"#utility.yul\":3677:3689   */\n      revert\n        /* \"#utility.yul\":3701:3869   */\n    tag_63:\n        /* \"#utility.yul\":3841:3861   */\n      0x5f782067726561746572207468616e2032300000000000000000000000000000\n        /* \"#utility.yul\":3837:3838   */\n      0x00\n        /* \"#utility.yul\":3829:3835   */\n      dup3\n        /* \"#utility.yul\":3825:3839   */\n      add\n        /* \"#utility.yul\":3818:3862   */\n      mstore\n        /* \"#utility.yul\":3701:3869   */\n      pop\n      jump\t// out\n        /* \"#utility.yul\":3875:4043   */\n    tag_68:\n        /* \"#utility.yul\":4015:4035   */\n      0x5f782067726561746572207468616e2031300000000000000000000000000000\n        /* \"#utility.yul\":4011:4012   */\n      0x00\n        /* \"#utility.yul\":4003:4009   */\n      dup3\n        /* \"#utility.yul\":3999:4013   */\n      add\n        /* \"#utility.yul\":3992:4036   */\n      mstore\n        /* \"#utility.yul\":3875:4043   */\n      pop\n      jump\t// out\n        /* \"#utility.yul\":4049:4171   */\n    tag_52:\n        /* \"#utility.yul\":4122:4146   */\n      tag_97\n        /* \"#utility.yul\":4140:4145   */\n      dup2\n        /* \"#utility.yul\":4122:4146   */\n      tag_72\n      jump\t// in\n    tag_97:\n        /* \"#utility.yul\":4115:4120   */\n      dup2\n        /* \"#utility.yul\":4112:4147   */\n      eq\n        /* \"#utility.yul\":4102:4165   */\n      tag_98\n      jumpi\n        /* \"#utility.yul\":4161:4162   */\n      0x00\n        /* \"#utility.yul\":4158:4159   */\n      dup1\n        /* \"#utility.yul\":4151:4163   */\n      revert\n        /* \"#utility.yul\":4102:4165   */\n    tag_98:\n        /* \"#utility.yul\":4049:4171   */\n      pop\n      jump\t// out\n\n    auxdata: 0xa264697066735822122097d7c533c2457cca19a330325a91fab332bcd02e95fdae4b0a311e0621b3692d64736f6c63430008070033\n}\n",
				"bytecode": {
					"linkReferences": {},
					"object": "6080604052607b60005534801561001557600080fd5b50610498806100256000396000f3fe608060405234801561001057600080fd5b50600436106100625760003560e01c806310c671d91461006757806320987767146100715780633d2d2c901461008d5780634e70b1dc14610097578063b8bd717f146100b5578063f18650d4146100d1575b600080fd5b61006f6100ed565b005b61008b60048036038101906100869190610248565b610102565b005b61009561018d565b005b61009f6101a8565b6040516100ac919061030a565b60405180910390f35b6100cf60048036038101906100ca9190610248565b6101ae565b005b6100eb60048036038101906100e69190610248565b6101f5565b005b607b60005414610100576100ff610396565b5b565b600a811115610146576040517f08c379a000000000000000000000000000000000000000000000000000000000815260040161013d906102ea565b60405180910390fd5b601481111561018a576040517f08c379a0000000000000000000000000000000000000000000000000000000008152600401610181906102ca565b60405180910390fd5b50565b600160008082825461019f9190610336565b92505081905550565b60005481565b600a8111156101f2576040517f08c379a00000000000000000000000000000000000000000000000000000000081526004016101e9906102ea565b60405180910390fd5b50565b600a811115610230576040517fdd6c951c00000000000000000000000000000000000000000000000000000000815260040160405180910390fd5b50565b6000813590506102428161044b565b92915050565b60006020828403121561025e5761025d6103f4565b5b600061026c84828501610233565b91505092915050565b6000610282601283610325565b915061028d826103f9565b602082019050919050565b60006102a5601283610325565b91506102b082610422565b602082019050919050565b6102c48161038c565b82525050565b600060208201905081810360008301526102e381610275565b9050919050565b6000602082019050818103600083015261030381610298565b9050919050565b600060208201905061031f60008301846102bb565b92915050565b600082825260208201905092915050565b60006103418261038c565b915061034c8361038c565b9250827fffffffffffffffffffffffffffffffffffffffffffffffffffffffffffffffff03821115610381576103806103c5565b5b828201905092915050565b6000819050919050565b7f4e487b7100000000000000000000000000000000000000000000000000000000600052600160045260246000fd5b7f4e487b7100000000000000000000000000000000000000000000000000000000600052601160045260246000fd5b600080fd5b7f5f782067726561746572207468616e2032300000000000000000000000000000600082015250565b7f5f782067726561746572207468616e2031300000000000000000000000000000600082015250565b6104548161038c565b811461045f57600080fd5b5056fea264697066735822122097d7c533c2457cca19a330325a91fab332bcd02e95fdae4b0a311e0621b3692d64736f6c63430008070033",
					"opcodes": "PUSH1 0x80 PUSH1 0x40 MSTORE PUSH1 0x7B PUSH1 0x0 SSTORE CALLVALUE DUP1 ISZERO PUSH2 0x15 JUMPI PUSH1 0x0 DUP1 REVERT JUMPDEST POP PUSH2 0x498 DUP1 PUSH2 0x25 PUSH1 0x0 CODECOPY PUSH1 0x0 RETURN INVALID PUSH1 0x80 PUSH1 0x40 MSTORE CALLVALUE DUP1 ISZERO PUSH2 0x10 JUMPI PUSH1 0x0 DUP1 REVERT JUMPDEST POP PUSH1 0x4 CALLDATASIZE LT PUSH2 0x62 JUMPI PUSH1 0x0 CALLDATALOAD PUSH1 0xE0 SHR DUP1 PUSH4 0x10C671D9 EQ PUSH2 0x67 JUMPI DUP1 PUSH4 0x20987767 EQ PUSH2 0x71 JUMPI DUP1 PUSH4 0x3D2D2C90 EQ PUSH2 0x8D JUMPI DUP1 PUSH4 0x4E70B1DC EQ PUSH2 0x97 JUMPI DUP1 PUSH4 0xB8BD717F EQ PUSH2 0xB5 JUMPI DUP1 PUSH4 0xF18650D4 EQ PUSH2 0xD1 JUMPI JUMPDEST PUSH1 0x0 DUP1 REVERT JUMPDEST PUSH2 0x6F PUSH2 0xED JUMP JUMPDEST STOP JUMPDEST PUSH2 0x8B PUSH1 0x4 DUP1 CALLDATASIZE SUB DUP2 ADD SWAP1 PUSH2 0x86 SWAP2 SWAP1 PUSH2 0x248 JUMP JUMPDEST PUSH2 0x102 JUMP JUMPDEST STOP JUMPDEST PUSH2 0x95 PUSH2 0x18D JUMP JUMPDEST STOP JUMPDEST PUSH2 0x9F PUSH2 0x1A8 JUMP JUMPDEST PUSH1 0x40 MLOAD PUSH2 0xAC SWAP2 SWAP1 PUSH2 0x30A JUMP JUMPDEST PUSH1 0x40 MLOAD DUP1 SWAP2 SUB SWAP1 RETURN JUMPDEST PUSH2 0xCF PUSH1 0x4 DUP1 CALLDATASIZE SUB DUP2 ADD SWAP1 PUSH2 0xCA SWAP2 SWAP1 PUSH2 0x248 JUMP JUMPDEST PUSH2 0x1AE JUMP JUMPDEST STOP JUMPDEST PUSH2 0xEB PUSH1 0x4 DUP1 CALLDATASIZE SUB DUP2 ADD SWAP1 PUSH2 0xE6 SWAP2 SWAP1 PUSH2 0x248 JUMP JUMPDEST PUSH2 0x1F5 JUMP JUMPDEST STOP JUMPDEST PUSH1 0x7B PUSH1 0x0 SLOAD EQ PUSH2 0x100 JUMPI PUSH2 0xFF PUSH2 0x396 JUMP JUMPDEST JUMPDEST JUMP JUMPDEST PUSH1 0xA DUP2 GT ISZERO PUSH2 0x146 JUMPI PUSH1 0x40 MLOAD PUSH32 0x8C379A000000000000000000000000000000000000000000000000000000000 DUP2 MSTORE PUSH1 0x4 ADD PUSH2 0x13D SWAP1 PUSH2 0x2EA JUMP JUMPDEST PUSH1 0x40 MLOAD DUP1 SWAP2 SUB SWAP1 REVERT JUMPDEST PUSH1 0x14 DUP2 GT ISZERO PUSH2 0x18A JUMPI PUSH1 0x40 MLOAD PUSH32 0x8C379A000000000000000000000000000000000000000000000000000000000 DUP2 MSTORE PUSH1 0x4 ADD PUSH2 0x181 SWAP1 PUSH2 0x2CA JUMP JUMPDEST PUSH1 0x40 MLOAD DUP1 SWAP2 SUB SWAP1 REVERT JUMPDEST POP JUMP JUMPDEST PUSH1 0x1 PUSH1 0x0 DUP1 DUP3 DUP3 SLOAD PUSH2 0x19F SWAP2 SWAP1 PUSH2 0x336 JUMP JUMPDEST SWAP3 POP POP DUP2 SWAP1 SSTORE POP JUMP JUMPDEST PUSH1 0x0 SLOAD DUP2 JUMP JUMPDEST PUSH1 0xA DUP2 GT ISZERO PUSH2 0x1F2 JUMPI PUSH1 0x40 MLOAD PUSH32 0x8C379A000000000000000000000000000000000000000000000000000000000 DUP2 MSTORE PUSH1 0x4 ADD PUSH2 0x1E9 SWAP1 PUSH2 0x2EA JUMP JUMPDEST PUSH1 0x40 MLOAD DUP1 SWAP2 SUB SWAP1 REVERT JUMPDEST POP JUMP JUMPDEST PUSH1 0xA DUP2 GT ISZERO PUSH2 0x230 JUMPI PUSH1 0x40 MLOAD PUSH32 0xDD6C951C00000000000000000000000000000000000000000000000000000000 DUP2 MSTORE PUSH1 0x4 ADD PUSH1 0x40 MLOAD DUP1 SWAP2 SUB SWAP1 REVERT JUMPDEST POP JUMP JUMPDEST PUSH1 0x0 DUP2 CALLDATALOAD SWAP1 POP PUSH2 0x242 DUP2 PUSH2 0x44B JUMP JUMPDEST SWAP3 SWAP2 POP POP JUMP JUMPDEST PUSH1 0x0 PUSH1 0x20 DUP3 DUP5 SUB SLT ISZERO PUSH2 0x25E JUMPI PUSH2 0x25D PUSH2 0x3F4 JUMP JUMPDEST JUMPDEST PUSH1 0x0 PUSH2 0x26C DUP5 DUP3 DUP6 ADD PUSH2 0x233 JUMP JUMPDEST SWAP2 POP POP SWAP3 SWAP2 POP POP JUMP JUMPDEST PUSH1 0x0 PUSH2 0x282 PUSH1 0x12 DUP4 PUSH2 0x325 JUMP JUMPDEST SWAP2 POP PUSH2 0x28D DUP3 PUSH2 0x3F9 JUMP JUMPDEST PUSH1 0x20 DUP3 ADD SWAP1 POP SWAP2 SWAP1 POP JUMP JUMPDEST PUSH1 0x0 PUSH2 0x2A5 PUSH1 0x12 DUP4 PUSH2 0x325 JUMP JUMPDEST SWAP2 POP PUSH2 0x2B0 DUP3 PUSH2 0x422 JUMP JUMPDEST PUSH1 0x20 DUP3 ADD SWAP1 POP SWAP2 SWAP1 POP JUMP JUMPDEST PUSH2 0x2C4 DUP2 PUSH2 0x38C JUMP JUMPDEST DUP3 MSTORE POP POP JUMP JUMPDEST PUSH1 0x0 PUSH1 0x20 DUP3 ADD SWAP1 POP DUP2 DUP2 SUB PUSH1 0x0 DUP4 ADD MSTORE PUSH2 0x2E3 DUP2 PUSH2 0x275 JUMP JUMPDEST SWAP1 POP SWAP2 SWAP1 POP JUMP JUMPDEST PUSH1 0x0 PUSH1 0x20 DUP3 ADD SWAP1 POP DUP2 DUP2 SUB PUSH1 0x0 DUP4 ADD MSTORE PUSH2 0x303 DUP2 PUSH2 0x298 JUMP JUMPDEST SWAP1 POP SWAP2 SWAP1 POP JUMP JUMPDEST PUSH1 0x0 PUSH1 0x20 DUP3 ADD SWAP1 POP PUSH2 0x31F PUSH1 0x0 DUP4 ADD DUP5 PUSH2 0x2BB JUMP JUMPDEST SWAP3 SWAP2 POP POP JUMP JUMPDEST PUSH1 0x0 DUP3 DUP3 MSTORE PUSH1 0x20 DUP3 ADD SWAP1 POP SWAP3 SWAP2 POP POP JUMP JUMPDEST PUSH1 0x0 PUSH2 0x341 DUP3 PUSH2 0x38C JUMP JUMPDEST SWAP2 POP PUSH2 0x34C DUP4 PUSH2 0x38C JUMP JUMPDEST SWAP3 POP DUP3 PUSH32 0xFFFFFFFFFFFFFFFFFFFFFFFFFFFFFFFFFFFFFFFFFFFFFFFFFFFFFFFFFFFFFFFF SUB DUP3 GT ISZERO PUSH2 0x381 JUMPI PUSH2 0x380 PUSH2 0x3C5 JUMP JUMPDEST JUMPDEST DUP3 DUP3 ADD SWAP1 POP SWAP3 SWAP2 POP POP JUMP JUMPDEST PUSH1 0x0 DUP2 SWAP1 POP SWAP2 SWAP1 POP JUMP JUMPDEST PUSH32 0x4E487B7100000000000000000000000000000000000000000000000000000000 PUSH1 0x0 MSTORE PUSH1 0x1 PUSH1 0x4 MSTORE PUSH1 0x24 PUSH1 0x0 REVERT JUMPDEST PUSH32 0x4E487B7100000000000000000000000000000000000000000000000000000000 PUSH1 0x0 MSTORE PUSH1 0x11 PUSH1 0x4 MSTORE PUSH1 0x24 PUSH1 0x0 REVERT JUMPDEST PUSH1 0x0 DUP1 REVERT JUMPDEST PUSH32 0x5F782067726561746572207468616E2032300000000000000000000000000000 PUSH1 0x0 DUP3 ADD MSTORE POP JUMP JUMPDEST PUSH32 0x5F782067726561746572207468616E2031300000000000000000000000000000 PUSH1 0x0 DUP3 ADD MSTORE POP JUMP JUMPDEST PUSH2 0x454 DUP2 PUSH2 0x38C JUMP JUMPDEST DUP2 EQ PUSH2 0x45F JUMPI PUSH1 0x0 DUP1 REVERT JUMPDEST POP JUMP INVALID LOG2 PUSH5 0x6970667358 0x22 SLT KECCAK256 SWAP8 0xD7 0xC5 CALLER 0xC2 GASLIMIT PUSH29 0xCA19A330325A91FAB332BCD02E95FDAE4B0A311E0621B3692D64736F6C PUSH4 0x43000807 STOP CALLER "
				},
				"gasEstimates": {
					"creation": {
						"codeDepositCost": "235200",
						"executionCost": "22381",
						"totalCost": "257581"
					},
					"external": {
						"myError(uint256)": "553",
						"num()": "2473",
						"numFun()": "2274",
						"ornek()": "infinite",
						"testRequire(uint256)": "785",
						"testRevert(uint256)": "745"
					}
				},
				"methodIdentifiers": {
					"myError(uint256)": "f18650d4",
					"num()": "4e70b1dc",
					"numFun()": "10c671d9",
					"ornek()": "3d2d2c90",
					"testRequire(uint256)": "b8bd717f",
					"testRevert(uint256)": "20987767"
				}
			},
			"storageLayout": {
				"storage": [
					{
						"astId": 42,
						"contract": "lessons/ErrorRequireRevertAssert.sol:ErrorTest",
						"label": "num",
						"offset": 0,
						"slot": "0",
						"type": "t_uint256"
					}
				],
				"types": {
					"t_uint256": {
						"encoding": "inplace",
						"label": "uint256",
						"numberOfBytes": "32"
					}
				}
			},
			"userdoc": {
				"kind": "user",
				"methods": {},
				"version": 1
			}
		}
	}
}