{
	"lessons/FunctionModifier.sol": {
		"FunctionModifier": {
			"abi": [
				{
					"inputs": [],
					"name": "count",
					"outputs": [
						{
							"internalType": "uint256",
							"name": "",
							"type": "uint256"
						}
					],
					"stateMutability": "view",
					"type": "function"
				},
				{
					"inputs": [],
					"name": "dec",
					"outputs": [],
					"stateMutability": "nonpayable",
					"type": "function"
				},
				{
					"inputs": [],
					"name": "inc",
					"outputs": [],
					"stateMutability": "nonpayable",
					"type": "function"
				},
				{
					"inputs": [],
					"name": "paused",
					"outputs": [
						{
							"internalType": "bool",
							"name": "",
							"type": "bool"
						}
					],
					"stateMutability": "view",
					"type": "function"
				}
			],
			"devdoc": {
				"kind": "dev",
				"methods": {},
				"version": 1
			},
			"evm": {
				"assembly": "    /* \"lessons/FunctionModifier.sol\":61:353  contract FunctionModifier{... */\n  mstore(0x40, 0x80)\n  callvalue\n  dup1\n  iszero\n  tag_1\n  jumpi\n  0x00\n  dup1\n  revert\ntag_1:\n  pop\n  dataSize(sub_0)\n  dup1\n  dataOffset(sub_0)\n  0x00\n  codecopy\n  0x00\n  return\nstop\n\nsub_0: assembly {\n        /* \"lessons/FunctionModifier.sol\":61:353  contract FunctionModifier{... */\n      mstore(0x40, 0x80)\n      callvalue\n      dup1\n      iszero\n      tag_1\n      jumpi\n      0x00\n      dup1\n      revert\n    tag_1:\n      pop\n      jumpi(tag_2, lt(calldatasize, 0x04))\n      shr(0xe0, calldataload(0x00))\n      dup1\n      0x06661abd\n      eq\n      tag_3\n      jumpi\n      dup1\n      0x371303c0\n      eq\n      tag_4\n      jumpi\n      dup1\n      0x5c975abb\n      eq\n      tag_5\n      jumpi\n      dup1\n      0xb3bcfa82\n      eq\n      tag_6\n      jumpi\n    tag_2:\n      0x00\n      dup1\n      revert\n        /* \"lessons/FunctionModifier.sol\":95:112  uint public count */\n    tag_3:\n      tag_7\n      tag_8\n      jump\t// in\n    tag_7:\n      mload(0x40)\n      tag_9\n      swap2\n      swap1\n      tag_10\n      jump\t// in\n    tag_9:\n      mload(0x40)\n      dup1\n      swap2\n      sub\n      swap1\n      return\n        /* \"lessons/FunctionModifier.sol\":230:287  function inc() public notPause{... */\n    tag_4:\n      tag_11\n      tag_12\n      jump\t// in\n    tag_11:\n      stop\n        /* \"lessons/FunctionModifier.sol\":119:137  bool public paused */\n    tag_5:\n      tag_13\n      tag_14\n      jump\t// in\n    tag_13:\n      mload(0x40)\n      tag_15\n      swap2\n      swap1\n      tag_16\n      jump\t// in\n    tag_15:\n      mload(0x40)\n      dup1\n      swap2\n      sub\n      swap1\n      return\n        /* \"lessons/FunctionModifier.sol\":293:350  function dec() public notPause{... */\n    tag_6:\n      tag_17\n      tag_18\n      jump\t// in\n    tag_17:\n      stop\n        /* \"lessons/FunctionModifier.sol\":95:112  uint public count */\n    tag_8:\n      sload(0x00)\n      dup2\n      jump\t// out\n        /* \"lessons/FunctionModifier.sol\":230:287  function inc() public notPause{... */\n    tag_12:\n        /* \"lessons/FunctionModifier.sol\":187:193  paused */\n      0x01\n      0x00\n      swap1\n      sload\n      swap1\n      0x0100\n      exp\n      swap1\n      div\n      0xff\n      and\n        /* \"lessons/FunctionModifier.sol\":178:204  require (paused, \"Paused\") */\n      tag_20\n      jumpi\n      mload(0x40)\n      0x08c379a000000000000000000000000000000000000000000000000000000000\n      dup2\n      mstore\n      0x04\n      add\n      tag_21\n      swap1\n      tag_22\n      jump\t// in\n    tag_21:\n      mload(0x40)\n      dup1\n      swap2\n      sub\n      swap1\n      revert\n    tag_20:\n        /* \"lessons/FunctionModifier.sol\":278:279  1 */\n      0x01\n        /* \"lessons/FunctionModifier.sol\":271:276  count */\n      0x00\n      dup1\n        /* \"lessons/FunctionModifier.sol\":271:279  count+=1 */\n      dup3\n      dup3\n      sload\n      tag_24\n      swap2\n      swap1\n      tag_25\n      jump\t// in\n    tag_24:\n      swap3\n      pop\n      pop\n      dup2\n      swap1\n      sstore\n      pop\n        /* \"lessons/FunctionModifier.sol\":230:287  function inc() public notPause{... */\n      jump\t// out\n        /* \"lessons/FunctionModifier.sol\":119:137  bool public paused */\n    tag_14:\n      0x01\n      0x00\n      swap1\n      sload\n      swap1\n      0x0100\n      exp\n      swap1\n      div\n      0xff\n      and\n      dup2\n      jump\t// out\n        /* \"lessons/FunctionModifier.sol\":293:350  function dec() public notPause{... */\n    tag_18:\n        /* \"lessons/FunctionModifier.sol\":187:193  paused */\n      0x01\n      0x00\n      swap1\n      sload\n      swap1\n      0x0100\n      exp\n      swap1\n      div\n      0xff\n      and\n        /* \"lessons/FunctionModifier.sol\":178:204  require (paused, \"Paused\") */\n      tag_27\n      jumpi\n      mload(0x40)\n      0x08c379a000000000000000000000000000000000000000000000000000000000\n      dup2\n      mstore\n      0x04\n      add\n      tag_28\n      swap1\n      tag_22\n      jump\t// in\n    tag_28:\n      mload(0x40)\n      dup1\n      swap2\n      sub\n      swap1\n      revert\n    tag_27:\n        /* \"lessons/FunctionModifier.sol\":341:342  1 */\n      0x01\n        /* \"lessons/FunctionModifier.sol\":334:339  count */\n      0x00\n      dup1\n        /* \"lessons/FunctionModifier.sol\":334:342  count-=1 */\n      dup3\n      dup3\n      sload\n      tag_30\n      swap2\n      swap1\n      tag_31\n      jump\t// in\n    tag_30:\n      swap3\n      pop\n      pop\n      dup2\n      swap1\n      sstore\n      pop\n        /* \"lessons/FunctionModifier.sol\":293:350  function dec() public notPause{... */\n      jump\t// out\n        /* \"#utility.yul\":7:84   */\n    tag_32:\n        /* \"#utility.yul\":44:51   */\n      0x00\n        /* \"#utility.yul\":73:78   */\n      dup2\n        /* \"#utility.yul\":62:78   */\n      swap1\n      pop\n        /* \"#utility.yul\":7:84   */\n      swap2\n      swap1\n      pop\n      jump\t// out\n        /* \"#utility.yul\":90:208   */\n    tag_33:\n        /* \"#utility.yul\":177:201   */\n      tag_43\n        /* \"#utility.yul\":195:200   */\n      dup2\n        /* \"#utility.yul\":177:201   */\n      tag_32\n      jump\t// in\n    tag_43:\n        /* \"#utility.yul\":172:175   */\n      dup3\n        /* \"#utility.yul\":165:202   */\n      mstore\n        /* \"#utility.yul\":90:208   */\n      pop\n      pop\n      jump\t// out\n        /* \"#utility.yul\":214:436   */\n    tag_10:\n        /* \"#utility.yul\":307:311   */\n      0x00\n        /* \"#utility.yul\":345:347   */\n      0x20\n        /* \"#utility.yul\":334:343   */\n      dup3\n        /* \"#utility.yul\":330:348   */\n      add\n        /* \"#utility.yul\":322:348   */\n      swap1\n      pop\n        /* \"#utility.yul\":358:429   */\n      tag_45\n        /* \"#utility.yul\":426:427   */\n      0x00\n        /* \"#utility.yul\":415:424   */\n      dup4\n        /* \"#utility.yul\":411:428   */\n      add\n        /* \"#utility.yul\":402:408   */\n      dup5\n        /* \"#utility.yul\":358:429   */\n      tag_33\n      jump\t// in\n    tag_45:\n        /* \"#utility.yul\":214:436   */\n      swap3\n      swap2\n      pop\n      pop\n      jump\t// out\n        /* \"#utility.yul\":442:532   */\n    tag_34:\n        /* \"#utility.yul\":476:483   */\n      0x00\n        /* \"#utility.yul\":519:524   */\n      dup2\n        /* \"#utility.yul\":512:525   */\n      iszero\n        /* \"#utility.yul\":505:526   */\n      iszero\n        /* \"#utility.yul\":494:526   */\n      swap1\n      pop\n        /* \"#utility.yul\":442:532   */\n      swap2\n      swap1\n      pop\n      jump\t// out\n        /* \"#utility.yul\":538:647   */\n    tag_35:\n        /* \"#utility.yul\":619:640   */\n      tag_48\n        /* \"#utility.yul\":634:639   */\n      dup2\n        /* \"#utility.yul\":619:640   */\n      tag_34\n      jump\t// in\n    tag_48:\n        /* \"#utility.yul\":614:617   */\n      dup3\n        /* \"#utility.yul\":607:641   */\n      mstore\n        /* \"#utility.yul\":538:647   */\n      pop\n      pop\n      jump\t// out\n        /* \"#utility.yul\":653:863   */\n    tag_16:\n        /* \"#utility.yul\":740:744   */\n      0x00\n        /* \"#utility.yul\":778:780   */\n      0x20\n        /* \"#utility.yul\":767:776   */\n      dup3\n        /* \"#utility.yul\":763:781   */\n      add\n        /* \"#utility.yul\":755:781   */\n      swap1\n      pop\n        /* \"#utility.yul\":791:856   */\n      tag_50\n        /* \"#utility.yul\":853:854   */\n      0x00\n        /* \"#utility.yul\":842:851   */\n      dup4\n        /* \"#utility.yul\":838:855   */\n      add\n        /* \"#utility.yul\":829:835   */\n      dup5\n        /* \"#utility.yul\":791:856   */\n      tag_35\n      jump\t// in\n    tag_50:\n        /* \"#utility.yul\":653:863   */\n      swap3\n      swap2\n      pop\n      pop\n      jump\t// out\n        /* \"#utility.yul\":869:1038   */\n    tag_36:\n        /* \"#utility.yul\":953:964   */\n      0x00\n        /* \"#utility.yul\":987:993   */\n      dup3\n        /* \"#utility.yul\":982:985   */\n      dup3\n        /* \"#utility.yul\":975:994   */\n      mstore\n        /* \"#utility.yul\":1027:1031   */\n      0x20\n        /* \"#utility.yul\":1022:1025   */\n      dup3\n        /* \"#utility.yul\":1018:1032   */\n      add\n        /* \"#utility.yul\":1003:1032   */\n      swap1\n      pop\n        /* \"#utility.yul\":869:1038   */\n      swap3\n      swap2\n      pop\n      pop\n      jump\t// out\n        /* \"#utility.yul\":1044:1200   */\n    tag_37:\n        /* \"#utility.yul\":1184:1192   */\n      0x5061757365640000000000000000000000000000000000000000000000000000\n        /* \"#utility.yul\":1180:1181   */\n      0x00\n        /* \"#utility.yul\":1172:1178   */\n      dup3\n        /* \"#utility.yul\":1168:1182   */\n      add\n        /* \"#utility.yul\":1161:1193   */\n      mstore\n        /* \"#utility.yul\":1044:1200   */\n      pop\n      jump\t// out\n        /* \"#utility.yul\":1206:1571   */\n    tag_38:\n        /* \"#utility.yul\":1348:1351   */\n      0x00\n        /* \"#utility.yul\":1369:1435   */\n      tag_54\n        /* \"#utility.yul\":1433:1434   */\n      0x06\n        /* \"#utility.yul\":1428:1431   */\n      dup4\n        /* \"#utility.yul\":1369:1435   */\n      tag_36\n      jump\t// in\n    tag_54:\n        /* \"#utility.yul\":1362:1435   */\n      swap2\n      pop\n        /* \"#utility.yul\":1444:1537   */\n      tag_55\n        /* \"#utility.yul\":1533:1536   */\n      dup3\n        /* \"#utility.yul\":1444:1537   */\n      tag_37\n      jump\t// in\n    tag_55:\n        /* \"#utility.yul\":1562:1564   */\n      0x20\n        /* \"#utility.yul\":1557:1560   */\n      dup3\n        /* \"#utility.yul\":1553:1565   */\n      add\n        /* \"#utility.yul\":1546:1565   */\n      swap1\n      pop\n        /* \"#utility.yul\":1206:1571   */\n      swap2\n      swap1\n      pop\n      jump\t// out\n        /* \"#utility.yul\":1577:1996   */\n    tag_22:\n        /* \"#utility.yul\":1743:1747   */\n      0x00\n        /* \"#utility.yul\":1781:1783   */\n      0x20\n        /* \"#utility.yul\":1770:1779   */\n      dup3\n        /* \"#utility.yul\":1766:1784   */\n      add\n        /* \"#utility.yul\":1758:1784   */\n      swap1\n      pop\n        /* \"#utility.yul\":1830:1839   */\n      dup2\n        /* \"#utility.yul\":1824:1828   */\n      dup2\n        /* \"#utility.yul\":1820:1840   */\n      sub\n        /* \"#utility.yul\":1816:1817   */\n      0x00\n        /* \"#utility.yul\":1805:1814   */\n      dup4\n        /* \"#utility.yul\":1801:1818   */\n      add\n        /* \"#utility.yul\":1794:1841   */\n      mstore\n        /* \"#utility.yul\":1858:1989   */\n      tag_57\n        /* \"#utility.yul\":1984:1988   */\n      dup2\n        /* \"#utility.yul\":1858:1989   */\n      tag_38\n      jump\t// in\n    tag_57:\n        /* \"#utility.yul\":1850:1989   */\n      swap1\n      pop\n        /* \"#utility.yul\":1577:1996   */\n      swap2\n      swap1\n      pop\n      jump\t// out\n        /* \"#utility.yul\":2002:2182   */\n    tag_39:\n        /* \"#utility.yul\":2050:2127   */\n      0x4e487b7100000000000000000000000000000000000000000000000000000000\n        /* \"#utility.yul\":2047:2048   */\n      0x00\n        /* \"#utility.yul\":2040:2128   */\n      mstore\n        /* \"#utility.yul\":2147:2151   */\n      0x11\n        /* \"#utility.yul\":2144:2145   */\n      0x04\n        /* \"#utility.yul\":2137:2152   */\n      mstore\n        /* \"#utility.yul\":2171:2175   */\n      0x24\n        /* \"#utility.yul\":2168:2169   */\n      0x00\n        /* \"#utility.yul\":2161:2176   */\n      revert\n        /* \"#utility.yul\":2188:2493   */\n    tag_25:\n        /* \"#utility.yul\":2228:2231   */\n      0x00\n        /* \"#utility.yul\":2247:2267   */\n      tag_60\n        /* \"#utility.yul\":2265:2266   */\n      dup3\n        /* \"#utility.yul\":2247:2267   */\n      tag_32\n      jump\t// in\n    tag_60:\n        /* \"#utility.yul\":2242:2267   */\n      swap2\n      pop\n        /* \"#utility.yul\":2281:2301   */\n      tag_61\n        /* \"#utility.yul\":2299:2300   */\n      dup4\n        /* \"#utility.yul\":2281:2301   */\n      tag_32\n      jump\t// in\n    tag_61:\n        /* \"#utility.yul\":2276:2301   */\n      swap3\n      pop\n        /* \"#utility.yul\":2435:2436   */\n      dup3\n        /* \"#utility.yul\":2367:2433   */\n      0xffffffffffffffffffffffffffffffffffffffffffffffffffffffffffffffff\n        /* \"#utility.yul\":2363:2437   */\n      sub\n        /* \"#utility.yul\":2360:2361   */\n      dup3\n        /* \"#utility.yul\":2357:2438   */\n      gt\n        /* \"#utility.yul\":2354:2461   */\n      iszero\n      tag_62\n      jumpi\n        /* \"#utility.yul\":2441:2459   */\n      tag_63\n      tag_39\n      jump\t// in\n    tag_63:\n        /* \"#utility.yul\":2354:2461   */\n    tag_62:\n        /* \"#utility.yul\":2485:2486   */\n      dup3\n        /* \"#utility.yul\":2482:2483   */\n      dup3\n        /* \"#utility.yul\":2478:2487   */\n      add\n        /* \"#utility.yul\":2471:2487   */\n      swap1\n      pop\n        /* \"#utility.yul\":2188:2493   */\n      swap3\n      swap2\n      pop\n      pop\n      jump\t// out\n        /* \"#utility.yul\":2499:2690   */\n    tag_31:\n        /* \"#utility.yul\":2539:2543   */\n      0x00\n        /* \"#utility.yul\":2559:2579   */\n      tag_65\n        /* \"#utility.yul\":2577:2578   */\n      dup3\n        /* \"#utility.yul\":2559:2579   */\n      tag_32\n      jump\t// in\n    tag_65:\n        /* \"#utility.yul\":2554:2579   */\n      swap2\n      pop\n        /* \"#utility.yul\":2593:2613   */\n      tag_66\n        /* \"#utility.yul\":2611:2612   */\n      dup4\n        /* \"#utility.yul\":2593:2613   */\n      tag_32\n      jump\t// in\n    tag_66:\n        /* \"#utility.yul\":2588:2613   */\n      swap3\n      pop\n        /* \"#utility.yul\":2632:2633   */\n      dup3\n        /* \"#utility.yul\":2629:2630   */\n      dup3\n        /* \"#utility.yul\":2626:2634   */\n      lt\n        /* \"#utility.yul\":2623:2657   */\n      iszero\n      tag_67\n      jumpi\n        /* \"#utility.yul\":2637:2655   */\n      tag_68\n      tag_39\n      jump\t// in\n    tag_68:\n        /* \"#utility.yul\":2623:2657   */\n    tag_67:\n        /* \"#utility.yul\":2682:2683   */\n      dup3\n        /* \"#utility.yul\":2679:2680   */\n      dup3\n        /* \"#utility.yul\":2675:2684   */\n      sub\n        /* \"#utility.yul\":2667:2684   */\n      swap1\n      pop\n        /* \"#utility.yul\":2499:2690   */\n      swap3\n      swap2\n      pop\n      pop\n      jump\t// out\n\n    auxdata: 0xa26469706673582212201b55f32e414e880e303a70d1edca9c2fe9a74896daa181a8a15f016460534eb964736f6c634300080f0033\n}\n",
				"bytecode": {
					"linkReferences": {},
					"object": "608060405234801561001057600080fd5b50610364806100206000396000f3fe608060405234801561001057600080fd5b506004361061004c5760003560e01c806306661abd14610051578063371303c01461006f5780635c975abb14610079578063b3bcfa8214610097575b600080fd5b6100596100a1565b60405161006691906101a7565b60405180910390f35b6100776100a7565b005b610081610111565b60405161008e91906101dd565b60405180910390f35b61009f610124565b005b60005481565b600160009054906101000a900460ff166100f6576040517f08c379a00000000000000000000000000000000000000000000000000000000081526004016100ed90610255565b60405180910390fd5b600160008082825461010891906102a4565b92505081905550565b600160009054906101000a900460ff1681565b600160009054906101000a900460ff16610173576040517f08c379a000000000000000000000000000000000000000000000000000000000815260040161016a90610255565b60405180910390fd5b600160008082825461018591906102fa565b92505081905550565b6000819050919050565b6101a18161018e565b82525050565b60006020820190506101bc6000830184610198565b92915050565b60008115159050919050565b6101d7816101c2565b82525050565b60006020820190506101f260008301846101ce565b92915050565b600082825260208201905092915050565b7f5061757365640000000000000000000000000000000000000000000000000000600082015250565b600061023f6006836101f8565b915061024a82610209565b602082019050919050565b6000602082019050818103600083015261026e81610232565b9050919050565b7f4e487b7100000000000000000000000000000000000000000000000000000000600052601160045260246000fd5b60006102af8261018e565b91506102ba8361018e565b9250827fffffffffffffffffffffffffffffffffffffffffffffffffffffffffffffffff038211156102ef576102ee610275565b5b828201905092915050565b60006103058261018e565b91506103108361018e565b92508282101561032357610322610275565b5b82820390509291505056fea26469706673582212201b55f32e414e880e303a70d1edca9c2fe9a74896daa181a8a15f016460534eb964736f6c634300080f0033",
					"opcodes": "PUSH1 0x80 PUSH1 0x40 MSTORE CALLVALUE DUP1 ISZERO PUSH2 0x10 JUMPI PUSH1 0x0 DUP1 REVERT JUMPDEST POP PUSH2 0x364 DUP1 PUSH2 0x20 PUSH1 0x0 CODECOPY PUSH1 0x0 RETURN INVALID PUSH1 0x80 PUSH1 0x40 MSTORE CALLVALUE DUP1 ISZERO PUSH2 0x10 JUMPI PUSH1 0x0 DUP1 REVERT JUMPDEST POP PUSH1 0x4 CALLDATASIZE LT PUSH2 0x4C JUMPI PUSH1 0x0 CALLDATALOAD PUSH1 0xE0 SHR DUP1 PUSH4 0x6661ABD EQ PUSH2 0x51 JUMPI DUP1 PUSH4 0x371303C0 EQ PUSH2 0x6F JUMPI DUP1 PUSH4 0x5C975ABB EQ PUSH2 0x79 JUMPI DUP1 PUSH4 0xB3BCFA82 EQ PUSH2 0x97 JUMPI JUMPDEST PUSH1 0x0 DUP1 REVERT JUMPDEST PUSH2 0x59 PUSH2 0xA1 JUMP JUMPDEST PUSH1 0x40 MLOAD PUSH2 0x66 SWAP2 SWAP1 PUSH2 0x1A7 JUMP JUMPDEST PUSH1 0x40 MLOAD DUP1 SWAP2 SUB SWAP1 RETURN JUMPDEST PUSH2 0x77 PUSH2 0xA7 JUMP JUMPDEST STOP JUMPDEST PUSH2 0x81 PUSH2 0x111 JUMP JUMPDEST PUSH1 0x40 MLOAD PUSH2 0x8E SWAP2 SWAP1 PUSH2 0x1DD JUMP JUMPDEST PUSH1 0x40 MLOAD DUP1 SWAP2 SUB SWAP1 RETURN JUMPDEST PUSH2 0x9F PUSH2 0x124 JUMP JUMPDEST STOP JUMPDEST PUSH1 0x0 SLOAD DUP2 JUMP JUMPDEST PUSH1 0x1 PUSH1 0x0 SWAP1 SLOAD SWAP1 PUSH2 0x100 EXP SWAP1 DIV PUSH1 0xFF AND PUSH2 0xF6 JUMPI PUSH1 0x40 MLOAD PUSH32 0x8C379A000000000000000000000000000000000000000000000000000000000 DUP2 MSTORE PUSH1 0x4 ADD PUSH2 0xED SWAP1 PUSH2 0x255 JUMP JUMPDEST PUSH1 0x40 MLOAD DUP1 SWAP2 SUB SWAP1 REVERT JUMPDEST PUSH1 0x1 PUSH1 0x0 DUP1 DUP3 DUP3 SLOAD PUSH2 0x108 SWAP2 SWAP1 PUSH2 0x2A4 JUMP JUMPDEST SWAP3 POP POP DUP2 SWAP1 SSTORE POP JUMP JUMPDEST PUSH1 0x1 PUSH1 0x0 SWAP1 SLOAD SWAP1 PUSH2 0x100 EXP SWAP1 DIV PUSH1 0xFF AND DUP2 JUMP JUMPDEST PUSH1 0x1 PUSH1 0x0 SWAP1 SLOAD SWAP1 PUSH2 0x100 EXP SWAP1 DIV PUSH1 0xFF AND PUSH2 0x173 JUMPI PUSH1 0x40 MLOAD PUSH32 0x8C379A000000000000000000000000000000000000000000000000000000000 DUP2 MSTORE PUSH1 0x4 ADD PUSH2 0x16A SWAP1 PUSH2 0x255 JUMP JUMPDEST PUSH1 0x40 MLOAD DUP1 SWAP2 SUB SWAP1 REVERT JUMPDEST PUSH1 0x1 PUSH1 0x0 DUP1 DUP3 DUP3 SLOAD PUSH2 0x185 SWAP2 SWAP1 PUSH2 0x2FA JUMP JUMPDEST SWAP3 POP POP DUP2 SWAP1 SSTORE POP JUMP JUMPDEST PUSH1 0x0 DUP2 SWAP1 POP SWAP2 SWAP1 POP JUMP JUMPDEST PUSH2 0x1A1 DUP2 PUSH2 0x18E JUMP JUMPDEST DUP3 MSTORE POP POP JUMP JUMPDEST PUSH1 0x0 PUSH1 0x20 DUP3 ADD SWAP1 POP PUSH2 0x1BC PUSH1 0x0 DUP4 ADD DUP5 PUSH2 0x198 JUMP JUMPDEST SWAP3 SWAP2 POP POP JUMP JUMPDEST PUSH1 0x0 DUP2 ISZERO ISZERO SWAP1 POP SWAP2 SWAP1 POP JUMP JUMPDEST PUSH2 0x1D7 DUP2 PUSH2 0x1C2 JUMP JUMPDEST DUP3 MSTORE POP POP JUMP JUMPDEST PUSH1 0x0 PUSH1 0x20 DUP3 ADD SWAP1 POP PUSH2 0x1F2 PUSH1 0x0 DUP4 ADD DUP5 PUSH2 0x1CE JUMP JUMPDEST SWAP3 SWAP2 POP POP JUMP JUMPDEST PUSH1 0x0 DUP3 DUP3 MSTORE PUSH1 0x20 DUP3 ADD SWAP1 POP SWAP3 SWAP2 POP POP JUMP JUMPDEST PUSH32 0x5061757365640000000000000000000000000000000000000000000000000000 PUSH1 0x0 DUP3 ADD MSTORE POP JUMP JUMPDEST PUSH1 0x0 PUSH2 0x23F PUSH1 0x6 DUP4 PUSH2 0x1F8 JUMP JUMPDEST SWAP2 POP PUSH2 0x24A DUP3 PUSH2 0x209 JUMP JUMPDEST PUSH1 0x20 DUP3 ADD SWAP1 POP SWAP2 SWAP1 POP JUMP JUMPDEST PUSH1 0x0 PUSH1 0x20 DUP3 ADD SWAP1 POP DUP2 DUP2 SUB PUSH1 0x0 DUP4 ADD MSTORE PUSH2 0x26E DUP2 PUSH2 0x232 JUMP JUMPDEST SWAP1 POP SWAP2 SWAP1 POP JUMP JUMPDEST PUSH32 0x4E487B7100000000000000000000000000000000000000000000000000000000 PUSH1 0x0 MSTORE PUSH1 0x11 PUSH1 0x4 MSTORE PUSH1 0x24 PUSH1 0x0 REVERT JUMPDEST PUSH1 0x0 PUSH2 0x2AF DUP3 PUSH2 0x18E JUMP JUMPDEST SWAP2 POP PUSH2 0x2BA DUP4 PUSH2 0x18E JUMP JUMPDEST SWAP3 POP DUP3 PUSH32 0xFFFFFFFFFFFFFFFFFFFFFFFFFFFFFFFFFFFFFFFFFFFFFFFFFFFFFFFFFFFFFFFF SUB DUP3 GT ISZERO PUSH2 0x2EF JUMPI PUSH2 0x2EE PUSH2 0x275 JUMP JUMPDEST JUMPDEST DUP3 DUP3 ADD SWAP1 POP SWAP3 SWAP2 POP POP JUMP JUMPDEST PUSH1 0x0 PUSH2 0x305 DUP3 PUSH2 0x18E JUMP JUMPDEST SWAP2 POP PUSH2 0x310 DUP4 PUSH2 0x18E JUMP JUMPDEST SWAP3 POP DUP3 DUP3 LT ISZERO PUSH2 0x323 JUMPI PUSH2 0x322 PUSH2 0x275 JUMP JUMPDEST JUMPDEST DUP3 DUP3 SUB SWAP1 POP SWAP3 SWAP2 POP POP JUMP INVALID LOG2 PUSH5 0x6970667358 0x22 SLT KECCAK256 SHL SSTORE RETURN 0x2E COINBASE 0x4E DUP9 0xE ADDRESS GASPRICE PUSH17 0xD1EDCA9C2FE9A74896DAA181A8A15F0164 PUSH1 0x53 0x4E 0xB9 PUSH5 0x736F6C6343 STOP ADDMOD 0xF STOP CALLER "
				},
				"gasEstimates": {
					"creation": {
						"codeDepositCost": "173600",
						"executionCost": "220",
						"totalCost": "173820"
					},
					"external": {
						"count()": "2407",
						"dec()": "infinite",
						"inc()": "infinite",
						"paused()": "2493"
					}
				},
				"methodIdentifiers": {
					"count()": "06661abd",
					"dec()": "b3bcfa82",
					"inc()": "371303c0",
					"paused()": "5c975abb"
				}
			},
			"storageLayout": {
				"storage": [
					{
						"astId": 3,
						"contract": "lessons/FunctionModifier.sol:FunctionModifier",
						"label": "count",
						"offset": 0,
						"slot": "0",
						"type": "t_uint256"
					},
					{
						"astId": 5,
						"contract": "lessons/FunctionModifier.sol:FunctionModifier",
						"label": "paused",
						"offset": 0,
						"slot": "1",
						"type": "t_bool"
					}
				],
				"types": {
					"t_bool": {
						"encoding": "inplace",
						"label": "bool",
						"numberOfBytes": "1"
					},
					"t_uint256": {
						"encoding": "inplace",
						"label": "uint256",
						"numberOfBytes": "32"
					}
				}
			},
			"userdoc": {
				"kind": "user",
				"methods": {},
				"version": 1
			}
		}
	}
}